{
  "address": "0xc593c83A4b5f88b976df1d1140124C565e764a72",
  "abi": [
    {
      "inputs": [
        {
          "internalType": "address",
          "name": "_allowanceToken",
          "type": "address"
        },
        {
          "internalType": "string",
          "name": "_dTokenName",
          "type": "string"
        },
        {
          "internalType": "string",
          "name": "_dTokenSymbol",
          "type": "string"
        },
        {
          "internalType": "address",
          "name": "_poolRouter",
          "type": "address"
        },
        {
          "internalType": "address",
          "name": "_feeCurve",
          "type": "address"
        }
      ],
      "stateMutability": "nonpayable",
      "type": "constructor"
    },
    {
      "anonymous": false,
      "inputs": [
        {
          "indexed": true,
          "internalType": "address",
          "name": "token",
          "type": "address"
        },
        {
          "indexed": false,
          "internalType": "address",
          "name": "rewardsPool",
          "type": "address"
        }
      ],
      "name": "AddToken",
      "type": "event"
    },
    {
      "anonymous": false,
      "inputs": [
        {
          "indexed": true,
          "internalType": "address",
          "name": "user",
          "type": "address"
        },
        {
          "indexed": false,
          "internalType": "uint256",
          "name": "amount",
          "type": "uint256"
        }
      ],
      "name": "AllowanceStaked",
      "type": "event"
    },
    {
      "anonymous": false,
      "inputs": [
        {
          "indexed": true,
          "internalType": "address",
          "name": "user",
          "type": "address"
        },
        {
          "indexed": false,
          "internalType": "uint256",
          "name": "amount",
          "type": "uint256"
        }
      ],
      "name": "AllowanceWithdrawn",
      "type": "event"
    },
    {
      "anonymous": false,
      "inputs": [
        {
          "indexed": true,
          "internalType": "address",
          "name": "owner",
          "type": "address"
        },
        {
          "indexed": true,
          "internalType": "address",
          "name": "spender",
          "type": "address"
        },
        {
          "indexed": false,
          "internalType": "uint256",
          "name": "value",
          "type": "uint256"
        }
      ],
      "name": "Approval",
      "type": "event"
    },
    {
      "anonymous": false,
      "inputs": [
        {
          "indexed": true,
          "internalType": "address",
          "name": "previousOwner",
          "type": "address"
        },
        {
          "indexed": true,
          "internalType": "address",
          "name": "newOwner",
          "type": "address"
        }
      ],
      "name": "OwnershipTransferred",
      "type": "event"
    },
    {
      "anonymous": false,
      "inputs": [
        {
          "indexed": true,
          "internalType": "address",
          "name": "approver",
          "type": "address"
        },
        {
          "indexed": true,
          "internalType": "address",
          "name": "to",
          "type": "address"
        }
      ],
      "name": "RedirectApproval",
      "type": "event"
    },
    {
      "anonymous": false,
      "inputs": [
        {
          "indexed": true,
          "internalType": "address",
          "name": "approver",
          "type": "address"
        },
        {
          "indexed": true,
          "internalType": "address",
          "name": "from",
          "type": "address"
        }
      ],
      "name": "RedirectApprovalRevoked",
      "type": "event"
    },
    {
      "anonymous": false,
      "inputs": [
        {
          "indexed": true,
          "internalType": "address",
          "name": "token",
          "type": "address"
        },
        {
          "indexed": false,
          "internalType": "address",
          "name": "rewardsPool",
          "type": "address"
        }
      ],
      "name": "RemoveToken",
      "type": "event"
    },
    {
      "anonymous": false,
      "inputs": [
        {
          "indexed": true,
          "internalType": "address",
          "name": "from",
          "type": "address"
        },
        {
          "indexed": true,
          "internalType": "address",
          "name": "to",
          "type": "address"
        },
        {
          "indexed": true,
          "internalType": "address",
          "name": "by",
          "type": "address"
        }
      ],
      "name": "RewardsRedirected",
      "type": "event"
    },
    {
      "anonymous": false,
      "inputs": [
        {
          "indexed": true,
          "internalType": "address",
          "name": "from",
          "type": "address"
        },
        {
          "indexed": true,
          "internalType": "address",
          "name": "to",
          "type": "address"
        },
        {
          "indexed": false,
          "internalType": "uint256",
          "name": "value",
          "type": "uint256"
        }
      ],
      "name": "Transfer",
      "type": "event"
    },
    {
      "anonymous": false,
      "inputs": [
        {
          "indexed": true,
          "internalType": "address",
          "name": "account",
          "type": "address"
        }
      ],
      "name": "WithdrawRewards",
      "type": "event"
    },
    {
      "inputs": [
        {
          "internalType": "address",
          "name": "_token",
          "type": "address"
        },
        {
          "internalType": "address",
          "name": "_rewardsPool",
          "type": "address"
        }
      ],
      "name": "addToken",
      "outputs": [],
      "stateMutability": "nonpayable",
      "type": "function"
    },
    {
      "inputs": [
        {
          "internalType": "address",
          "name": "owner",
          "type": "address"
        },
        {
          "internalType": "address",
          "name": "spender",
          "type": "address"
        }
      ],
      "name": "allowance",
      "outputs": [
        {
          "internalType": "uint256",
          "name": "",
          "type": "uint256"
        }
      ],
      "stateMutability": "view",
      "type": "function"
    },
    {
      "inputs": [],
      "name": "allowanceToken",
      "outputs": [
        {
          "internalType": "contract IERC20",
          "name": "",
          "type": "address"
        }
      ],
      "stateMutability": "view",
      "type": "function"
    },
    {
      "inputs": [
        {
          "internalType": "address",
          "name": "spender",
          "type": "address"
        },
        {
          "internalType": "uint256",
          "name": "amount",
          "type": "uint256"
        }
      ],
      "name": "approve",
      "outputs": [
        {
          "internalType": "bool",
          "name": "",
          "type": "bool"
        }
      ],
      "stateMutability": "nonpayable",
      "type": "function"
    },
    {
      "inputs": [
        {
          "internalType": "address",
          "name": "_to",
          "type": "address"
        }
      ],
      "name": "approveRedirect",
      "outputs": [],
      "stateMutability": "nonpayable",
      "type": "function"
    },
    {
      "inputs": [
        {
          "internalType": "address",
          "name": "_account",
          "type": "address"
        }
      ],
      "name": "balanceOf",
      "outputs": [
        {
          "internalType": "uint256",
          "name": "",
          "type": "uint256"
        }
      ],
      "stateMutability": "view",
      "type": "function"
    },
    {
      "inputs": [
        {
          "internalType": "address",
          "name": "_token",
          "type": "address"
        },
        {
          "internalType": "uint16",
          "name": "_index",
          "type": "uint16"
        }
      ],
      "name": "currentRate",
      "outputs": [
        {
          "internalType": "uint256",
          "name": "",
          "type": "uint256"
        }
      ],
      "stateMutability": "view",
      "type": "function"
    },
    {
      "inputs": [
        {
          "internalType": "uint256",
          "name": "_percentageBorrowed",
          "type": "uint256"
        }
      ],
      "name": "currentRateAt",
      "outputs": [
        {
          "internalType": "uint256",
          "name": "",
          "type": "uint256"
        }
      ],
      "stateMutability": "view",
      "type": "function"
    },
    {
      "inputs": [],
      "name": "decimals",
      "outputs": [
        {
          "internalType": "uint8",
          "name": "",
          "type": "uint8"
        }
      ],
      "stateMutability": "view",
      "type": "function"
    },
    {
      "inputs": [
        {
          "internalType": "address",
          "name": "spender",
          "type": "address"
        },
        {
          "internalType": "uint256",
          "name": "subtractedValue",
          "type": "uint256"
        }
      ],
      "name": "decreaseAllowance",
      "outputs": [
        {
          "internalType": "bool",
          "name": "",
          "type": "bool"
        }
      ],
      "stateMutability": "nonpayable",
      "type": "function"
    },
    {
      "inputs": [
        {
          "internalType": "address",
          "name": "_token",
          "type": "address"
        }
      ],
      "name": "distributeToken",
      "outputs": [],
      "stateMutability": "nonpayable",
      "type": "function"
    },
    {
      "inputs": [
        {
          "internalType": "address[]",
          "name": "_tokens",
          "type": "address[]"
        }
      ],
      "name": "distributeTokens",
      "outputs": [],
      "stateMutability": "nonpayable",
      "type": "function"
    },
    {
      "inputs": [],
      "name": "feeCurve",
      "outputs": [
        {
          "internalType": "contract IFeeCurve",
          "name": "",
          "type": "address"
        }
      ],
      "stateMutability": "view",
      "type": "function"
    },
    {
      "inputs": [
        {
          "internalType": "address",
          "name": "_account",
          "type": "address"
        }
      ],
      "name": "getVestingSchedule",
      "outputs": [
        {
          "components": [
            {
              "internalType": "uint256",
              "name": "totalAmount",
              "type": "uint256"
            },
            {
              "internalType": "uint64",
              "name": "startTimestamp",
              "type": "uint64"
            },
            {
              "internalType": "uint64",
              "name": "durationSeconds",
              "type": "uint64"
            }
          ],
          "internalType": "struct DelegatorPool.VestingSchedule",
          "name": "",
          "type": "tuple"
        }
      ],
      "stateMutability": "view",
      "type": "function"
    },
    {
      "inputs": [
        {
          "internalType": "address",
          "name": "spender",
          "type": "address"
        },
        {
          "internalType": "uint256",
          "name": "addedValue",
          "type": "uint256"
        }
      ],
      "name": "increaseAllowance",
      "outputs": [
        {
          "internalType": "bool",
          "name": "",
          "type": "bool"
        }
      ],
      "stateMutability": "nonpayable",
      "type": "function"
    },
    {
      "inputs": [
        {
          "internalType": "address",
          "name": "_token",
          "type": "address"
        }
      ],
      "name": "isTokenSupported",
      "outputs": [
        {
          "internalType": "bool",
          "name": "",
          "type": "bool"
        }
      ],
      "stateMutability": "view",
      "type": "function"
    },
    {
      "inputs": [],
      "name": "name",
      "outputs": [
        {
          "internalType": "string",
          "name": "",
          "type": "string"
        }
      ],
      "stateMutability": "view",
      "type": "function"
    },
    {
      "inputs": [
        {
          "internalType": "address",
          "name": "_sender",
          "type": "address"
        },
        {
          "internalType": "uint256",
          "name": "_value",
          "type": "uint256"
        },
        {
          "internalType": "bytes",
          "name": "_calldata",
          "type": "bytes"
        }
      ],
      "name": "onTokenTransfer",
      "outputs": [],
      "stateMutability": "nonpayable",
      "type": "function"
    },
    {
      "inputs": [],
      "name": "owner",
      "outputs": [
        {
          "internalType": "address",
          "name": "",
          "type": "address"
        }
      ],
      "stateMutability": "view",
      "type": "function"
    },
    {
      "inputs": [],
      "name": "poolRouter",
      "outputs": [
        {
          "internalType": "contract IPoolRouter",
          "name": "",
          "type": "address"
        }
      ],
      "stateMutability": "view",
      "type": "function"
    },
    {
      "inputs": [
        {
          "internalType": "address",
          "name": "",
          "type": "address"
        }
      ],
      "name": "redirectApprovals",
      "outputs": [
        {
          "internalType": "address",
          "name": "",
          "type": "address"
        }
      ],
      "stateMutability": "view",
      "type": "function"
    },
    {
      "inputs": [
        {
          "internalType": "address",
          "name": "_to",
          "type": "address"
        }
      ],
      "name": "redirectRewards",
      "outputs": [],
      "stateMutability": "nonpayable",
      "type": "function"
    },
    {
      "inputs": [
        {
          "internalType": "address",
          "name": "_from",
          "type": "address"
        },
        {
          "internalType": "address",
          "name": "_to",
          "type": "address"
        }
      ],
      "name": "redirectRewardsFrom",
      "outputs": [],
      "stateMutability": "nonpayable",
      "type": "function"
    },
    {
      "inputs": [
        {
          "internalType": "address",
          "name": "",
          "type": "address"
        }
      ],
      "name": "redirectedStakes",
      "outputs": [
        {
          "internalType": "uint256",
          "name": "",
          "type": "uint256"
        }
      ],
      "stateMutability": "view",
      "type": "function"
    },
    {
      "inputs": [
        {
          "internalType": "address",
          "name": "_token",
          "type": "address"
        }
      ],
      "name": "removeToken",
      "outputs": [],
      "stateMutability": "nonpayable",
      "type": "function"
    },
    {
      "inputs": [],
      "name": "renounceOwnership",
      "outputs": [],
      "stateMutability": "nonpayable",
      "type": "function"
    },
    {
      "inputs": [],
      "name": "revokeRedirectApproval",
      "outputs": [],
      "stateMutability": "nonpayable",
      "type": "function"
    },
    {
      "inputs": [
        {
          "internalType": "address",
          "name": "",
          "type": "address"
        }
      ],
      "name": "rewardRedirects",
      "outputs": [
        {
          "internalType": "address",
          "name": "",
          "type": "address"
        }
      ],
      "stateMutability": "view",
      "type": "function"
    },
    {
      "inputs": [
        {
          "internalType": "address",
          "name": "_account",
          "type": "address"
        }
      ],
      "name": "rewardsAddress",
      "outputs": [
        {
          "internalType": "address",
          "name": "",
          "type": "address"
        }
      ],
      "stateMutability": "view",
      "type": "function"
    },
    {
      "inputs": [
        {
          "internalType": "address",
          "name": "_feeCurve",
          "type": "address"
        }
      ],
      "name": "setFeeCurve",
      "outputs": [],
      "stateMutability": "nonpayable",
      "type": "function"
    },
    {
      "inputs": [
        {
          "internalType": "address",
          "name": "_account",
          "type": "address"
        }
      ],
      "name": "staked",
      "outputs": [
        {
          "internalType": "uint256",
          "name": "",
          "type": "uint256"
        }
      ],
      "stateMutability": "view",
      "type": "function"
    },
    {
      "inputs": [],
      "name": "supportedTokens",
      "outputs": [
        {
          "internalType": "address[]",
          "name": "",
          "type": "address[]"
        }
      ],
      "stateMutability": "view",
      "type": "function"
    },
    {
      "inputs": [],
      "name": "symbol",
      "outputs": [
        {
          "internalType": "string",
          "name": "",
          "type": "string"
        }
      ],
      "stateMutability": "view",
      "type": "function"
    },
    {
      "inputs": [],
      "name": "tokenBalances",
      "outputs": [
        {
          "internalType": "address[]",
          "name": "",
          "type": "address[]"
        },
        {
          "internalType": "uint256[]",
          "name": "",
          "type": "uint256[]"
        }
      ],
      "stateMutability": "view",
      "type": "function"
    },
    {
      "inputs": [
        {
          "internalType": "address",
          "name": "",
          "type": "address"
        }
      ],
      "name": "tokenPools",
      "outputs": [
        {
          "internalType": "contract IRewardsPool",
          "name": "",
          "type": "address"
        }
      ],
      "stateMutability": "view",
      "type": "function"
    },
    {
      "inputs": [],
      "name": "totalStaked",
      "outputs": [
        {
          "internalType": "uint256",
          "name": "",
          "type": "uint256"
        }
      ],
      "stateMutability": "view",
      "type": "function"
    },
    {
      "inputs": [],
      "name": "totalSupply",
      "outputs": [
        {
          "internalType": "uint256",
          "name": "",
          "type": "uint256"
        }
      ],
      "stateMutability": "view",
      "type": "function"
    },
    {
      "inputs": [
        {
          "internalType": "address",
          "name": "to",
          "type": "address"
        },
        {
          "internalType": "uint256",
          "name": "amount",
          "type": "uint256"
        }
      ],
      "name": "transfer",
      "outputs": [
        {
          "internalType": "bool",
          "name": "",
          "type": "bool"
        }
      ],
      "stateMutability": "nonpayable",
      "type": "function"
    },
    {
      "inputs": [
        {
          "internalType": "address",
          "name": "_to",
          "type": "address"
        },
        {
          "internalType": "uint256",
          "name": "_value",
          "type": "uint256"
        },
        {
          "internalType": "bytes",
          "name": "_data",
          "type": "bytes"
        }
      ],
      "name": "transferAndCall",
      "outputs": [
        {
          "internalType": "bool",
          "name": "",
          "type": "bool"
        }
      ],
      "stateMutability": "nonpayable",
      "type": "function"
    },
    {
      "inputs": [
        {
          "internalType": "address",
          "name": "from",
          "type": "address"
        },
        {
          "internalType": "address",
          "name": "to",
          "type": "address"
        },
        {
          "internalType": "uint256",
          "name": "amount",
          "type": "uint256"
        }
      ],
      "name": "transferFrom",
      "outputs": [
        {
          "internalType": "bool",
          "name": "",
          "type": "bool"
        }
      ],
      "stateMutability": "nonpayable",
      "type": "function"
    },
    {
      "inputs": [
        {
          "internalType": "address",
          "name": "newOwner",
          "type": "address"
        }
      ],
      "name": "transferOwnership",
      "outputs": [],
      "stateMutability": "nonpayable",
      "type": "function"
    },
    {
      "inputs": [
        {
          "internalType": "uint256",
          "name": "_amount",
          "type": "uint256"
        }
      ],
      "name": "withdrawAllowance",
      "outputs": [],
      "stateMutability": "nonpayable",
      "type": "function"
    },
    {
      "inputs": [
        {
          "internalType": "address[]",
          "name": "_tokens",
          "type": "address[]"
        }
      ],
      "name": "withdrawRewards",
      "outputs": [],
      "stateMutability": "nonpayable",
      "type": "function"
    },
    {
      "inputs": [
        {
          "internalType": "address",
          "name": "_account",
          "type": "address"
        }
      ],
      "name": "withdrawableRewards",
      "outputs": [
        {
          "internalType": "uint256[]",
          "name": "",
          "type": "uint256[]"
        }
      ],
      "stateMutability": "view",
      "type": "function"
    }
  ],
  "transactionHash": "0xa5d637814a8d464266cf855abdd994c517b804e2daf7ca9de14e831ebfd4b0b2",
  "args": [
    "0x9029A794b6032E747c7Cc6Dab9c7485D86705F7b",
    "Staked SDL",
    "stSDL",
    "0x86D2AFfd07Ab56F5371FE65f89F63d1B59bC8B12",
    "0xc2dd2A701cb819c5fA0781f929D393145d37CE4d"
  ],
  "numDeployments": 1,
  "solcInputHash": "3b2625e8211dd6eaac71f4a881384a88",
  "bytecode": "0x60c06040523480156200001157600080fd5b506040516200357238038062003572833981016040819052620000349162000302565b83838181600082826200004733620000d6565b600462000055838262000433565b50600562000064828262000433565b5050506200009e336200007c6200012660201b60201c565b6200008c9060ff16600a62000614565b62000098908462000629565b6200012b565b505050506001600160a01b039586166080525090841660a052600b80546001600160a01b031916919094161790925550620006669050565b600080546001600160a01b038381166001600160a01b0319831681178455604051919092169283917f8be0079c531659141344cd1fd0a4f28419497f9722a3daafe3b4186f6b6457e09190a35050565b601290565b6001600160a01b038216620001865760405162461bcd60e51b815260206004820152601f60248201527f45524332303a206d696e7420746f20746865207a65726f206164647265737300604482015260640160405180910390fd5b80600360008282546200019a91906200064b565b90915550506001600160a01b03821660009081526001602052604081208054839290620001c99084906200064b565b90915550506040518181526001600160a01b038316906000907fddf252ad1be2c89b69c2b068fc378daa952ba7f163c4a11628f55a4df523b3ef9060200160405180910390a35050565b505050565b80516001600160a01b03811681146200023057600080fd5b919050565b634e487b7160e01b600052604160045260246000fd5b600082601f8301126200025d57600080fd5b81516001600160401b03808211156200027a576200027a62000235565b604051601f8301601f19908116603f01168101908282118183101715620002a557620002a562000235565b81604052838152602092508683858801011115620002c257600080fd5b600091505b83821015620002e65785820183015181830184015290820190620002c7565b83821115620002f85760008385830101525b9695505050505050565b600080600080600060a086880312156200031b57600080fd5b620003268662000218565b60208701519095506001600160401b03808211156200034457600080fd5b6200035289838a016200024b565b955060408801519150808211156200036957600080fd5b5062000378888289016200024b565b935050620003896060870162000218565b9150620003996080870162000218565b90509295509295909350565b600181811c90821680620003ba57607f821691505b602082108103620003db57634e487b7160e01b600052602260045260246000fd5b50919050565b601f8211156200021357600081815260208120601f850160051c810160208610156200040a5750805b601f850160051c820191505b818110156200042b5782815560010162000416565b505050505050565b81516001600160401b038111156200044f576200044f62000235565b6200046781620004608454620003a5565b84620003e1565b602080601f8311600181146200049f5760008415620004865750858301515b600019600386901b1c1916600185901b1785556200042b565b600085815260208120601f198616915b82811015620004d057888601518255948401946001909101908401620004af565b5085821015620004ef5787850151600019600388901b60f8161c191681555b5050505050600190811b01905550565b634e487b7160e01b600052601160045260246000fd5b600181815b80851115620005565781600019048211156200053a576200053a620004ff565b808516156200054857918102915b93841c93908002906200051a565b509250929050565b6000826200056f575060016200060e565b816200057e575060006200060e565b8160018114620005975760028114620005a257620005c2565b60019150506200060e565b60ff841115620005b657620005b6620004ff565b50506001821b6200060e565b5060208310610133831016604e8410600b8410161715620005e7575081810a6200060e565b620005f3838362000515565b80600019048211156200060a576200060a620004ff565b0290505b92915050565b60006200062283836200055e565b9392505050565b6000816000190483118215151615620006465762000646620004ff565b500290565b60008219821115620006615762000661620004ff565b500190565b60805160a051612ec3620006af600039600081816103620152818161071201526115ca01526000818161067f01528181611448015281816114e001526117db0152612ec36000f3fe608060405234801561001057600080fd5b50600436106102745760003560e01c8063817b1cd211610151578063a9059cbb116100c3578063c53b585e11610087578063c53b585e1461065f578063d387fd6c14610672578063d5d67d511461067a578063dd62ed3e146106a1578063ef735f07146106b4578063f2fde38b146106c757600080fd5b8063a9059cbb146105e8578063b002249d146105fb578063ba650f7914610610578063c3d2c3c114610623578063c51648811461064c57600080fd5b8063952db31f11610115578063952db31f146104ef57806395d89b411461050257806398807d841461050a5780639f8290631461051d578063a457c2d7146105c2578063a4c0ed36146105d557600080fd5b8063817b1cd21461049d578063856695ea146104a557806386d74037146104b857806388951352146104cb5780638da5cb5b146104de57600080fd5b80635476bd72116101ea578063628a0f55116101ae578063628a0f551461042957806362d76d06146104495780636b5f83211461045c57806370a082311461046f578063715018a61461048257806375151b631461048a57600080fd5b80635476bd721461039c5780635b0c9391146103b15780635b45fac4146103c45780635fa7b584146103ed578063611fae021461040057600080fd5b806318160ddd1161023c57806318160ddd1461030d57806323b872dd14610315578063313ce5671461032857806339509351146103375780634000aea01461034a5780635452b9ba1461035d57600080fd5b806304e4c8641461027957806306fdde031461029f578063095ea7b3146102b45780630e3bc974146102d75780630f14b4d6146102ed575b600080fd5b61028c6102873660046128c3565b6106da565b6040519081526020015b60405180910390f35b6102a76107e3565b604051610296919061292d565b6102c76102c2366004612960565b610875565b6040519015158152602001610296565b6102df61088d565b6040516102969291906129fe565b6103006102fb366004612a2c565b610a08565b6040516102969190612a47565b60035461028c565b6102c7610323366004612a5a565b610b3a565b60405160128152602001610296565b6102c7610345366004612960565b610b5e565b6102c7610358366004612a96565b610b80565b6103847f000000000000000000000000000000000000000000000000000000000000000081565b6040516001600160a01b039091168152602001610296565b6103af6103aa366004612b1c565b610ba1565b005b6103af6103bf366004612a2c565b610d1b565b6103846103d2366004612a2c565b6008602052600090815260409020546001600160a01b031681565b6103af6103fb366004612a2c565b610d72565b61038461040e366004612a2c565b600a602052600090815260409020546001600160a01b031681565b61028c610437366004612a2c565b60096020526000908152604090205481565b6103af610457366004612b65565b610f39565b61028c61046a366004612c29565b611016565b61028c61047d366004612a2c565b61108a565b6103af6110db565b6102c7610498366004612a2c565b6110ef565b61028c61111f565b600b54610384906001600160a01b031681565b6103af6104c6366004612a2c565b61112f565b6103af6104d9366004612b65565b6112cf565b6000546001600160a01b0316610384565b6103846104fd366004612a2c565b611313565b6102a7611359565b61028c610518366004612a2c565b611368565b61058f61052b366004612a2c565b6040805160608082018352600080835260208084018290529284018190526001600160a01b03949094168452600c8252928290208251938401835280548452600101546001600160401b0380821692850192909252600160401b9004169082015290565b60408051825181526020808401516001600160401b03908116918301919091529282015190921690820152606001610296565b6102c76105d0366004612960565b6113c2565b6103af6105e3366004612a96565b61143d565b6102c76105f6366004612960565b61154f565b61060361155d565b6040516102969190612c42565b6103af61061e366004612c29565b6115be565b610384610631366004612a2c565b6006602052600090815260409020546001600160a01b031681565b6103af61065a366004612a2c565b61183d565b6103af61066d366004612a2c565b6118bd565b6103af6118ca565b6103847f000000000000000000000000000000000000000000000000000000000000000081565b61028c6106af366004612b1c565b611923565b6103af6106c2366004612b1c565b61194e565b6103af6106d5366004612a2c565b6119f5565b600b546040516319dc8ba760e31b81526001600160a01b03848116600483015261ffff8416602483015260009281169163246f938f917f0000000000000000000000000000000000000000000000000000000000000000169063cee45d3890604401602060405180830381865afa158015610759573d6000803e3d6000fd5b505050506040513d601f19601f8201168201806040525081019061077d9190612c55565b6040518263ffffffff1660e01b815260040161079b91815260200190565b602060405180830381865afa1580156107b8573d6000803e3d6000fd5b505050506040513d601f19601f820116820180604052508101906107dc9190612c55565b9392505050565b6060600480546107f290612c6e565b80601f016020809104026020016040519081016040528092919081815260200182805461081e90612c6e565b801561086b5780601f106108405761010080835404028352916020019161086b565b820191906000526020600020905b81548152906001019060200180831161084e57829003601f168201915b5050505050905090565b600033610883818585611a6b565b5060019392505050565b60608060006007805490506001600160401b038111156108af576108af612b4f565b6040519080825280602002602001820160405280156108d8578160200160208202803683370190505b50905060005b60075481101561099f57600781815481106108fb576108fb612ca8565b6000918252602090912001546040516370a0823160e01b81523060048201526001600160a01b03909116906370a0823190602401602060405180830381865afa15801561094c573d6000803e3d6000fd5b505050506040513d601f19601f820116820180604052508101906109709190612c55565b82828151811061098257610982612ca8565b60209081029190910101528061099781612cd4565b9150506108de565b50600781818054806020026020016040519081016040528092919081815260200182805480156109f857602002820191906000526020600020905b81546001600160a01b031681526001909101906020018083116109da575b5050505050915092509250509091565b6007546060906000906001600160401b03811115610a2857610a28612b4f565b604051908082528060200260200182016040528015610a51578160200160208202803683370190505b50905060005b600754811015610b33576006600060078381548110610a7857610a78612ca8565b6000918252602080832091909101546001600160a01b039081168452908301939093526040918201902054905163078a5a6b60e11b81528683166004820152911690630f14b4d690602401602060405180830381865afa158015610ae0573d6000803e3d6000fd5b505050506040513d601f19601f82011682018060405250810190610b049190612c55565b828281518110610b1657610b16612ca8565b602090810291909101015280610b2b81612cd4565b915050610a57565b5092915050565b600033610b48858285611b8f565b610b53858585611c03565b506001949350505050565b600033610883818585610b718383611923565b610b7b9190612ced565b611a6b565b6000610b8c858561154f565b50843b15610b5357610b533386868686611c4b565b610ba9611cb9565b610bb2826110ef565b15610c045760405162461bcd60e51b815260206004820152601a60248201527f546f6b656e20697320616c726561647920737570706f7274656400000000000060448201526064015b60405180910390fd5b6001600160a01b0382811660008181526006602052604080822080549486166001600160a01b0319958616179055600780546001810182559083527fa66cc928b5edb82af9bd49922954155ab7b0942694bea4ce44661d9a8736c688018054909416831790935591516370a0823160e01b81523060048201526370a0823190602401602060405180830381865afa158015610ca3573d6000803e3d6000fd5b505050506040513d601f19601f82011682018060405250810190610cc79190612c55565b1115610cd657610cd68261112f565b6040516001600160a01b0382811682528316907fdbf34b45b47a653cf4940cccbec765f72d4d63de3237306905bfc0ee28832362906020015b60405180910390a25050565b336000818152600a602052604080822080546001600160a01b0319166001600160a01b03861690811790915590519092917fbc2ae327210da6d1f0946518a140d99a46f3a238ea185f565875ebfe507eb99691a350565b610d7a611cb9565b610d83816110ef565b610dc85760405162461bcd60e51b8152602060048201526016602482015275151bdad95b881a5cc81b9bdd081cdd5c1c1bdc9d195960521b6044820152606401610bfb565b6001600160a01b03808216600090815260066020526040812080546001600160a01b03198116909155909116905b600754811015610efb57826001600160a01b031660078281548110610e1d57610e1d612ca8565b6000918252602090912001546001600160a01b031603610ee95760078054610e4790600190612d05565b81548110610e5757610e57612ca8565b600091825260209091200154600780546001600160a01b039092169183908110610e8357610e83612ca8565b9060005260206000200160006101000a8154816001600160a01b0302191690836001600160a01b031602179055506007805480610ec257610ec2612d1c565b600082815260209020810160001990810180546001600160a01b0319169055019055610efb565b80610ef381612cd4565b915050610df6565b506040516001600160a01b0382811682528316907f39dcd754ec63af4b82c4c569ff1b6b4e55a8038e6545844747e54f2f2d4e8e5090602001610d0f565b60005b8151811015610fe75760066000838381518110610f5b57610f5b612ca8565b6020908102919091018101516001600160a01b0390811683529082019290925260409081016000205490516351cff8d960e01b81523360048201529116906351cff8d990602401600060405180830381600087803b158015610fbc57600080fd5b505af1158015610fd0573d6000803e3d6000fd5b505050508080610fdf90612cd4565b915050610f3c565b5060405133907feeab3fd62be4cb59cbdc42d5b0f676a3597ff387b9a85e62330cc17c2a3603db90600090a250565b600b5460405163246f938f60e01b8152600481018390526000916001600160a01b03169063246f938f90602401602060405180830381865afa158015611060573d6000803e3d6000fd5b505050506040513d601f19601f820116820180604052508101906110849190612c55565b92915050565b600061109582611d13565b6001600160a01b0383166000908152600c60205260409020546110b89190612d05565b6001600160a01b0383166000908152600160205260409020546110849190612d05565b6110e3611cb9565b6110ed6000611e05565b565b6001600160a01b03818116600090815260066020526040812054909116611117576000611084565b600192915050565b600061112a60035490565b905090565b611138816110ef565b61117a5760405162461bcd60e51b8152602060048201526013602482015272151bdad95b881b9bdd081cdd5c1c1bdc9d1959606a1b6044820152606401610bfb565b6040516370a0823160e01b815230600482015281906000906001600160a01b038316906370a0823190602401602060405180830381865afa1580156111c3573d6000803e3d6000fd5b505050506040513d601f19601f820116820180604052508101906111e79190612c55565b9050600081116112395760405162461bcd60e51b815260206004820152601e60248201527f43616e6e6f742064697374726962757465207a65726f2062616c616e636500006044820152606401610bfb565b6001600160a01b0380841660009081526006602052604090205461126291848116911683611e55565b6001600160a01b038084166000908152600660205260408082205481516306f4a2cd60e41b81529151931692636f4a2cd09260048084019391929182900301818387803b1580156112b257600080fd5b505af11580156112c6573d6000803e3d6000fd5b50505050505050565b60005b815181101561130f576112fd8282815181106112f0576112f0612ca8565b602002602001015161112f565b8061130781612cd4565b9150506112d2565b5050565b6001600160a01b0381811660009081526008602052604081205490911661133a5781611084565b506001600160a01b039081166000908152600860205260409020541690565b6060600580546107f290612c6e565b6001600160a01b03808216600090815260096020908152604080832054600890925282205491929091161561139e5760006113b8565b6001600160a01b0383166000908152600160205260409020545b6110849190612ced565b600033816113d08286611923565b9050838110156114305760405162461bcd60e51b815260206004820152602560248201527f45524332303a2064656372656173656420616c6c6f77616e63652062656c6f77604482015264207a65726f60d81b6064820152608401610bfb565b610b538286868403611a6b565b336001600160a01b037f00000000000000000000000000000000000000000000000000000000000000001614806114785750611478336110ef565b6114d65760405162461bcd60e51b815260206004820152602960248201527f53656e646572206d75737420626520616c6c6f77616e6365206f722072657761604482015268393239903a37b5b2b760b91b6064820152608401610bfb565b6001600160a01b037f0000000000000000000000000000000000000000000000000000000000000000163303611540576115108484611eac565b600181111561153b5760008061152883850185612d49565b9150915061153886868484611f08565b50505b611549565b6115493361112f565b50505050565b600033610883818585611c03565b6060600780548060200260200160405190810160405280929190818152602001828054801561086b57602002820191906000526020600020905b81546001600160a01b03168152600190910190602001808311611597575050505050905090565b336115c88161206b565b7f00000000000000000000000000000000000000000000000000000000000000006001600160a01b031663a7858f576040518163ffffffff1660e01b8152600401602060405180830381865afa158015611626573d6000803e3d6000fd5b505050506040513d601f19601f8201168201806040525081019061164a9190612d73565b156116b55760405162461bcd60e51b815260206004820152603560248201527f416c6c6f77616e63652063616e6e6f742062652077697468647261776e207768604482015274195b881c1bdbdb1cc8185c99481c995cd95c9d9959605a1b6064820152608401610bfb565b816116bf3361108a565b10156117175760405162461bcd60e51b815260206004820152602160248201527f5769746864726177616c20616d6f756e7420657863656564732062616c616e636044820152606560f81b6064820152608401610bfb565b816001810161172c576117293361108a565b90505b336000908152600c60209081526040918290208251606081018452815481526001909101546001600160401b03808216938301849052600160401b90910416928101929092521580159061179b57508060400151816020015161178f9190612d95565b6001600160401b031642115b156117c457336000908152600c6020526040812090815560010180546001600160801b03191690555b6117ce338361211f565b6118026001600160a01b037f0000000000000000000000000000000000000000000000000000000000000000163384611e55565b60405182815233907fcb4e4a5b4e544d9c587ec3ac0eead830ce8a4cccfe48b8dc331d447c481be8979060200160405180910390a250505050565b611845611cb9565b6001600160a01b03811661189b5760405162461bcd60e51b815260206004820152601960248201527f496e76616c6964206665652063757276652061646472657373000000000000006044820152606401610bfb565b600b80546001600160a01b0319166001600160a01b0392909216919091179055565b6118c7338261226d565b50565b336000818152600a602052604080822080546001600160a01b0319811690915590516001600160a01b0390911692839290917f9dca899729a60a64e03e19b833c4ef7e1795b7d9ed899092fd59d5df5a8229e49190a350565b6001600160a01b03918216600090815260026020908152604080832093909416825291909152205490565b6001600160a01b038281166000908152600a60205260409020541633146119c55760405162461bcd60e51b815260206004820152602560248201527f417070726f76616c20726571756972656420746f207265646972656374207265604482015264776172647360d81b6064820152608401610bfb565b6001600160a01b0382166000908152600a6020526040902080546001600160a01b031916905561130f828261226d565b6119fd611cb9565b6001600160a01b038116611a625760405162461bcd60e51b815260206004820152602660248201527f4f776e61626c653a206e6577206f776e657220697320746865207a65726f206160448201526564647265737360d01b6064820152608401610bfb565b6118c781611e05565b6001600160a01b038316611acd5760405162461bcd60e51b8152602060048201526024808201527f45524332303a20617070726f76652066726f6d20746865207a65726f206164646044820152637265737360e01b6064820152608401610bfb565b6001600160a01b038216611b2e5760405162461bcd60e51b815260206004820152602260248201527f45524332303a20617070726f766520746f20746865207a65726f206164647265604482015261737360f01b6064820152608401610bfb565b6001600160a01b0383811660008181526002602090815260408083209487168084529482529182902085905590518481527f8c5be1e5ebec7d5bd14f71427d1e84f3dd0314c0f7b2291e5b200ac8c7c3b925910160405180910390a3505050565b6000611b9b8484611923565b905060001981146115495781811015611bf65760405162461bcd60e51b815260206004820152601d60248201527f45524332303a20696e73756666696369656e7420616c6c6f77616e63650000006044820152606401610bfb565b6115498484848403611a6b565b60405162461bcd60e51b815260206004820152601b60248201527f546f6b656e2063616e6e6f74206265207472616e7366657272656400000000006044820152606401610bfb565b604051635260769b60e11b815284906001600160a01b0382169063a4c0ed3690611c7f908990889088908890600401612dc0565b600060405180830381600087803b158015611c9957600080fd5b505af1158015611cad573d6000803e3d6000fd5b50505050505050505050565b6000546001600160a01b031633146110ed5760405162461bcd60e51b815260206004820181905260248201527f4f776e61626c653a2063616c6c6572206973206e6f7420746865206f776e65726044820152606401610bfb565b6001600160a01b0381166000908152600c60209081526040808320815160608101835281548082526001909201546001600160401b03808216958301869052600160401b9091041692810192909252909142821580611d835750816001600160401b0316816001600160401b0316105b15611d945750600095945050505050565b6040840151611da39083612d95565b6001600160401b0316816001600160401b03161115611dc6575090949350505050565b60408401516001600160401b0316611dde8383612e08565b611df1906001600160401b031685612e30565b611dfb9190612e4f565b9695505050505050565b600080546001600160a01b038381166001600160a01b0319831681178455604051919092169283917f8be0079c531659141344cd1fd0a4f28419497f9722a3daafe3b4186f6b6457e09190a35050565b604080516001600160a01b038416602482015260448082018490528251808303909101815260649091019091526020810180516001600160e01b031663a9059cbb60e01b179052611ea7908490612575565b505050565b81611eb68161206b565b611ec08383612647565b826001600160a01b03167f60df8ac38837b0ae1b717d64eba4a631341a9365ed654aa2cb3ed7657d65acee83604051611efb91815260200190565b60405180910390a2505050565b6000826001600160401b031611611f615760405162461bcd60e51b815260206004820152601b60248201527f53746172742074696d657374616d702063616e6e6f74206265203000000000006044820152606401610bfb565b6000816001600160401b031611611fba5760405162461bcd60e51b815260206004820152601c60248201527f5365636f6e6473206475726174696f6e2063616e6e6f742062652030000000006044820152606401610bfb565b6001600160a01b0384166000908152600c6020526040902060018101546001600160401b03908116908416111561204b5760018101546001600160401b0316156120205761200785611d13565b81600001600082825461201a9190612d05565b90915550505b6001810180546001600160401b03848116600160401b026001600160801b0319909216908616171790555b8381600001600082825461205f9190612ced565b90915550505050505050565b60005b60075481101561130f57600660006007838154811061208f5761208f612ca8565b6000918252602080832091909101546001600160a01b039081168452908301939093526040918201902054905163632447c960e01b8152848316600482015291169063632447c990602401600060405180830381600087803b1580156120f457600080fd5b505af1158015612108573d6000803e3d6000fd5b50505050808061211790612cd4565b91505061206e565b6001600160a01b03821661217f5760405162461bcd60e51b815260206004820152602160248201527f45524332303a206275726e2066726f6d20746865207a65726f206164647265736044820152607360f81b6064820152608401610bfb565b6001600160a01b038216600090815260016020526040902054818110156121f35760405162461bcd60e51b815260206004820152602260248201527f45524332303a206275726e20616d6f756e7420657863656564732062616c616e604482015261636560f01b6064820152608401610bfb565b6001600160a01b0383166000908152600160205260408120838303905560038054849290612222908490612d05565b90915550506040518281526000906001600160a01b038516907fddf252ad1be2c89b69c2b068fc378daa952ba7f163c4a11628f55a4df523b3ef9060200160405180910390a3505050565b816122778161206b565b816122818161206b565b6001600160a01b0383166122cd5760405162461bcd60e51b815260206004820152601360248201527243616e6e6f74206275726e207265776172647360681b6044820152606401610bfb565b6001600160a01b0384811660009081526008602052604090205481851691160361234d5760405162461bcd60e51b815260206004820152602b60248201527f43616e6e6f74207265646972656374207265776172647320746f20746865207360448201526a616d65206164647265737360a81b6064820152608401610bfb565b6001600160a01b03848116600090815260086020526040902054161561237457600161238b565b826001600160a01b0316846001600160a01b031614155b6123d75760405162461bcd60e51b815260206004820152601760248201527f43616e6e6f7420726564697265637420746f2073656c660000000000000000006044820152606401610bfb565b60006123e28561108a565b9050600081116124465760405162461bcd60e51b815260206004820152602960248201527f412062616c616e636520697320726571756972656420746f207265646972656360448201526874207265776172647360b81b6064820152608401610bfb565b6001600160a01b0380861660009081526008602052604090205416801561249e576124708161206b565b6001600160a01b03811660009081526009602052604081208054849290612498908490612d05565b90915550505b856001600160a01b0316856001600160a01b0316036124e2576001600160a01b038616600090815260086020526040902080546001600160a01b0319169055612532565b6001600160a01b03868116600090815260086020908152604080832080546001600160a01b031916948a16948517905592825260099052908120805484929061252c908490612ced565b90915550505b60405133906001600160a01b0387811691908916907f6a8c4b3eeb6ce85acfca51b03ce7b05fdefe1ff2b7c0a45e7002b08e0cea1eb690600090a4505050505050565b60006125ca826040518060400160405280602081526020017f5361666545524332303a206c6f772d6c6576656c2063616c6c206661696c6564815250856001600160a01b03166127269092919063ffffffff16565b805190915015611ea757808060200190518101906125e89190612d73565b611ea75760405162461bcd60e51b815260206004820152602a60248201527f5361666545524332303a204552433230206f7065726174696f6e20646964206e6044820152691bdd081cdd58d8d9595960b21b6064820152608401610bfb565b6001600160a01b03821661269d5760405162461bcd60e51b815260206004820152601f60248201527f45524332303a206d696e7420746f20746865207a65726f2061646472657373006044820152606401610bfb565b80600360008282546126af9190612ced565b90915550506001600160a01b038216600090815260016020526040812080548392906126dc908490612ced565b90915550506040518181526001600160a01b038316906000907fddf252ad1be2c89b69c2b068fc378daa952ba7f163c4a11628f55a4df523b3ef9060200160405180910390a35050565b6060612735848460008561273d565b949350505050565b60608247101561279e5760405162461bcd60e51b815260206004820152602660248201527f416464726573733a20696e73756666696369656e742062616c616e636520666f6044820152651c8818d85b1b60d21b6064820152608401610bfb565b6001600160a01b0385163b6127f55760405162461bcd60e51b815260206004820152601d60248201527f416464726573733a2063616c6c20746f206e6f6e2d636f6e74726163740000006044820152606401610bfb565b600080866001600160a01b031685876040516128119190612e71565b60006040518083038185875af1925050503d806000811461284e576040519150601f19603f3d011682016040523d82523d6000602084013e612853565b606091505b509150915061286382828661286e565b979650505050505050565b6060831561287d5750816107dc565b82511561288d5782518084602001fd5b8160405162461bcd60e51b8152600401610bfb919061292d565b80356001600160a01b03811681146128be57600080fd5b919050565b600080604083850312156128d657600080fd5b6128df836128a7565b9150602083013561ffff811681146128f657600080fd5b809150509250929050565b60005b8381101561291c578181015183820152602001612904565b838111156115495750506000910152565b602081526000825180602084015261294c816040850160208701612901565b601f01601f19169190910160400192915050565b6000806040838503121561297357600080fd5b61297c836128a7565b946020939093013593505050565b600081518084526020808501945080840160005b838110156129c35781516001600160a01b03168752958201959082019060010161299e565b509495945050505050565b600081518084526020808501945080840160005b838110156129c3578151875295820195908201906001016129e2565b604081526000612a11604083018561298a565b8281036020840152612a2381856129ce565b95945050505050565b600060208284031215612a3e57600080fd5b6107dc826128a7565b6020815260006107dc60208301846129ce565b600080600060608486031215612a6f57600080fd5b612a78846128a7565b9250612a86602085016128a7565b9150604084013590509250925092565b60008060008060608587031215612aac57600080fd5b612ab5856128a7565b93506020850135925060408501356001600160401b0380821115612ad857600080fd5b818701915087601f830112612aec57600080fd5b813581811115612afb57600080fd5b886020828501011115612b0d57600080fd5b95989497505060200194505050565b60008060408385031215612b2f57600080fd5b612b38836128a7565b9150612b46602084016128a7565b90509250929050565b634e487b7160e01b600052604160045260246000fd5b60006020808385031215612b7857600080fd5b82356001600160401b0380821115612b8f57600080fd5b818501915085601f830112612ba357600080fd5b813581811115612bb557612bb5612b4f565b8060051b604051601f19603f83011681018181108582111715612bda57612bda612b4f565b604052918252848201925083810185019188831115612bf857600080fd5b938501935b82851015612c1d57612c0e856128a7565b84529385019392850192612bfd565b98975050505050505050565b600060208284031215612c3b57600080fd5b5035919050565b6020815260006107dc602083018461298a565b600060208284031215612c6757600080fd5b5051919050565b600181811c90821680612c8257607f821691505b602082108103612ca257634e487b7160e01b600052602260045260246000fd5b50919050565b634e487b7160e01b600052603260045260246000fd5b634e487b7160e01b600052601160045260246000fd5b600060018201612ce657612ce6612cbe565b5060010190565b60008219821115612d0057612d00612cbe565b500190565b600082821015612d1757612d17612cbe565b500390565b634e487b7160e01b600052603160045260246000fd5b80356001600160401b03811681146128be57600080fd5b60008060408385031215612d5c57600080fd5b612d6583612d32565b9150612b4660208401612d32565b600060208284031215612d8557600080fd5b815180151581146107dc57600080fd5b60006001600160401b03808316818516808303821115612db757612db7612cbe565b01949350505050565b6001600160a01b0385168152602081018490526060604082018190528101829052818360808301376000818301608090810191909152601f909201601f191601019392505050565b60006001600160401b0383811690831681811015612e2857612e28612cbe565b039392505050565b6000816000190483118215151615612e4a57612e4a612cbe565b500290565b600082612e6c57634e487b7160e01b600052601260045260246000fd5b500490565b60008251612e83818460208701612901565b919091019291505056fea2646970667358221220ca5f5d735431927b565c1a2c6e8739629effa30ca37404ecbd255506abdca33764736f6c634300080f0033",
  "devdoc": {
    "kind": "dev",
    "methods": {
      "addToken(address,address)": {
        "params": {
          "_rewardsPool": "token rewards pool to add*",
          "_token": "token to add"
        }
      },
      "allowance(address,address)": {
        "details": "See {IERC20-allowance}."
      },
      "approve(address,uint256)": {
        "details": "See {IERC20-approve}. NOTE: If `amount` is the maximum `uint256`, the allowance is not updated on `transferFrom`. This is semantically equivalent to an infinite approval. Requirements: - `spender` cannot be the zero address."
      },
      "approveRedirect(address)": {
        "params": {
          "_to": "account to approve"
        }
      },
      "balanceOf(address)": {
        "params": {
          "_account": "account"
        },
        "returns": {
          "_0": "balance accounts balance"
        }
      },
      "currentRate(address,uint16)": {
        "params": {
          "_index": "the pool index",
          "_token": "the token address of the pool"
        },
        "returns": {
          "_0": "current rate*"
        }
      },
      "currentRateAt(uint256)": {
        "details": "1 ether = 100%, 0.5 ether = 50% etc",
        "params": {
          "_percentageBorrowed": "the percentage borrowed for fee calculation"
        },
        "returns": {
          "_0": "current rate*"
        }
      },
      "decimals()": {
        "details": "Returns the number of decimals used to get its user representation. For example, if `decimals` equals `2`, a balance of `505` tokens should be displayed to a user as `5.05` (`505 / 10 ** 2`). Tokens usually opt for a value of 18, imitating the relationship between Ether and Wei. This is the value {ERC20} uses, unless this function is overridden; NOTE: This information is only used for _display_ purposes: it in no way affects any of the arithmetic of the contract, including {IERC20-balanceOf} and {IERC20-transfer}."
      },
      "decreaseAllowance(address,uint256)": {
        "details": "Atomically decreases the allowance granted to `spender` by the caller. This is an alternative to {approve} that can be used as a mitigation for problems described in {IERC20-approve}. Emits an {Approval} event indicating the updated allowance. Requirements: - `spender` cannot be the zero address. - `spender` must have allowance for the caller of at least `subtractedValue`."
      },
      "distributeToken(address)": {
        "params": {
          "_token": "token address"
        }
      },
      "distributeTokens(address[])": {
        "params": {
          "_tokens": "list of token addresses"
        }
      },
      "getVestingSchedule(address)": {
        "params": {
          "_account": "account"
        },
        "returns": {
          "_0": "vestingSchedule account's vesting schedule"
        }
      },
      "increaseAllowance(address,uint256)": {
        "details": "Atomically increases the allowance granted to `spender` by the caller. This is an alternative to {approve} that can be used as a mitigation for problems described in {IERC20-approve}. Emits an {Approval} event indicating the updated allowance. Requirements: - `spender` cannot be the zero address."
      },
      "isTokenSupported(address)": {
        "params": {
          "_token": "token address"
        },
        "returns": {
          "_0": "is token supported*"
        }
      },
      "name()": {
        "details": "Returns the name of the token."
      },
      "onTokenTransfer(address,uint256,bytes)": {
        "params": {
          "_sender": "of the stake",
          "_value": "of the token transfer*"
        }
      },
      "owner()": {
        "details": "Returns the address of the current owner."
      },
      "redirectRewards(address)": {
        "params": {
          "_to": "account to redirect rewards to"
        }
      },
      "redirectRewardsFrom(address,address)": {
        "params": {
          "_from": "account to redirect rewards for",
          "_to": "account to redirect rewards to"
        }
      },
      "removeToken(address)": {
        "params": {
          "_token": "address of token*"
        }
      },
      "renounceOwnership()": {
        "details": "Leaves the contract without owner. It will not be possible to call `onlyOwner` functions anymore. Can only be called by the current owner. NOTE: Renouncing ownership will leave the contract without an owner, thereby removing any functionality that is only available to the owner."
      },
      "rewardsAddress(address)": {
        "params": {
          "_account": "address to query"
        }
      },
      "setFeeCurve(address)": {
        "params": {
          "_feeCurve": "interface"
        }
      },
      "staked(address)": {
        "details": "required by RewardsPoolController",
        "returns": {
          "_0": "account's staked amount"
        }
      },
      "supportedTokens()": {
        "returns": {
          "_0": "list of token configs*"
        }
      },
      "symbol()": {
        "details": "Returns the symbol of the token, usually a shorter version of the name."
      },
      "tokenBalances()": {
        "returns": {
          "_0": "list of tokens with a list of token balances*"
        }
      },
      "totalStaked()": {
        "details": "required by RewardsPoolController",
        "returns": {
          "_0": "total staked amount"
        }
      },
      "totalSupply()": {
        "details": "See {IERC20-totalSupply}."
      },
      "transfer(address,uint256)": {
        "details": "See {IERC20-transfer}. Requirements: - `to` cannot be the zero address. - the caller must have a balance of at least `amount`."
      },
      "transferFrom(address,address,uint256)": {
        "details": "See {IERC20-transferFrom}. Emits an {Approval} event indicating the updated allowance. This is not required by the EIP. See the note at the beginning of {ERC20}. NOTE: Does not update the allowance if the current allowance is the maximum `uint256`. Requirements: - `from` and `to` cannot be the zero address. - `from` must have a balance of at least `amount`. - the caller must have allowance for ``from``'s tokens of at least `amount`."
      },
      "transferOwnership(address)": {
        "details": "Transfers ownership of the contract to a new account (`newOwner`). Can only be called by the current owner."
      },
      "withdrawAllowance(uint256)": {
        "params": {
          "_amount": "amount to withdraw*"
        }
      },
      "withdrawRewards(address[])": {
        "params": {
          "_tokens": "list of token addresses to withdraw rewards from*"
        }
      },
      "withdrawableRewards(address)": {
        "params": {
          "_account": "account to return reward amounts for"
        },
        "returns": {
          "_0": "list of withdrawable reward amounts*"
        }
      }
    },
    "title": "Delegator Pool",
    "version": 1
  },
  "userdoc": {
    "kind": "user",
    "methods": {
      "addToken(address,address)": {
        "notice": "adds a new token"
      },
      "approveRedirect(address)": {
        "notice": "approve a reward redirect"
      },
      "balanceOf(address)": {
        "notice": "returns an accounts balance minus the amount of tokens that are currently vesting"
      },
      "currentRate(address,uint16)": {
        "notice": "returns the current fee rate based on the % of allowance token borrowed"
      },
      "currentRateAt(uint256)": {
        "notice": "returns the current fee rate based on a specified percentage"
      },
      "distributeToken(address)": {
        "notice": "distributes a token balance to its equivalent reward pool"
      },
      "distributeTokens(address[])": {
        "notice": "distributes token balances to their equivalent reward pools"
      },
      "getVestingSchedule(address)": {
        "notice": "returns the vesting schedule of a given account"
      },
      "isTokenSupported(address)": {
        "notice": "returns true/false to whether a given token is supported"
      },
      "onTokenTransfer(address,uint256,bytes)": {
        "notice": "ERC677 implementation to stake allowance or distribute rewards"
      },
      "redirectRewards(address)": {
        "notice": "redirect rewards to a specific address. Supports multiple addresses redirecting to the same previousRedirect. To stop redirecting rewards, set _to as the current wallet."
      },
      "redirectRewardsFrom(address,address)": {
        "notice": "redirect rewards for an account with approval"
      },
      "removeToken(address)": {
        "notice": "removes a supported token"
      },
      "revokeRedirectApproval()": {
        "notice": "revoke a redirect approval"
      },
      "rewardsAddress(address)": {
        "notice": "returns the address that receives rewards for an account"
      },
      "setFeeCurve(address)": {
        "notice": "sets the fee curve interface"
      },
      "staked(address)": {
        "notice": "returns an account's staked amount for use by reward pools controlled by this contract. Overridden as the the staked amount needs to include any vesting tokens."
      },
      "supportedTokens()": {
        "notice": "returns a list of configs for all supported tokens"
      },
      "tokenBalances()": {
        "notice": "get all token balances of supported tokens within the controller"
      },
      "totalStaked()": {
        "notice": "returns the total staked amount for use by reward pools controlled by this contract"
      },
      "withdrawAllowance(uint256)": {
        "notice": "withdraws lent allowance tokens if there are enough available"
      },
      "withdrawRewards(address[])": {
        "notice": "withdraws an account's earned rewards for a list of tokens"
      },
      "withdrawableRewards(address)": {
        "notice": "returns a list of withdrawable rewards for an account"
      }
    },
    "notice": "Allows users to stake allowance tokens, stakers receive a percentage of earned rewards",
    "version": 1
  },
  "storageLayout": {
    "storage": [
      {
        "astId": 3767,
        "contract": "contracts/core/DelegatorPool.sol:DelegatorPool",
        "label": "_owner",
        "offset": 0,
        "slot": "0",
        "type": "t_address"
      },
      {
        "astId": 4355,
        "contract": "contracts/core/DelegatorPool.sol:DelegatorPool",
        "label": "_balances",
        "offset": 0,
        "slot": "1",
        "type": "t_mapping(t_address,t_uint256)"
      },
      {
        "astId": 4361,
        "contract": "contracts/core/DelegatorPool.sol:DelegatorPool",
        "label": "_allowances",
        "offset": 0,
        "slot": "2",
        "type": "t_mapping(t_address,t_mapping(t_address,t_uint256))"
      },
      {
        "astId": 4363,
        "contract": "contracts/core/DelegatorPool.sol:DelegatorPool",
        "label": "_totalSupply",
        "offset": 0,
        "slot": "3",
        "type": "t_uint256"
      },
      {
        "astId": 4365,
        "contract": "contracts/core/DelegatorPool.sol:DelegatorPool",
        "label": "_name",
        "offset": 0,
        "slot": "4",
        "type": "t_string_storage"
      },
      {
        "astId": 4367,
        "contract": "contracts/core/DelegatorPool.sol:DelegatorPool",
        "label": "_symbol",
        "offset": 0,
        "slot": "5",
        "type": "t_string_storage"
      },
      {
        "astId": 18025,
        "contract": "contracts/core/DelegatorPool.sol:DelegatorPool",
        "label": "tokenPools",
        "offset": 0,
        "slot": "6",
        "type": "t_mapping(t_address,t_contract(IRewardsPool)19713)"
      },
      {
        "astId": 18028,
        "contract": "contracts/core/DelegatorPool.sol:DelegatorPool",
        "label": "tokens",
        "offset": 0,
        "slot": "7",
        "type": "t_array(t_address)dyn_storage"
      },
      {
        "astId": 18032,
        "contract": "contracts/core/DelegatorPool.sol:DelegatorPool",
        "label": "rewardRedirects",
        "offset": 0,
        "slot": "8",
        "type": "t_mapping(t_address,t_address)"
      },
      {
        "astId": 18036,
        "contract": "contracts/core/DelegatorPool.sol:DelegatorPool",
        "label": "redirectedStakes",
        "offset": 0,
        "slot": "9",
        "type": "t_mapping(t_address,t_uint256)"
      },
      {
        "astId": 18040,
        "contract": "contracts/core/DelegatorPool.sol:DelegatorPool",
        "label": "redirectApprovals",
        "offset": 0,
        "slot": "10",
        "type": "t_mapping(t_address,t_address)"
      },
      {
        "astId": 13212,
        "contract": "contracts/core/DelegatorPool.sol:DelegatorPool",
        "label": "feeCurve",
        "offset": 0,
        "slot": "11",
        "type": "t_contract(IFeeCurve)19668"
      },
      {
        "astId": 13217,
        "contract": "contracts/core/DelegatorPool.sol:DelegatorPool",
        "label": "vestingSchedules",
        "offset": 0,
        "slot": "12",
        "type": "t_mapping(t_address,t_struct(VestingSchedule)13203_storage)"
      }
    ],
    "types": {
      "t_address": {
        "encoding": "inplace",
        "label": "address",
        "numberOfBytes": "20"
      },
      "t_array(t_address)dyn_storage": {
        "base": "t_address",
        "encoding": "dynamic_array",
        "label": "address[]",
        "numberOfBytes": "32"
      },
      "t_contract(IFeeCurve)19668": {
        "encoding": "inplace",
        "label": "contract IFeeCurve",
        "numberOfBytes": "20"
      },
      "t_contract(IRewardsPool)19713": {
        "encoding": "inplace",
        "label": "contract IRewardsPool",
        "numberOfBytes": "20"
      },
      "t_mapping(t_address,t_address)": {
        "encoding": "mapping",
        "key": "t_address",
        "label": "mapping(address => address)",
        "numberOfBytes": "32",
        "value": "t_address"
      },
      "t_mapping(t_address,t_contract(IRewardsPool)19713)": {
        "encoding": "mapping",
        "key": "t_address",
        "label": "mapping(address => contract IRewardsPool)",
        "numberOfBytes": "32",
        "value": "t_contract(IRewardsPool)19713"
      },
      "t_mapping(t_address,t_mapping(t_address,t_uint256))": {
        "encoding": "mapping",
        "key": "t_address",
        "label": "mapping(address => mapping(address => uint256))",
        "numberOfBytes": "32",
        "value": "t_mapping(t_address,t_uint256)"
      },
      "t_mapping(t_address,t_struct(VestingSchedule)13203_storage)": {
        "encoding": "mapping",
        "key": "t_address",
        "label": "mapping(address => struct DelegatorPool.VestingSchedule)",
        "numberOfBytes": "32",
        "value": "t_struct(VestingSchedule)13203_storage"
      },
      "t_mapping(t_address,t_uint256)": {
        "encoding": "mapping",
        "key": "t_address",
        "label": "mapping(address => uint256)",
        "numberOfBytes": "32",
        "value": "t_uint256"
      },
      "t_string_storage": {
        "encoding": "bytes",
        "label": "string",
        "numberOfBytes": "32"
      },
      "t_struct(VestingSchedule)13203_storage": {
        "encoding": "inplace",
        "label": "struct DelegatorPool.VestingSchedule",
        "members": [
          {
            "astId": 13198,
            "contract": "contracts/core/DelegatorPool.sol:DelegatorPool",
            "label": "totalAmount",
            "offset": 0,
            "slot": "0",
            "type": "t_uint256"
          },
          {
            "astId": 13200,
            "contract": "contracts/core/DelegatorPool.sol:DelegatorPool",
            "label": "startTimestamp",
            "offset": 0,
            "slot": "1",
            "type": "t_uint64"
          },
          {
            "astId": 13202,
            "contract": "contracts/core/DelegatorPool.sol:DelegatorPool",
            "label": "durationSeconds",
            "offset": 8,
            "slot": "1",
            "type": "t_uint64"
          }
        ],
        "numberOfBytes": "64"
      },
      "t_uint256": {
        "encoding": "inplace",
        "label": "uint256",
        "numberOfBytes": "32"
      },
      "t_uint64": {
        "encoding": "inplace",
        "label": "uint64",
        "numberOfBytes": "8"
      }
    }
  }
}