{
  "address": "0x1D30cfc48caE7dC34b8Eb1AAD5a8130489fCC8e3",
  "abi": [
    {
      "inputs": [
        {
          "internalType": "address",
          "name": "_allowanceToken",
          "type": "address"
        },
        {
          "internalType": "string",
          "name": "_dTokenName",
          "type": "string"
        },
        {
          "internalType": "string",
          "name": "_dTokenSymbol",
          "type": "string"
        },
        {
          "internalType": "address",
          "name": "_feeCurve",
          "type": "address"
        }
      ],
      "stateMutability": "nonpayable",
      "type": "constructor"
    },
    {
      "anonymous": false,
      "inputs": [
        {
          "indexed": true,
          "internalType": "address",
          "name": "token",
          "type": "address"
        },
        {
          "indexed": false,
          "internalType": "address",
          "name": "rewardsPool",
          "type": "address"
        }
      ],
      "name": "AddToken",
      "type": "event"
    },
    {
      "anonymous": false,
      "inputs": [
        {
          "indexed": true,
          "internalType": "address",
          "name": "user",
          "type": "address"
        },
        {
          "indexed": false,
          "internalType": "uint256",
          "name": "amount",
          "type": "uint256"
        }
      ],
      "name": "AllowanceStaked",
      "type": "event"
    },
    {
      "anonymous": false,
      "inputs": [
        {
          "indexed": true,
          "internalType": "address",
          "name": "user",
          "type": "address"
        },
        {
          "indexed": false,
          "internalType": "uint256",
          "name": "amount",
          "type": "uint256"
        }
      ],
      "name": "AllowanceWithdrawn",
      "type": "event"
    },
    {
      "anonymous": false,
      "inputs": [
        {
          "indexed": true,
          "internalType": "address",
          "name": "owner",
          "type": "address"
        },
        {
          "indexed": true,
          "internalType": "address",
          "name": "spender",
          "type": "address"
        },
        {
          "indexed": false,
          "internalType": "uint256",
          "name": "value",
          "type": "uint256"
        }
      ],
      "name": "Approval",
      "type": "event"
    },
    {
      "anonymous": false,
      "inputs": [
        {
          "indexed": true,
          "internalType": "address",
          "name": "previousOwner",
          "type": "address"
        },
        {
          "indexed": true,
          "internalType": "address",
          "name": "newOwner",
          "type": "address"
        }
      ],
      "name": "OwnershipTransferred",
      "type": "event"
    },
    {
      "anonymous": false,
      "inputs": [
        {
          "indexed": true,
          "internalType": "address",
          "name": "approver",
          "type": "address"
        },
        {
          "indexed": true,
          "internalType": "address",
          "name": "to",
          "type": "address"
        }
      ],
      "name": "RedirectApproval",
      "type": "event"
    },
    {
      "anonymous": false,
      "inputs": [
        {
          "indexed": true,
          "internalType": "address",
          "name": "approver",
          "type": "address"
        },
        {
          "indexed": true,
          "internalType": "address",
          "name": "from",
          "type": "address"
        }
      ],
      "name": "RedirectApprovalRevoked",
      "type": "event"
    },
    {
      "anonymous": false,
      "inputs": [
        {
          "indexed": true,
          "internalType": "address",
          "name": "token",
          "type": "address"
        },
        {
          "indexed": false,
          "internalType": "address",
          "name": "rewardsPool",
          "type": "address"
        }
      ],
      "name": "RemoveToken",
      "type": "event"
    },
    {
      "anonymous": false,
      "inputs": [
        {
          "indexed": true,
          "internalType": "address",
          "name": "from",
          "type": "address"
        },
        {
          "indexed": true,
          "internalType": "address",
          "name": "to",
          "type": "address"
        },
        {
          "indexed": true,
          "internalType": "address",
          "name": "by",
          "type": "address"
        }
      ],
      "name": "RewardsRedirected",
      "type": "event"
    },
    {
      "anonymous": false,
      "inputs": [
        {
          "indexed": true,
          "internalType": "address",
          "name": "from",
          "type": "address"
        },
        {
          "indexed": true,
          "internalType": "address",
          "name": "to",
          "type": "address"
        },
        {
          "indexed": false,
          "internalType": "uint256",
          "name": "value",
          "type": "uint256"
        }
      ],
      "name": "Transfer",
      "type": "event"
    },
    {
      "anonymous": false,
      "inputs": [
        {
          "indexed": true,
          "internalType": "address",
          "name": "account",
          "type": "address"
        }
      ],
      "name": "WithdrawRewards",
      "type": "event"
    },
    {
      "inputs": [
        {
          "internalType": "address",
          "name": "_token",
          "type": "address"
        },
        {
          "internalType": "address",
          "name": "_rewardsPool",
          "type": "address"
        }
      ],
      "name": "addToken",
      "outputs": [],
      "stateMutability": "nonpayable",
      "type": "function"
    },
    {
      "inputs": [
        {
          "internalType": "address",
          "name": "owner",
          "type": "address"
        },
        {
          "internalType": "address",
          "name": "spender",
          "type": "address"
        }
      ],
      "name": "allowance",
      "outputs": [
        {
          "internalType": "uint256",
          "name": "",
          "type": "uint256"
        }
      ],
      "stateMutability": "view",
      "type": "function"
    },
    {
      "inputs": [],
      "name": "allowanceToken",
      "outputs": [
        {
          "internalType": "contract IERC20",
          "name": "",
          "type": "address"
        }
      ],
      "stateMutability": "view",
      "type": "function"
    },
    {
      "inputs": [
        {
          "internalType": "address",
          "name": "spender",
          "type": "address"
        },
        {
          "internalType": "uint256",
          "name": "amount",
          "type": "uint256"
        }
      ],
      "name": "approve",
      "outputs": [
        {
          "internalType": "bool",
          "name": "",
          "type": "bool"
        }
      ],
      "stateMutability": "nonpayable",
      "type": "function"
    },
    {
      "inputs": [
        {
          "internalType": "address",
          "name": "_to",
          "type": "address"
        }
      ],
      "name": "approveRedirect",
      "outputs": [],
      "stateMutability": "nonpayable",
      "type": "function"
    },
    {
      "inputs": [
        {
          "internalType": "address",
          "name": "_account",
          "type": "address"
        }
      ],
      "name": "balanceOf",
      "outputs": [
        {
          "internalType": "uint256",
          "name": "",
          "type": "uint256"
        }
      ],
      "stateMutability": "view",
      "type": "function"
    },
    {
      "inputs": [
        {
          "internalType": "address",
          "name": "_token",
          "type": "address"
        },
        {
          "internalType": "uint16",
          "name": "_index",
          "type": "uint16"
        }
      ],
      "name": "currentRate",
      "outputs": [
        {
          "internalType": "uint256",
          "name": "",
          "type": "uint256"
        }
      ],
      "stateMutability": "view",
      "type": "function"
    },
    {
      "inputs": [
        {
          "internalType": "uint256",
          "name": "_percentageBorrowed",
          "type": "uint256"
        }
      ],
      "name": "currentRateAt",
      "outputs": [
        {
          "internalType": "uint256",
          "name": "",
          "type": "uint256"
        }
      ],
      "stateMutability": "view",
      "type": "function"
    },
    {
      "inputs": [],
      "name": "decimals",
      "outputs": [
        {
          "internalType": "uint8",
          "name": "",
          "type": "uint8"
        }
      ],
      "stateMutability": "view",
      "type": "function"
    },
    {
      "inputs": [
        {
          "internalType": "address",
          "name": "spender",
          "type": "address"
        },
        {
          "internalType": "uint256",
          "name": "subtractedValue",
          "type": "uint256"
        }
      ],
      "name": "decreaseAllowance",
      "outputs": [
        {
          "internalType": "bool",
          "name": "",
          "type": "bool"
        }
      ],
      "stateMutability": "nonpayable",
      "type": "function"
    },
    {
      "inputs": [
        {
          "internalType": "address",
          "name": "_token",
          "type": "address"
        }
      ],
      "name": "distributeToken",
      "outputs": [],
      "stateMutability": "nonpayable",
      "type": "function"
    },
    {
      "inputs": [
        {
          "internalType": "address[]",
          "name": "_tokens",
          "type": "address[]"
        }
      ],
      "name": "distributeTokens",
      "outputs": [],
      "stateMutability": "nonpayable",
      "type": "function"
    },
    {
      "inputs": [],
      "name": "feeCurve",
      "outputs": [
        {
          "internalType": "contract IFeeCurve",
          "name": "",
          "type": "address"
        }
      ],
      "stateMutability": "view",
      "type": "function"
    },
    {
      "inputs": [
        {
          "internalType": "address",
          "name": "_account",
          "type": "address"
        }
      ],
      "name": "getVestingSchedule",
      "outputs": [
        {
          "components": [
            {
              "internalType": "uint256",
              "name": "totalAmount",
              "type": "uint256"
            },
            {
              "internalType": "uint64",
              "name": "startTimestamp",
              "type": "uint64"
            },
            {
              "internalType": "uint64",
              "name": "durationSeconds",
              "type": "uint64"
            }
          ],
          "internalType": "struct DelegatorPool.VestingSchedule",
          "name": "",
          "type": "tuple"
        }
      ],
      "stateMutability": "view",
      "type": "function"
    },
    {
      "inputs": [
        {
          "internalType": "address",
          "name": "spender",
          "type": "address"
        },
        {
          "internalType": "uint256",
          "name": "addedValue",
          "type": "uint256"
        }
      ],
      "name": "increaseAllowance",
      "outputs": [
        {
          "internalType": "bool",
          "name": "",
          "type": "bool"
        }
      ],
      "stateMutability": "nonpayable",
      "type": "function"
    },
    {
      "inputs": [
        {
          "internalType": "address",
          "name": "_token",
          "type": "address"
        }
      ],
      "name": "isTokenSupported",
      "outputs": [
        {
          "internalType": "bool",
          "name": "",
          "type": "bool"
        }
      ],
      "stateMutability": "view",
      "type": "function"
    },
    {
      "inputs": [],
      "name": "name",
      "outputs": [
        {
          "internalType": "string",
          "name": "",
          "type": "string"
        }
      ],
      "stateMutability": "view",
      "type": "function"
    },
    {
      "inputs": [
        {
          "internalType": "address",
          "name": "_sender",
          "type": "address"
        },
        {
          "internalType": "uint256",
          "name": "_value",
          "type": "uint256"
        },
        {
          "internalType": "bytes",
          "name": "_calldata",
          "type": "bytes"
        }
      ],
      "name": "onTokenTransfer",
      "outputs": [],
      "stateMutability": "nonpayable",
      "type": "function"
    },
    {
      "inputs": [],
      "name": "owner",
      "outputs": [
        {
          "internalType": "address",
          "name": "",
          "type": "address"
        }
      ],
      "stateMutability": "view",
      "type": "function"
    },
    {
      "inputs": [],
      "name": "poolRouter",
      "outputs": [
        {
          "internalType": "contract IPoolRouter",
          "name": "",
          "type": "address"
        }
      ],
      "stateMutability": "view",
      "type": "function"
    },
    {
      "inputs": [
        {
          "internalType": "address",
          "name": "",
          "type": "address"
        }
      ],
      "name": "redirectApprovals",
      "outputs": [
        {
          "internalType": "address",
          "name": "",
          "type": "address"
        }
      ],
      "stateMutability": "view",
      "type": "function"
    },
    {
      "inputs": [
        {
          "internalType": "address",
          "name": "_to",
          "type": "address"
        }
      ],
      "name": "redirectRewards",
      "outputs": [],
      "stateMutability": "nonpayable",
      "type": "function"
    },
    {
      "inputs": [
        {
          "internalType": "address",
          "name": "_from",
          "type": "address"
        },
        {
          "internalType": "address",
          "name": "_to",
          "type": "address"
        }
      ],
      "name": "redirectRewardsFrom",
      "outputs": [],
      "stateMutability": "nonpayable",
      "type": "function"
    },
    {
      "inputs": [
        {
          "internalType": "address",
          "name": "",
          "type": "address"
        }
      ],
      "name": "redirectedStakes",
      "outputs": [
        {
          "internalType": "uint256",
          "name": "",
          "type": "uint256"
        }
      ],
      "stateMutability": "view",
      "type": "function"
    },
    {
      "inputs": [
        {
          "internalType": "address",
          "name": "_token",
          "type": "address"
        }
      ],
      "name": "removeToken",
      "outputs": [],
      "stateMutability": "nonpayable",
      "type": "function"
    },
    {
      "inputs": [],
      "name": "renounceOwnership",
      "outputs": [],
      "stateMutability": "nonpayable",
      "type": "function"
    },
    {
      "inputs": [],
      "name": "revokeRedirectApproval",
      "outputs": [],
      "stateMutability": "nonpayable",
      "type": "function"
    },
    {
      "inputs": [
        {
          "internalType": "address",
          "name": "",
          "type": "address"
        }
      ],
      "name": "rewardRedirects",
      "outputs": [
        {
          "internalType": "address",
          "name": "",
          "type": "address"
        }
      ],
      "stateMutability": "view",
      "type": "function"
    },
    {
      "inputs": [
        {
          "internalType": "address",
          "name": "_account",
          "type": "address"
        }
      ],
      "name": "rewardsAddress",
      "outputs": [
        {
          "internalType": "address",
          "name": "",
          "type": "address"
        }
      ],
      "stateMutability": "view",
      "type": "function"
    },
    {
      "inputs": [
        {
          "internalType": "address",
          "name": "_feeCurve",
          "type": "address"
        }
      ],
      "name": "setFeeCurve",
      "outputs": [],
      "stateMutability": "nonpayable",
      "type": "function"
    },
    {
      "inputs": [
        {
          "internalType": "address",
          "name": "_poolRouter",
          "type": "address"
        }
      ],
      "name": "setPoolRouter",
      "outputs": [],
      "stateMutability": "nonpayable",
      "type": "function"
    },
    {
      "inputs": [
        {
          "internalType": "address",
          "name": "_account",
          "type": "address"
        }
      ],
      "name": "staked",
      "outputs": [
        {
          "internalType": "uint256",
          "name": "",
          "type": "uint256"
        }
      ],
      "stateMutability": "view",
      "type": "function"
    },
    {
      "inputs": [],
      "name": "supportedTokens",
      "outputs": [
        {
          "internalType": "address[]",
          "name": "",
          "type": "address[]"
        }
      ],
      "stateMutability": "view",
      "type": "function"
    },
    {
      "inputs": [],
      "name": "symbol",
      "outputs": [
        {
          "internalType": "string",
          "name": "",
          "type": "string"
        }
      ],
      "stateMutability": "view",
      "type": "function"
    },
    {
      "inputs": [],
      "name": "tokenBalances",
      "outputs": [
        {
          "internalType": "address[]",
          "name": "",
          "type": "address[]"
        },
        {
          "internalType": "uint256[]",
          "name": "",
          "type": "uint256[]"
        }
      ],
      "stateMutability": "view",
      "type": "function"
    },
    {
      "inputs": [
        {
          "internalType": "address",
          "name": "",
          "type": "address"
        }
      ],
      "name": "tokenPools",
      "outputs": [
        {
          "internalType": "contract IRewardsPool",
          "name": "",
          "type": "address"
        }
      ],
      "stateMutability": "view",
      "type": "function"
    },
    {
      "inputs": [],
      "name": "totalStaked",
      "outputs": [
        {
          "internalType": "uint256",
          "name": "",
          "type": "uint256"
        }
      ],
      "stateMutability": "view",
      "type": "function"
    },
    {
      "inputs": [],
      "name": "totalSupply",
      "outputs": [
        {
          "internalType": "uint256",
          "name": "",
          "type": "uint256"
        }
      ],
      "stateMutability": "view",
      "type": "function"
    },
    {
      "inputs": [
        {
          "internalType": "address",
          "name": "to",
          "type": "address"
        },
        {
          "internalType": "uint256",
          "name": "amount",
          "type": "uint256"
        }
      ],
      "name": "transfer",
      "outputs": [
        {
          "internalType": "bool",
          "name": "",
          "type": "bool"
        }
      ],
      "stateMutability": "nonpayable",
      "type": "function"
    },
    {
      "inputs": [
        {
          "internalType": "address",
          "name": "_to",
          "type": "address"
        },
        {
          "internalType": "uint256",
          "name": "_value",
          "type": "uint256"
        },
        {
          "internalType": "bytes",
          "name": "_data",
          "type": "bytes"
        }
      ],
      "name": "transferAndCall",
      "outputs": [
        {
          "internalType": "bool",
          "name": "",
          "type": "bool"
        }
      ],
      "stateMutability": "nonpayable",
      "type": "function"
    },
    {
      "inputs": [
        {
          "internalType": "address",
          "name": "from",
          "type": "address"
        },
        {
          "internalType": "address",
          "name": "to",
          "type": "address"
        },
        {
          "internalType": "uint256",
          "name": "amount",
          "type": "uint256"
        }
      ],
      "name": "transferFrom",
      "outputs": [
        {
          "internalType": "bool",
          "name": "",
          "type": "bool"
        }
      ],
      "stateMutability": "nonpayable",
      "type": "function"
    },
    {
      "inputs": [
        {
          "internalType": "address",
          "name": "newOwner",
          "type": "address"
        }
      ],
      "name": "transferOwnership",
      "outputs": [],
      "stateMutability": "nonpayable",
      "type": "function"
    },
    {
      "inputs": [
        {
          "internalType": "uint256",
          "name": "_amount",
          "type": "uint256"
        }
      ],
      "name": "withdrawAllowance",
      "outputs": [],
      "stateMutability": "nonpayable",
      "type": "function"
    },
    {
      "inputs": [
        {
          "internalType": "address[]",
          "name": "_tokens",
          "type": "address[]"
        }
      ],
      "name": "withdrawRewards",
      "outputs": [],
      "stateMutability": "nonpayable",
      "type": "function"
    },
    {
      "inputs": [
        {
          "internalType": "address",
          "name": "_account",
          "type": "address"
        }
      ],
      "name": "withdrawableRewards",
      "outputs": [
        {
          "internalType": "uint256[]",
          "name": "",
          "type": "uint256[]"
        }
      ],
      "stateMutability": "view",
      "type": "function"
    }
  ],
  "transactionHash": "0xee2b2308ae04eee799cfb8b48762b15d3dea985114f011f055ea55750a21b729",
  "args": [
    "0xeAF59ece1D1E900E3b3367f22b2E4EE12efaa385",
    "Staked SDL",
    "stSDL",
    "0x270304641EF5F084A97c91442222887E3a02285b"
  ],
  "numDeployments": 1,
  "solcInputHash": "716f7ec369ec5237ed83445c47c46fa6",
  "bytecode": "0x60a06040523480156200001157600080fd5b50604051620035a6380380620035a68339810160408190526200003491620002fc565b82828181600082826200004733620000d0565b60046200005583826200041a565b5060056200006482826200041a565b5050506200009e336200007c6200012060201b60201c565b6200008c9060ff16600a620005fb565b62000098908462000610565b62000125565b505050506001600160a01b0394851660805250600c80546001600160a01b0319169190941617909255506200064d9050565b600080546001600160a01b038381166001600160a01b0319831681178455604051919092169283917f8be0079c531659141344cd1fd0a4f28419497f9722a3daafe3b4186f6b6457e09190a35050565b601290565b6001600160a01b038216620001805760405162461bcd60e51b815260206004820152601f60248201527f45524332303a206d696e7420746f20746865207a65726f206164647265737300604482015260640160405180910390fd5b806003600082825462000194919062000632565b90915550506001600160a01b03821660009081526001602052604081208054839290620001c390849062000632565b90915550506040518181526001600160a01b038316906000907fddf252ad1be2c89b69c2b068fc378daa952ba7f163c4a11628f55a4df523b3ef9060200160405180910390a35050565b505050565b80516001600160a01b03811681146200022a57600080fd5b919050565b634e487b7160e01b600052604160045260246000fd5b600082601f8301126200025757600080fd5b81516001600160401b03808211156200027457620002746200022f565b604051601f8301601f19908116603f011681019082821181831017156200029f576200029f6200022f565b81604052838152602092508683858801011115620002bc57600080fd5b600091505b83821015620002e05785820183015181830184015290820190620002c1565b83821115620002f25760008385830101525b9695505050505050565b600080600080608085870312156200031357600080fd5b6200031e8562000212565b60208601519094506001600160401b03808211156200033c57600080fd5b6200034a8883890162000245565b945060408701519150808211156200036157600080fd5b50620003708782880162000245565b925050620003816060860162000212565b905092959194509250565b600181811c90821680620003a157607f821691505b602082108103620003c257634e487b7160e01b600052602260045260246000fd5b50919050565b601f8211156200020d57600081815260208120601f850160051c81016020861015620003f15750805b601f850160051c820191505b818110156200041257828155600101620003fd565b505050505050565b81516001600160401b038111156200043657620004366200022f565b6200044e816200044784546200038c565b84620003c8565b602080601f8311600181146200048657600084156200046d5750858301515b600019600386901b1c1916600185901b17855562000412565b600085815260208120601f198616915b82811015620004b75788860151825594840194600190910190840162000496565b5085821015620004d65787850151600019600388901b60f8161c191681555b5050505050600190811b01905550565b634e487b7160e01b600052601160045260246000fd5b600181815b808511156200053d578160001904821115620005215762000521620004e6565b808516156200052f57918102915b93841c939080029062000501565b509250929050565b6000826200055657506001620005f5565b816200056557506000620005f5565b81600181146200057e57600281146200058957620005a9565b6001915050620005f5565b60ff8411156200059d576200059d620004e6565b50506001821b620005f5565b5060208310610133831016604e8410600b8410161715620005ce575081810a620005f5565b620005da8383620004fc565b8060001904821115620005f157620005f1620004e6565b0290505b92915050565b600062000609838362000545565b9392505050565b60008160001904831182151516156200062d576200062d620004e6565b500290565b60008219821115620006485762000648620004e6565b500190565b608051612f286200067e60003960008181610689015281816114b80152818161155001526118400152612f286000f3fe608060405234801561001057600080fd5b506004361061027f5760003560e01c806375151b631161015c578063a4c0ed36116100ce578063c53b585e11610087578063c53b585e14610669578063d387fd6c1461067c578063d5d67d5114610684578063dd62ed3e146106ab578063ef735f07146106be578063f2fde38b146106d157600080fd5b8063a4c0ed36146105df578063a9059cbb146105f2578063b002249d14610605578063ba650f791461061a578063c3d2c3c11461062d578063c51648811461065657600080fd5b80638da5cb5b116101205780638da5cb5b146104e8578063952db31f146104f957806395d89b411461050c57806398807d84146105145780639f82906314610527578063a457c2d7146105cc57600080fd5b806375151b6314610494578063817b1cd2146104a7578063856695ea146104af57806386d74037146104c257806388951352146104d557600080fd5b80635452b9ba116101f5578063611fae02116101b9578063611fae021461040a578063628a0f551461043357806362d76d06146104535780636b5f83211461046657806370a0823114610479578063715018a61461048c57600080fd5b80635452b9ba1461037d5780635476bd72146103a85780635b0c9391146103bb5780635b45fac4146103ce5780635fa7b584146103f757600080fd5b80630f14b4d6116102475780630f14b4d61461030d57806318160ddd1461032d57806323b872dd14610335578063313ce5671461034857806339509351146103575780634000aea01461036a57600080fd5b806304e4c8641461028457806306fdde03146102aa578063095ea7b3146102bf5780630c8d9cc7146102e25780630e3bc974146102f7575b600080fd5b610297610292366004612928565b6106e4565b6040519081526020015b60405180910390f35b6102b26107d0565b6040516102a19190612992565b6102d26102cd3660046129c5565b610862565b60405190151581526020016102a1565b6102f56102f03660046129ef565b61087a565b005b6102ff610902565b6040516102a1929190612a7e565b61032061031b3660046129ef565b610a7d565b6040516102a19190612aac565b600354610297565b6102d2610343366004612abf565b610baf565b604051601281526020016102a1565b6102d26103653660046129c5565b610bd3565b6102d2610378366004612afb565b610bf5565b600b54610390906001600160a01b031681565b6040516001600160a01b0390911681526020016102a1565b6102f56103b6366004612b81565b610c16565b6102f56103c93660046129ef565b610d8b565b6103906103dc3660046129ef565b6008602052600090815260409020546001600160a01b031681565b6102f56104053660046129ef565b610de2565b6103906104183660046129ef565b600a602052600090815260409020546001600160a01b031681565b6102976104413660046129ef565b60096020526000908152604090205481565b6102f5610461366004612bca565b610fa9565b610297610474366004612c8e565b611086565b6102976104873660046129ef565b6110fa565b6102f561114b565b6102d26104a23660046129ef565b61115f565b61029761118f565b600c54610390906001600160a01b031681565b6102f56104d03660046129ef565b61119f565b6102f56104e3366004612bca565b61133f565b6000546001600160a01b0316610390565b6103906105073660046129ef565b611383565b6102b26113c9565b6102976105223660046129ef565b6113d8565b6105996105353660046129ef565b6040805160608082018352600080835260208084018290529284018190526001600160a01b03949094168452600d8252928290208251938401835280548452600101546001600160401b0380821692850192909252600160401b9004169082015290565b60408051825181526020808401516001600160401b039081169183019190915292820151909216908201526060016102a1565b6102d26105da3660046129c5565b611432565b6102f56105ed366004612afb565b6114ad565b6102d26106003660046129c5565b6115bf565b61060d6115cd565b6040516102a19190612ca7565b6102f5610628366004612c8e565b61162e565b61039061063b3660046129ef565b6006602052600090815260409020546001600160a01b031681565b6102f56106643660046129ef565b6118a2565b6102f56106773660046129ef565b611922565b6102f561192f565b6103907f000000000000000000000000000000000000000000000000000000000000000081565b6102976106b9366004612b81565b611988565b6102f56106cc366004612b81565b6119b3565b6102f56106df3660046129ef565b611a5a565b600c54600b546040516319dc8ba760e31b81526001600160a01b03858116600483015261ffff8516602483015260009381169263246f938f9291169063cee45d3890604401602060405180830381865afa158015610746573d6000803e3d6000fd5b505050506040513d601f19601f8201168201806040525081019061076a9190612cba565b6040518263ffffffff1660e01b815260040161078891815260200190565b602060405180830381865afa1580156107a5573d6000803e3d6000fd5b505050506040513d601f19601f820116820180604052508101906107c99190612cba565b9392505050565b6060600480546107df90612cd3565b80601f016020809104026020016040519081016040528092919081815260200182805461080b90612cd3565b80156108585780601f1061082d57610100808354040283529160200191610858565b820191906000526020600020905b81548152906001019060200180831161083b57829003601f168201915b5050505050905090565b600033610870818585611ad0565b5060019392505050565b610882611bf4565b600b546001600160a01b0316156108e05760405162461bcd60e51b815260206004820152601760248201527f706f6f6c20726f7574657220616c72656164792073657400000000000000000060448201526064015b60405180910390fd5b600b80546001600160a01b0319166001600160a01b0392909216919091179055565b60608060006007805490506001600160401b0381111561092457610924612bb4565b60405190808252806020026020018201604052801561094d578160200160208202803683370190505b50905060005b600754811015610a14576007818154811061097057610970612d0d565b6000918252602090912001546040516370a0823160e01b81523060048201526001600160a01b03909116906370a0823190602401602060405180830381865afa1580156109c1573d6000803e3d6000fd5b505050506040513d601f19601f820116820180604052508101906109e59190612cba565b8282815181106109f7576109f7612d0d565b602090810291909101015280610a0c81612d39565b915050610953565b5060078181805480602002602001604051908101604052809291908181526020018280548015610a6d57602002820191906000526020600020905b81546001600160a01b03168152600190910190602001808311610a4f575b5050505050915092509250509091565b6007546060906000906001600160401b03811115610a9d57610a9d612bb4565b604051908082528060200260200182016040528015610ac6578160200160208202803683370190505b50905060005b600754811015610ba8576006600060078381548110610aed57610aed612d0d565b6000918252602080832091909101546001600160a01b039081168452908301939093526040918201902054905163078a5a6b60e11b81528683166004820152911690630f14b4d690602401602060405180830381865afa158015610b55573d6000803e3d6000fd5b505050506040513d601f19601f82011682018060405250810190610b799190612cba565b828281518110610b8b57610b8b612d0d565b602090810291909101015280610ba081612d39565b915050610acc565b5092915050565b600033610bbd858285611c4e565b610bc8858585611cc2565b506001949350505050565b600033610870818585610be68383611988565b610bf09190612d52565b611ad0565b6000610c0185856115bf565b50843b15610bc857610bc83386868686611d0a565b610c1e611bf4565b610c278261115f565b15610c745760405162461bcd60e51b815260206004820152601a60248201527f546f6b656e20697320616c726561647920737570706f7274656400000000000060448201526064016108d7565b6001600160a01b0382811660008181526006602052604080822080549486166001600160a01b0319958616179055600780546001810182559083527fa66cc928b5edb82af9bd49922954155ab7b0942694bea4ce44661d9a8736c688018054909416831790935591516370a0823160e01b81523060048201526370a0823190602401602060405180830381865afa158015610d13573d6000803e3d6000fd5b505050506040513d601f19601f82011682018060405250810190610d379190612cba565b1115610d4657610d468261119f565b6040516001600160a01b0382811682528316907fdbf34b45b47a653cf4940cccbec765f72d4d63de3237306905bfc0ee28832362906020015b60405180910390a25050565b336000818152600a602052604080822080546001600160a01b0319166001600160a01b03861690811790915590519092917fbc2ae327210da6d1f0946518a140d99a46f3a238ea185f565875ebfe507eb99691a350565b610dea611bf4565b610df38161115f565b610e385760405162461bcd60e51b8152602060048201526016602482015275151bdad95b881a5cc81b9bdd081cdd5c1c1bdc9d195960521b60448201526064016108d7565b6001600160a01b03808216600090815260066020526040812080546001600160a01b03198116909155909116905b600754811015610f6b57826001600160a01b031660078281548110610e8d57610e8d612d0d565b6000918252602090912001546001600160a01b031603610f595760078054610eb790600190612d6a565b81548110610ec757610ec7612d0d565b600091825260209091200154600780546001600160a01b039092169183908110610ef357610ef3612d0d565b9060005260206000200160006101000a8154816001600160a01b0302191690836001600160a01b031602179055506007805480610f3257610f32612d81565b600082815260209020810160001990810180546001600160a01b0319169055019055610f6b565b80610f6381612d39565b915050610e66565b506040516001600160a01b0382811682528316907f39dcd754ec63af4b82c4c569ff1b6b4e55a8038e6545844747e54f2f2d4e8e5090602001610d7f565b60005b81518110156110575760066000838381518110610fcb57610fcb612d0d565b6020908102919091018101516001600160a01b0390811683529082019290925260409081016000205490516351cff8d960e01b81523360048201529116906351cff8d990602401600060405180830381600087803b15801561102c57600080fd5b505af1158015611040573d6000803e3d6000fd5b50505050808061104f90612d39565b915050610fac565b5060405133907feeab3fd62be4cb59cbdc42d5b0f676a3597ff387b9a85e62330cc17c2a3603db90600090a250565b600c5460405163246f938f60e01b8152600481018390526000916001600160a01b03169063246f938f90602401602060405180830381865afa1580156110d0573d6000803e3d6000fd5b505050506040513d601f19601f820116820180604052508101906110f49190612cba565b92915050565b600061110582611d78565b6001600160a01b0383166000908152600d60205260409020546111289190612d6a565b6001600160a01b0383166000908152600160205260409020546110f49190612d6a565b611153611bf4565b61115d6000611e6a565b565b6001600160a01b038181166000908152600660205260408120549091166111875760006110f4565b600192915050565b600061119a60035490565b905090565b6111a88161115f565b6111ea5760405162461bcd60e51b8152602060048201526013602482015272151bdad95b881b9bdd081cdd5c1c1bdc9d1959606a1b60448201526064016108d7565b6040516370a0823160e01b815230600482015281906000906001600160a01b038316906370a0823190602401602060405180830381865afa158015611233573d6000803e3d6000fd5b505050506040513d601f19601f820116820180604052508101906112579190612cba565b9050600081116112a95760405162461bcd60e51b815260206004820152601e60248201527f43616e6e6f742064697374726962757465207a65726f2062616c616e6365000060448201526064016108d7565b6001600160a01b038084166000908152600660205260409020546112d291848116911683611eba565b6001600160a01b038084166000908152600660205260408082205481516306f4a2cd60e41b81529151931692636f4a2cd09260048084019391929182900301818387803b15801561132257600080fd5b505af1158015611336573d6000803e3d6000fd5b50505050505050565b60005b815181101561137f5761136d82828151811061136057611360612d0d565b602002602001015161119f565b8061137781612d39565b915050611342565b5050565b6001600160a01b038181166000908152600860205260408120549091166113aa57816110f4565b506001600160a01b039081166000908152600860205260409020541690565b6060600580546107df90612cd3565b6001600160a01b03808216600090815260096020908152604080832054600890925282205491929091161561140e576000611428565b6001600160a01b0383166000908152600160205260409020545b6110f49190612d52565b600033816114408286611988565b9050838110156114a05760405162461bcd60e51b815260206004820152602560248201527f45524332303a2064656372656173656420616c6c6f77616e63652062656c6f77604482015264207a65726f60d81b60648201526084016108d7565b610bc88286868403611ad0565b336001600160a01b037f00000000000000000000000000000000000000000000000000000000000000001614806114e857506114e83361115f565b6115465760405162461bcd60e51b815260206004820152602960248201527f53656e646572206d75737420626520616c6c6f77616e6365206f722072657761604482015268393239903a37b5b2b760b91b60648201526084016108d7565b6001600160a01b037f00000000000000000000000000000000000000000000000000000000000000001633036115b0576115808484611f11565b60018111156115ab5760008061159883850185612dae565b915091506115a886868484611f6d565b50505b6115b9565b6115b93361119f565b50505050565b600033610870818585611cc2565b6060600780548060200260200160405190810160405280929190818152602001828054801561085857602002820191906000526020600020905b81546001600160a01b03168152600190910190602001808311611607575050505050905090565b33611638816120d0565b600b60009054906101000a90046001600160a01b03166001600160a01b031663a7858f576040518163ffffffff1660e01b8152600401602060405180830381865afa15801561168b573d6000803e3d6000fd5b505050506040513d601f19601f820116820180604052508101906116af9190612dd8565b1561171a5760405162461bcd60e51b815260206004820152603560248201527f416c6c6f77616e63652063616e6e6f742062652077697468647261776e207768604482015274195b881c1bdbdb1cc8185c99481c995cd95c9d9959605a1b60648201526084016108d7565b81611724336110fa565b101561177c5760405162461bcd60e51b815260206004820152602160248201527f5769746864726177616c20616d6f756e7420657863656564732062616c616e636044820152606560f81b60648201526084016108d7565b81600181016117915761178e336110fa565b90505b336000908152600d60209081526040918290208251606081018452815481526001909101546001600160401b03808216938301849052600160401b9091041692810192909252158015906118005750806040015181602001516117f49190612dfa565b6001600160401b031642115b1561182957336000908152600d6020526040812090815560010180546001600160801b03191690555b6118333383612184565b6118676001600160a01b037f0000000000000000000000000000000000000000000000000000000000000000163384611eba565b60405182815233907fcb4e4a5b4e544d9c587ec3ac0eead830ce8a4cccfe48b8dc331d447c481be8979060200160405180910390a250505050565b6118aa611bf4565b6001600160a01b0381166119005760405162461bcd60e51b815260206004820152601960248201527f496e76616c69642066656520637572766520616464726573730000000000000060448201526064016108d7565b600c80546001600160a01b0319166001600160a01b0392909216919091179055565b61192c33826122d2565b50565b336000818152600a602052604080822080546001600160a01b0319811690915590516001600160a01b0390911692839290917f9dca899729a60a64e03e19b833c4ef7e1795b7d9ed899092fd59d5df5a8229e49190a350565b6001600160a01b03918216600090815260026020908152604080832093909416825291909152205490565b6001600160a01b038281166000908152600a6020526040902054163314611a2a5760405162461bcd60e51b815260206004820152602560248201527f417070726f76616c20726571756972656420746f207265646972656374207265604482015264776172647360d81b60648201526084016108d7565b6001600160a01b0382166000908152600a6020526040902080546001600160a01b031916905561137f82826122d2565b611a62611bf4565b6001600160a01b038116611ac75760405162461bcd60e51b815260206004820152602660248201527f4f776e61626c653a206e6577206f776e657220697320746865207a65726f206160448201526564647265737360d01b60648201526084016108d7565b61192c81611e6a565b6001600160a01b038316611b325760405162461bcd60e51b8152602060048201526024808201527f45524332303a20617070726f76652066726f6d20746865207a65726f206164646044820152637265737360e01b60648201526084016108d7565b6001600160a01b038216611b935760405162461bcd60e51b815260206004820152602260248201527f45524332303a20617070726f766520746f20746865207a65726f206164647265604482015261737360f01b60648201526084016108d7565b6001600160a01b0383811660008181526002602090815260408083209487168084529482529182902085905590518481527f8c5be1e5ebec7d5bd14f71427d1e84f3dd0314c0f7b2291e5b200ac8c7c3b925910160405180910390a3505050565b6000546001600160a01b0316331461115d5760405162461bcd60e51b815260206004820181905260248201527f4f776e61626c653a2063616c6c6572206973206e6f7420746865206f776e657260448201526064016108d7565b6000611c5a8484611988565b905060001981146115b95781811015611cb55760405162461bcd60e51b815260206004820152601d60248201527f45524332303a20696e73756666696369656e7420616c6c6f77616e636500000060448201526064016108d7565b6115b98484848403611ad0565b60405162461bcd60e51b815260206004820152601b60248201527f546f6b656e2063616e6e6f74206265207472616e73666572726564000000000060448201526064016108d7565b604051635260769b60e11b815284906001600160a01b0382169063a4c0ed3690611d3e908990889088908890600401612e25565b600060405180830381600087803b158015611d5857600080fd5b505af1158015611d6c573d6000803e3d6000fd5b50505050505050505050565b6001600160a01b0381166000908152600d60209081526040808320815160608101835281548082526001909201546001600160401b03808216958301869052600160401b9091041692810192909252909142821580611de85750816001600160401b0316816001600160401b0316105b15611df95750600095945050505050565b6040840151611e089083612dfa565b6001600160401b0316816001600160401b03161115611e2b575090949350505050565b60408401516001600160401b0316611e438383612e6d565b611e56906001600160401b031685612e95565b611e609190612eb4565b9695505050505050565b600080546001600160a01b038381166001600160a01b0319831681178455604051919092169283917f8be0079c531659141344cd1fd0a4f28419497f9722a3daafe3b4186f6b6457e09190a35050565b604080516001600160a01b038416602482015260448082018490528251808303909101815260649091019091526020810180516001600160e01b031663a9059cbb60e01b179052611f0c9084906125da565b505050565b81611f1b816120d0565b611f2583836126ac565b826001600160a01b03167f60df8ac38837b0ae1b717d64eba4a631341a9365ed654aa2cb3ed7657d65acee83604051611f6091815260200190565b60405180910390a2505050565b6000826001600160401b031611611fc65760405162461bcd60e51b815260206004820152601b60248201527f53746172742074696d657374616d702063616e6e6f742062652030000000000060448201526064016108d7565b6000816001600160401b03161161201f5760405162461bcd60e51b815260206004820152601c60248201527f5365636f6e6473206475726174696f6e2063616e6e6f7420626520300000000060448201526064016108d7565b6001600160a01b0384166000908152600d6020526040902060018101546001600160401b0390811690841611156120b05760018101546001600160401b0316156120855761206c85611d78565b81600001600082825461207f9190612d6a565b90915550505b6001810180546001600160401b03848116600160401b026001600160801b0319909216908616171790555b838160000160008282546120c49190612d52565b90915550505050505050565b60005b60075481101561137f5760066000600783815481106120f4576120f4612d0d565b6000918252602080832091909101546001600160a01b039081168452908301939093526040918201902054905163632447c960e01b8152848316600482015291169063632447c990602401600060405180830381600087803b15801561215957600080fd5b505af115801561216d573d6000803e3d6000fd5b50505050808061217c90612d39565b9150506120d3565b6001600160a01b0382166121e45760405162461bcd60e51b815260206004820152602160248201527f45524332303a206275726e2066726f6d20746865207a65726f206164647265736044820152607360f81b60648201526084016108d7565b6001600160a01b038216600090815260016020526040902054818110156122585760405162461bcd60e51b815260206004820152602260248201527f45524332303a206275726e20616d6f756e7420657863656564732062616c616e604482015261636560f01b60648201526084016108d7565b6001600160a01b0383166000908152600160205260408120838303905560038054849290612287908490612d6a565b90915550506040518281526000906001600160a01b038516907fddf252ad1be2c89b69c2b068fc378daa952ba7f163c4a11628f55a4df523b3ef9060200160405180910390a3505050565b816122dc816120d0565b816122e6816120d0565b6001600160a01b0383166123325760405162461bcd60e51b815260206004820152601360248201527243616e6e6f74206275726e207265776172647360681b60448201526064016108d7565b6001600160a01b038481166000908152600860205260409020548185169116036123b25760405162461bcd60e51b815260206004820152602b60248201527f43616e6e6f74207265646972656374207265776172647320746f20746865207360448201526a616d65206164647265737360a81b60648201526084016108d7565b6001600160a01b0384811660009081526008602052604090205416156123d95760016123f0565b826001600160a01b0316846001600160a01b031614155b61243c5760405162461bcd60e51b815260206004820152601760248201527f43616e6e6f7420726564697265637420746f2073656c6600000000000000000060448201526064016108d7565b6000612447856110fa565b9050600081116124ab5760405162461bcd60e51b815260206004820152602960248201527f412062616c616e636520697320726571756972656420746f207265646972656360448201526874207265776172647360b81b60648201526084016108d7565b6001600160a01b03808616600090815260086020526040902054168015612503576124d5816120d0565b6001600160a01b038116600090815260096020526040812080548492906124fd908490612d6a565b90915550505b856001600160a01b0316856001600160a01b031603612547576001600160a01b038616600090815260086020526040902080546001600160a01b0319169055612597565b6001600160a01b03868116600090815260086020908152604080832080546001600160a01b031916948a169485179055928252600990529081208054849290612591908490612d52565b90915550505b60405133906001600160a01b0387811691908916907f6a8c4b3eeb6ce85acfca51b03ce7b05fdefe1ff2b7c0a45e7002b08e0cea1eb690600090a4505050505050565b600061262f826040518060400160405280602081526020017f5361666545524332303a206c6f772d6c6576656c2063616c6c206661696c6564815250856001600160a01b031661278b9092919063ffffffff16565b805190915015611f0c578080602001905181019061264d9190612dd8565b611f0c5760405162461bcd60e51b815260206004820152602a60248201527f5361666545524332303a204552433230206f7065726174696f6e20646964206e6044820152691bdd081cdd58d8d9595960b21b60648201526084016108d7565b6001600160a01b0382166127025760405162461bcd60e51b815260206004820152601f60248201527f45524332303a206d696e7420746f20746865207a65726f20616464726573730060448201526064016108d7565b80600360008282546127149190612d52565b90915550506001600160a01b03821660009081526001602052604081208054839290612741908490612d52565b90915550506040518181526001600160a01b038316906000907fddf252ad1be2c89b69c2b068fc378daa952ba7f163c4a11628f55a4df523b3ef9060200160405180910390a35050565b606061279a84846000856127a2565b949350505050565b6060824710156128035760405162461bcd60e51b815260206004820152602660248201527f416464726573733a20696e73756666696369656e742062616c616e636520666f6044820152651c8818d85b1b60d21b60648201526084016108d7565b6001600160a01b0385163b61285a5760405162461bcd60e51b815260206004820152601d60248201527f416464726573733a2063616c6c20746f206e6f6e2d636f6e747261637400000060448201526064016108d7565b600080866001600160a01b031685876040516128769190612ed6565b60006040518083038185875af1925050503d80600081146128b3576040519150601f19603f3d011682016040523d82523d6000602084013e6128b8565b606091505b50915091506128c88282866128d3565b979650505050505050565b606083156128e25750816107c9565b8251156128f25782518084602001fd5b8160405162461bcd60e51b81526004016108d79190612992565b80356001600160a01b038116811461292357600080fd5b919050565b6000806040838503121561293b57600080fd5b6129448361290c565b9150602083013561ffff8116811461295b57600080fd5b809150509250929050565b60005b83811015612981578181015183820152602001612969565b838111156115b95750506000910152565b60208152600082518060208401526129b1816040850160208701612966565b601f01601f19169190910160400192915050565b600080604083850312156129d857600080fd5b6129e18361290c565b946020939093013593505050565b600060208284031215612a0157600080fd5b6107c98261290c565b600081518084526020808501945080840160005b83811015612a435781516001600160a01b031687529582019590820190600101612a1e565b509495945050505050565b600081518084526020808501945080840160005b83811015612a4357815187529582019590820190600101612a62565b604081526000612a916040830185612a0a565b8281036020840152612aa38185612a4e565b95945050505050565b6020815260006107c96020830184612a4e565b600080600060608486031215612ad457600080fd5b612add8461290c565b9250612aeb6020850161290c565b9150604084013590509250925092565b60008060008060608587031215612b1157600080fd5b612b1a8561290c565b93506020850135925060408501356001600160401b0380821115612b3d57600080fd5b818701915087601f830112612b5157600080fd5b813581811115612b6057600080fd5b886020828501011115612b7257600080fd5b95989497505060200194505050565b60008060408385031215612b9457600080fd5b612b9d8361290c565b9150612bab6020840161290c565b90509250929050565b634e487b7160e01b600052604160045260246000fd5b60006020808385031215612bdd57600080fd5b82356001600160401b0380821115612bf457600080fd5b818501915085601f830112612c0857600080fd5b813581811115612c1a57612c1a612bb4565b8060051b604051601f19603f83011681018181108582111715612c3f57612c3f612bb4565b604052918252848201925083810185019188831115612c5d57600080fd5b938501935b82851015612c8257612c738561290c565b84529385019392850192612c62565b98975050505050505050565b600060208284031215612ca057600080fd5b5035919050565b6020815260006107c96020830184612a0a565b600060208284031215612ccc57600080fd5b5051919050565b600181811c90821680612ce757607f821691505b602082108103612d0757634e487b7160e01b600052602260045260246000fd5b50919050565b634e487b7160e01b600052603260045260246000fd5b634e487b7160e01b600052601160045260246000fd5b600060018201612d4b57612d4b612d23565b5060010190565b60008219821115612d6557612d65612d23565b500190565b600082821015612d7c57612d7c612d23565b500390565b634e487b7160e01b600052603160045260246000fd5b80356001600160401b038116811461292357600080fd5b60008060408385031215612dc157600080fd5b612dca83612d97565b9150612bab60208401612d97565b600060208284031215612dea57600080fd5b815180151581146107c957600080fd5b60006001600160401b03808316818516808303821115612e1c57612e1c612d23565b01949350505050565b6001600160a01b0385168152602081018490526060604082018190528101829052818360808301376000818301608090810191909152601f909201601f191601019392505050565b60006001600160401b0383811690831681811015612e8d57612e8d612d23565b039392505050565b6000816000190483118215151615612eaf57612eaf612d23565b500290565b600082612ed157634e487b7160e01b600052601260045260246000fd5b500490565b60008251612ee8818460208701612966565b919091019291505056fea26469706673582212200af602f7dc0f335796134d55ad60148685e1e1f53c8efd767251eaae25d87e4b64736f6c634300080f0033",
  "devdoc": {
    "kind": "dev",
    "methods": {
      "addToken(address,address)": {
        "params": {
          "_rewardsPool": "token rewards pool to add*",
          "_token": "token to add"
        }
      },
      "allowance(address,address)": {
        "details": "See {IERC20-allowance}."
      },
      "approve(address,uint256)": {
        "details": "See {IERC20-approve}. NOTE: If `amount` is the maximum `uint256`, the allowance is not updated on `transferFrom`. This is semantically equivalent to an infinite approval. Requirements: - `spender` cannot be the zero address."
      },
      "approveRedirect(address)": {
        "params": {
          "_to": "account to approve"
        }
      },
      "balanceOf(address)": {
        "params": {
          "_account": "account"
        },
        "returns": {
          "_0": "balance accounts balance"
        }
      },
      "currentRate(address,uint16)": {
        "params": {
          "_index": "the pool index",
          "_token": "the token address of the pool"
        },
        "returns": {
          "_0": "current rate*"
        }
      },
      "currentRateAt(uint256)": {
        "details": "1 ether = 100%, 0.5 ether = 50% etc",
        "params": {
          "_percentageBorrowed": "the percentage borrowed for fee calculation"
        },
        "returns": {
          "_0": "current rate*"
        }
      },
      "decimals()": {
        "details": "Returns the number of decimals used to get its user representation. For example, if `decimals` equals `2`, a balance of `505` tokens should be displayed to a user as `5.05` (`505 / 10 ** 2`). Tokens usually opt for a value of 18, imitating the relationship between Ether and Wei. This is the value {ERC20} uses, unless this function is overridden; NOTE: This information is only used for _display_ purposes: it in no way affects any of the arithmetic of the contract, including {IERC20-balanceOf} and {IERC20-transfer}."
      },
      "decreaseAllowance(address,uint256)": {
        "details": "Atomically decreases the allowance granted to `spender` by the caller. This is an alternative to {approve} that can be used as a mitigation for problems described in {IERC20-approve}. Emits an {Approval} event indicating the updated allowance. Requirements: - `spender` cannot be the zero address. - `spender` must have allowance for the caller of at least `subtractedValue`."
      },
      "distributeToken(address)": {
        "params": {
          "_token": "token address"
        }
      },
      "distributeTokens(address[])": {
        "params": {
          "_tokens": "list of token addresses"
        }
      },
      "getVestingSchedule(address)": {
        "params": {
          "_account": "account"
        },
        "returns": {
          "_0": "vestingSchedule account's vesting schedule"
        }
      },
      "increaseAllowance(address,uint256)": {
        "details": "Atomically increases the allowance granted to `spender` by the caller. This is an alternative to {approve} that can be used as a mitigation for problems described in {IERC20-approve}. Emits an {Approval} event indicating the updated allowance. Requirements: - `spender` cannot be the zero address."
      },
      "isTokenSupported(address)": {
        "params": {
          "_token": "token address"
        },
        "returns": {
          "_0": "is token supported*"
        }
      },
      "name()": {
        "details": "Returns the name of the token."
      },
      "onTokenTransfer(address,uint256,bytes)": {
        "params": {
          "_sender": "of the stake",
          "_value": "of the token transfer*"
        }
      },
      "owner()": {
        "details": "Returns the address of the current owner."
      },
      "redirectRewards(address)": {
        "params": {
          "_to": "account to redirect rewards to"
        }
      },
      "redirectRewardsFrom(address,address)": {
        "params": {
          "_from": "account to redirect rewards for",
          "_to": "account to redirect rewards to"
        }
      },
      "removeToken(address)": {
        "params": {
          "_token": "address of token*"
        }
      },
      "renounceOwnership()": {
        "details": "Leaves the contract without owner. It will not be possible to call `onlyOwner` functions anymore. Can only be called by the current owner. NOTE: Renouncing ownership will leave the contract without an owner, thereby removing any functionality that is only available to the owner."
      },
      "rewardsAddress(address)": {
        "params": {
          "_account": "address to query"
        }
      },
      "setFeeCurve(address)": {
        "params": {
          "_feeCurve": "interface"
        }
      },
      "setPoolRouter(address)": {
        "params": {
          "_poolRouter": "pool router address*"
        }
      },
      "staked(address)": {
        "details": "required by RewardsPoolController",
        "returns": {
          "_0": "account's staked amount"
        }
      },
      "supportedTokens()": {
        "returns": {
          "_0": "list of token configs*"
        }
      },
      "symbol()": {
        "details": "Returns the symbol of the token, usually a shorter version of the name."
      },
      "tokenBalances()": {
        "returns": {
          "_0": "list of tokens with a list of token balances*"
        }
      },
      "totalStaked()": {
        "details": "required by RewardsPoolController",
        "returns": {
          "_0": "total staked amount"
        }
      },
      "totalSupply()": {
        "details": "See {IERC20-totalSupply}."
      },
      "transfer(address,uint256)": {
        "details": "See {IERC20-transfer}. Requirements: - `to` cannot be the zero address. - the caller must have a balance of at least `amount`."
      },
      "transferFrom(address,address,uint256)": {
        "details": "See {IERC20-transferFrom}. Emits an {Approval} event indicating the updated allowance. This is not required by the EIP. See the note at the beginning of {ERC20}. NOTE: Does not update the allowance if the current allowance is the maximum `uint256`. Requirements: - `from` and `to` cannot be the zero address. - `from` must have a balance of at least `amount`. - the caller must have allowance for ``from``'s tokens of at least `amount`."
      },
      "transferOwnership(address)": {
        "details": "Transfers ownership of the contract to a new account (`newOwner`). Can only be called by the current owner."
      },
      "withdrawAllowance(uint256)": {
        "params": {
          "_amount": "amount to withdraw*"
        }
      },
      "withdrawRewards(address[])": {
        "params": {
          "_tokens": "list of token addresses to withdraw rewards from*"
        }
      },
      "withdrawableRewards(address)": {
        "params": {
          "_account": "account to return reward amounts for"
        },
        "returns": {
          "_0": "list of withdrawable reward amounts*"
        }
      }
    },
    "title": "Delegator Pool",
    "version": 1
  },
  "userdoc": {
    "kind": "user",
    "methods": {
      "addToken(address,address)": {
        "notice": "adds a new token"
      },
      "approveRedirect(address)": {
        "notice": "approve a reward redirect"
      },
      "balanceOf(address)": {
        "notice": "returns an accounts balance minus the amount of tokens that are currently vesting"
      },
      "currentRate(address,uint16)": {
        "notice": "returns the current fee rate based on the % of allowance token borrowed"
      },
      "currentRateAt(uint256)": {
        "notice": "returns the current fee rate based on a specified percentage"
      },
      "distributeToken(address)": {
        "notice": "distributes a token balance to its equivalent reward pool"
      },
      "distributeTokens(address[])": {
        "notice": "distributes token balances to their equivalent reward pools"
      },
      "getVestingSchedule(address)": {
        "notice": "returns the vesting schedule of a given account"
      },
      "isTokenSupported(address)": {
        "notice": "returns true/false to whether a given token is supported"
      },
      "onTokenTransfer(address,uint256,bytes)": {
        "notice": "ERC677 implementation to stake allowance or distribute rewards"
      },
      "redirectRewards(address)": {
        "notice": "redirect rewards to a specific address. Supports multiple addresses redirecting to the same previousRedirect. To stop redirecting rewards, set _to as the current wallet."
      },
      "redirectRewardsFrom(address,address)": {
        "notice": "redirect rewards for an account with approval"
      },
      "removeToken(address)": {
        "notice": "removes a supported token"
      },
      "revokeRedirectApproval()": {
        "notice": "revoke a redirect approval"
      },
      "rewardsAddress(address)": {
        "notice": "returns the address that receives rewards for an account"
      },
      "setFeeCurve(address)": {
        "notice": "sets the fee curve interface"
      },
      "setPoolRouter(address)": {
        "notice": "sets the pool router address"
      },
      "staked(address)": {
        "notice": "returns an account's staked amount for use by reward pools controlled by this contract. Overridden as the the staked amount needs to include any vesting tokens."
      },
      "supportedTokens()": {
        "notice": "returns a list of configs for all supported tokens"
      },
      "tokenBalances()": {
        "notice": "get all token balances of supported tokens within the controller"
      },
      "totalStaked()": {
        "notice": "returns the total staked amount for use by reward pools controlled by this contract"
      },
      "withdrawAllowance(uint256)": {
        "notice": "withdraws lent allowance tokens if there are enough available"
      },
      "withdrawRewards(address[])": {
        "notice": "withdraws an account's earned rewards for a list of tokens"
      },
      "withdrawableRewards(address)": {
        "notice": "returns a list of withdrawable rewards for an account"
      }
    },
    "notice": "Allows users to stake allowance tokens, stakers receive a percentage of earned rewards",
    "version": 1
  },
  "storageLayout": {
    "storage": [
      {
        "astId": 3767,
        "contract": "contracts/core/DelegatorPool.sol:DelegatorPool",
        "label": "_owner",
        "offset": 0,
        "slot": "0",
        "type": "t_address"
      },
      {
        "astId": 4355,
        "contract": "contracts/core/DelegatorPool.sol:DelegatorPool",
        "label": "_balances",
        "offset": 0,
        "slot": "1",
        "type": "t_mapping(t_address,t_uint256)"
      },
      {
        "astId": 4361,
        "contract": "contracts/core/DelegatorPool.sol:DelegatorPool",
        "label": "_allowances",
        "offset": 0,
        "slot": "2",
        "type": "t_mapping(t_address,t_mapping(t_address,t_uint256))"
      },
      {
        "astId": 4363,
        "contract": "contracts/core/DelegatorPool.sol:DelegatorPool",
        "label": "_totalSupply",
        "offset": 0,
        "slot": "3",
        "type": "t_uint256"
      },
      {
        "astId": 4365,
        "contract": "contracts/core/DelegatorPool.sol:DelegatorPool",
        "label": "_name",
        "offset": 0,
        "slot": "4",
        "type": "t_string_storage"
      },
      {
        "astId": 4367,
        "contract": "contracts/core/DelegatorPool.sol:DelegatorPool",
        "label": "_symbol",
        "offset": 0,
        "slot": "5",
        "type": "t_string_storage"
      },
      {
        "astId": 18025,
        "contract": "contracts/core/DelegatorPool.sol:DelegatorPool",
        "label": "tokenPools",
        "offset": 0,
        "slot": "6",
        "type": "t_mapping(t_address,t_contract(IRewardsPool)19713)"
      },
      {
        "astId": 18028,
        "contract": "contracts/core/DelegatorPool.sol:DelegatorPool",
        "label": "tokens",
        "offset": 0,
        "slot": "7",
        "type": "t_array(t_address)dyn_storage"
      },
      {
        "astId": 18032,
        "contract": "contracts/core/DelegatorPool.sol:DelegatorPool",
        "label": "rewardRedirects",
        "offset": 0,
        "slot": "8",
        "type": "t_mapping(t_address,t_address)"
      },
      {
        "astId": 18036,
        "contract": "contracts/core/DelegatorPool.sol:DelegatorPool",
        "label": "redirectedStakes",
        "offset": 0,
        "slot": "9",
        "type": "t_mapping(t_address,t_uint256)"
      },
      {
        "astId": 18040,
        "contract": "contracts/core/DelegatorPool.sol:DelegatorPool",
        "label": "redirectApprovals",
        "offset": 0,
        "slot": "10",
        "type": "t_mapping(t_address,t_address)"
      },
      {
        "astId": 13209,
        "contract": "contracts/core/DelegatorPool.sol:DelegatorPool",
        "label": "poolRouter",
        "offset": 0,
        "slot": "11",
        "type": "t_contract(IPoolRouter)19690"
      },
      {
        "astId": 13212,
        "contract": "contracts/core/DelegatorPool.sol:DelegatorPool",
        "label": "feeCurve",
        "offset": 0,
        "slot": "12",
        "type": "t_contract(IFeeCurve)19668"
      },
      {
        "astId": 13217,
        "contract": "contracts/core/DelegatorPool.sol:DelegatorPool",
        "label": "vestingSchedules",
        "offset": 0,
        "slot": "13",
        "type": "t_mapping(t_address,t_struct(VestingSchedule)13203_storage)"
      }
    ],
    "types": {
      "t_address": {
        "encoding": "inplace",
        "label": "address",
        "numberOfBytes": "20"
      },
      "t_array(t_address)dyn_storage": {
        "base": "t_address",
        "encoding": "dynamic_array",
        "label": "address[]",
        "numberOfBytes": "32"
      },
      "t_contract(IFeeCurve)19668": {
        "encoding": "inplace",
        "label": "contract IFeeCurve",
        "numberOfBytes": "20"
      },
      "t_contract(IPoolRouter)19690": {
        "encoding": "inplace",
        "label": "contract IPoolRouter",
        "numberOfBytes": "20"
      },
      "t_contract(IRewardsPool)19713": {
        "encoding": "inplace",
        "label": "contract IRewardsPool",
        "numberOfBytes": "20"
      },
      "t_mapping(t_address,t_address)": {
        "encoding": "mapping",
        "key": "t_address",
        "label": "mapping(address => address)",
        "numberOfBytes": "32",
        "value": "t_address"
      },
      "t_mapping(t_address,t_contract(IRewardsPool)19713)": {
        "encoding": "mapping",
        "key": "t_address",
        "label": "mapping(address => contract IRewardsPool)",
        "numberOfBytes": "32",
        "value": "t_contract(IRewardsPool)19713"
      },
      "t_mapping(t_address,t_mapping(t_address,t_uint256))": {
        "encoding": "mapping",
        "key": "t_address",
        "label": "mapping(address => mapping(address => uint256))",
        "numberOfBytes": "32",
        "value": "t_mapping(t_address,t_uint256)"
      },
      "t_mapping(t_address,t_struct(VestingSchedule)13203_storage)": {
        "encoding": "mapping",
        "key": "t_address",
        "label": "mapping(address => struct DelegatorPool.VestingSchedule)",
        "numberOfBytes": "32",
        "value": "t_struct(VestingSchedule)13203_storage"
      },
      "t_mapping(t_address,t_uint256)": {
        "encoding": "mapping",
        "key": "t_address",
        "label": "mapping(address => uint256)",
        "numberOfBytes": "32",
        "value": "t_uint256"
      },
      "t_string_storage": {
        "encoding": "bytes",
        "label": "string",
        "numberOfBytes": "32"
      },
      "t_struct(VestingSchedule)13203_storage": {
        "encoding": "inplace",
        "label": "struct DelegatorPool.VestingSchedule",
        "members": [
          {
            "astId": 13198,
            "contract": "contracts/core/DelegatorPool.sol:DelegatorPool",
            "label": "totalAmount",
            "offset": 0,
            "slot": "0",
            "type": "t_uint256"
          },
          {
            "astId": 13200,
            "contract": "contracts/core/DelegatorPool.sol:DelegatorPool",
            "label": "startTimestamp",
            "offset": 0,
            "slot": "1",
            "type": "t_uint64"
          },
          {
            "astId": 13202,
            "contract": "contracts/core/DelegatorPool.sol:DelegatorPool",
            "label": "durationSeconds",
            "offset": 8,
            "slot": "1",
            "type": "t_uint64"
          }
        ],
        "numberOfBytes": "64"
      },
      "t_uint256": {
        "encoding": "inplace",
        "label": "uint256",
        "numberOfBytes": "32"
      },
      "t_uint64": {
        "encoding": "inplace",
        "label": "uint64",
        "numberOfBytes": "8"
      }
    }
  }
}