{
  "address": "0x4bBF14a87b21EE3c36dB63742e23Bff887aC3908",
  "abi": [
    {
      "inputs": [
        {
          "internalType": "address",
          "name": "_stakingRewardsPool",
          "type": "address"
        },
        {
          "internalType": "string",
          "name": "_name",
          "type": "string"
        },
        {
          "internalType": "string",
          "name": "_symbol",
          "type": "string"
        }
      ],
      "stateMutability": "nonpayable",
      "type": "constructor"
    },
    {
      "anonymous": false,
      "inputs": [
        {
          "indexed": true,
          "internalType": "address",
          "name": "owner",
          "type": "address"
        },
        {
          "indexed": true,
          "internalType": "address",
          "name": "spender",
          "type": "address"
        },
        {
          "indexed": false,
          "internalType": "uint256",
          "name": "value",
          "type": "uint256"
        }
      ],
      "name": "Approval",
      "type": "event"
    },
    {
      "anonymous": false,
      "inputs": [
        {
          "indexed": true,
          "internalType": "address",
          "name": "from",
          "type": "address"
        },
        {
          "indexed": true,
          "internalType": "address",
          "name": "to",
          "type": "address"
        },
        {
          "indexed": false,
          "internalType": "uint256",
          "name": "value",
          "type": "uint256"
        }
      ],
      "name": "Transfer",
      "type": "event"
    },
    {
      "inputs": [
        {
          "internalType": "address",
          "name": "owner",
          "type": "address"
        },
        {
          "internalType": "address",
          "name": "spender",
          "type": "address"
        }
      ],
      "name": "allowance",
      "outputs": [
        {
          "internalType": "uint256",
          "name": "",
          "type": "uint256"
        }
      ],
      "stateMutability": "view",
      "type": "function"
    },
    {
      "inputs": [
        {
          "internalType": "address",
          "name": "spender",
          "type": "address"
        },
        {
          "internalType": "uint256",
          "name": "amount",
          "type": "uint256"
        }
      ],
      "name": "approve",
      "outputs": [
        {
          "internalType": "bool",
          "name": "",
          "type": "bool"
        }
      ],
      "stateMutability": "nonpayable",
      "type": "function"
    },
    {
      "inputs": [
        {
          "internalType": "address",
          "name": "account",
          "type": "address"
        }
      ],
      "name": "balanceOf",
      "outputs": [
        {
          "internalType": "uint256",
          "name": "",
          "type": "uint256"
        }
      ],
      "stateMutability": "view",
      "type": "function"
    },
    {
      "inputs": [],
      "name": "decimals",
      "outputs": [
        {
          "internalType": "uint8",
          "name": "",
          "type": "uint8"
        }
      ],
      "stateMutability": "view",
      "type": "function"
    },
    {
      "inputs": [
        {
          "internalType": "address",
          "name": "spender",
          "type": "address"
        },
        {
          "internalType": "uint256",
          "name": "subtractedValue",
          "type": "uint256"
        }
      ],
      "name": "decreaseAllowance",
      "outputs": [
        {
          "internalType": "bool",
          "name": "",
          "type": "bool"
        }
      ],
      "stateMutability": "nonpayable",
      "type": "function"
    },
    {
      "inputs": [
        {
          "internalType": "uint256",
          "name": "_amount",
          "type": "uint256"
        }
      ],
      "name": "getUnderlyingByWrapped",
      "outputs": [
        {
          "internalType": "uint256",
          "name": "",
          "type": "uint256"
        }
      ],
      "stateMutability": "view",
      "type": "function"
    },
    {
      "inputs": [
        {
          "internalType": "uint256",
          "name": "_amount",
          "type": "uint256"
        }
      ],
      "name": "getWrappedByUnderlying",
      "outputs": [
        {
          "internalType": "uint256",
          "name": "",
          "type": "uint256"
        }
      ],
      "stateMutability": "view",
      "type": "function"
    },
    {
      "inputs": [
        {
          "internalType": "address",
          "name": "spender",
          "type": "address"
        },
        {
          "internalType": "uint256",
          "name": "addedValue",
          "type": "uint256"
        }
      ],
      "name": "increaseAllowance",
      "outputs": [
        {
          "internalType": "bool",
          "name": "",
          "type": "bool"
        }
      ],
      "stateMutability": "nonpayable",
      "type": "function"
    },
    {
      "inputs": [],
      "name": "name",
      "outputs": [
        {
          "internalType": "string",
          "name": "",
          "type": "string"
        }
      ],
      "stateMutability": "view",
      "type": "function"
    },
    {
      "inputs": [
        {
          "internalType": "address",
          "name": "_sender",
          "type": "address"
        },
        {
          "internalType": "uint256",
          "name": "_value",
          "type": "uint256"
        },
        {
          "internalType": "bytes",
          "name": "",
          "type": "bytes"
        }
      ],
      "name": "onTokenTransfer",
      "outputs": [],
      "stateMutability": "nonpayable",
      "type": "function"
    },
    {
      "inputs": [],
      "name": "sdToken",
      "outputs": [
        {
          "internalType": "contract IStakingRewardsPool",
          "name": "",
          "type": "address"
        }
      ],
      "stateMutability": "view",
      "type": "function"
    },
    {
      "inputs": [],
      "name": "symbol",
      "outputs": [
        {
          "internalType": "string",
          "name": "",
          "type": "string"
        }
      ],
      "stateMutability": "view",
      "type": "function"
    },
    {
      "inputs": [],
      "name": "totalSupply",
      "outputs": [
        {
          "internalType": "uint256",
          "name": "",
          "type": "uint256"
        }
      ],
      "stateMutability": "view",
      "type": "function"
    },
    {
      "inputs": [
        {
          "internalType": "address",
          "name": "to",
          "type": "address"
        },
        {
          "internalType": "uint256",
          "name": "amount",
          "type": "uint256"
        }
      ],
      "name": "transfer",
      "outputs": [
        {
          "internalType": "bool",
          "name": "",
          "type": "bool"
        }
      ],
      "stateMutability": "nonpayable",
      "type": "function"
    },
    {
      "inputs": [
        {
          "internalType": "address",
          "name": "_to",
          "type": "address"
        },
        {
          "internalType": "uint256",
          "name": "_value",
          "type": "uint256"
        },
        {
          "internalType": "bytes",
          "name": "_data",
          "type": "bytes"
        }
      ],
      "name": "transferAndCall",
      "outputs": [
        {
          "internalType": "bool",
          "name": "",
          "type": "bool"
        }
      ],
      "stateMutability": "nonpayable",
      "type": "function"
    },
    {
      "inputs": [
        {
          "internalType": "address",
          "name": "from",
          "type": "address"
        },
        {
          "internalType": "address",
          "name": "to",
          "type": "address"
        },
        {
          "internalType": "uint256",
          "name": "amount",
          "type": "uint256"
        }
      ],
      "name": "transferFrom",
      "outputs": [
        {
          "internalType": "bool",
          "name": "",
          "type": "bool"
        }
      ],
      "stateMutability": "nonpayable",
      "type": "function"
    },
    {
      "inputs": [
        {
          "internalType": "uint256",
          "name": "_amount",
          "type": "uint256"
        }
      ],
      "name": "unwrap",
      "outputs": [],
      "stateMutability": "nonpayable",
      "type": "function"
    },
    {
      "inputs": [
        {
          "internalType": "uint256",
          "name": "_amount",
          "type": "uint256"
        }
      ],
      "name": "wrap",
      "outputs": [],
      "stateMutability": "nonpayable",
      "type": "function"
    }
  ],
  "transactionHash": "0x54f0c0a8371575d9e93d87e4179353b1adf06841fb299fd31799ab0707af22a7",
  "args": [
    "0x92D8519A81C8724A5c1Fbe88bd079320E85F6Db5",
    "Wrapped stLINK",
    "wstLINK"
  ],
  "numDeployments": 1,
  "solcInputHash": "3b2625e8211dd6eaac71f4a881384a88",
  "bytecode": "0x60a06040523480156200001157600080fd5b50604051620018103803806200181083398101604081905262000034916200026a565b818160008282600362000048838262000382565b50600462000057828262000382565b50505062000091336200006f620000ab60201b60201c565b6200007f9060ff16600a62000563565b6200008b908462000578565b620000b0565b5050506001600160a01b0390921660805250620005b59050565b601290565b6001600160a01b0382166200010b5760405162461bcd60e51b815260206004820152601f60248201527f45524332303a206d696e7420746f20746865207a65726f206164647265737300604482015260640160405180910390fd5b80600260008282546200011f91906200059a565b90915550506001600160a01b038216600090815260208190526040812080548392906200014e9084906200059a565b90915550506040518181526001600160a01b038316906000907fddf252ad1be2c89b69c2b068fc378daa952ba7f163c4a11628f55a4df523b3ef9060200160405180910390a35050565b505050565b634e487b7160e01b600052604160045260246000fd5b600082601f830112620001c557600080fd5b81516001600160401b0380821115620001e257620001e26200019d565b604051601f8301601f19908116603f011681019082821181831017156200020d576200020d6200019d565b816040528381526020925086838588010111156200022a57600080fd5b600091505b838210156200024e57858201830151818301840152908201906200022f565b83821115620002605760008385830101525b9695505050505050565b6000806000606084860312156200028057600080fd5b83516001600160a01b03811681146200029857600080fd5b60208501519093506001600160401b0380821115620002b657600080fd5b620002c487838801620001b3565b93506040860151915080821115620002db57600080fd5b50620002ea86828701620001b3565b9150509250925092565b600181811c908216806200030957607f821691505b6020821081036200032a57634e487b7160e01b600052602260045260246000fd5b50919050565b601f8211156200019857600081815260208120601f850160051c81016020861015620003595750805b601f850160051c820191505b818110156200037a5782815560010162000365565b505050505050565b81516001600160401b038111156200039e576200039e6200019d565b620003b681620003af8454620002f4565b8462000330565b602080601f831160018114620003ee5760008415620003d55750858301515b600019600386901b1c1916600185901b1785556200037a565b600085815260208120601f198616915b828110156200041f57888601518255948401946001909101908401620003fe565b50858210156200043e5787850151600019600388901b60f8161c191681555b5050505050600190811b01905550565b634e487b7160e01b600052601160045260246000fd5b600181815b80851115620004a55781600019048211156200048957620004896200044e565b808516156200049757918102915b93841c939080029062000469565b509250929050565b600082620004be575060016200055d565b81620004cd575060006200055d565b8160018114620004e65760028114620004f15762000511565b60019150506200055d565b60ff8411156200050557620005056200044e565b50506001821b6200055d565b5060208310610133831016604e8410600b841016171562000536575081810a6200055d565b62000542838362000464565b80600019048211156200055957620005596200044e565b0290505b92915050565b6000620005718383620004ad565b9392505050565b60008160001904831182151516156200059557620005956200044e565b500290565b60008219821115620005b057620005b06200044e565b500190565b60805161120e62000602600039600081816101e40152818161046b0152818161051f015281816105b2015281816106720152818161070d015281816107a90152610c5e015261120e6000f3fe608060405234801561001057600080fd5b50600436106101165760003560e01c806395d89b41116100a2578063b085136711610071578063b085136714610261578063da9a6cf814610274578063dd62ed3e14610287578063de0e9a3e1461029a578063ea598cb0146102ad57600080fd5b806395d89b411461021e578063a457c2d714610226578063a4c0ed3614610239578063a9059cbb1461024e57600080fd5b8063313ce567116100e9578063313ce5671461018157806339509351146101905780634000aea0146101a357806370a08231146101b6578063776c23fb146101df57600080fd5b806306fdde031461011b578063095ea7b31461013957806318160ddd1461015c57806323b872dd1461016e575b600080fd5b6101236102c0565b6040516101309190610f0a565b60405180910390f35b61014c610147366004610f7b565b610352565b6040519015158152602001610130565b6002545b604051908152602001610130565b61014c61017c366004610fa5565b61036a565b60405160128152602001610130565b61014c61019e366004610f7b565b61038e565b61014c6101b1366004610fe1565b6103b0565b6101606101c4366004611068565b6001600160a01b031660009081526020819052604090205490565b6102067f000000000000000000000000000000000000000000000000000000000000000081565b6040516001600160a01b039091168152602001610130565b6101236103d1565b61014c610234366004610f7b565b6103e0565b61024c610247366004610fe1565b610460565b005b61014c61025c366004610f7b565b6104f8565b61016061026f36600461108a565b610506565b61016061028236600461108a565b610599565b6101606102953660046110a3565b6105e9565b61024c6102a836600461108a565b610614565b61024c6102bb36600461108a565b610787565b6060600380546102cf906110d6565b80601f01602080910402602001604051908101604052809291908181526020018280546102fb906110d6565b80156103485780601f1061031d57610100808354040283529160200191610348565b820191906000526020600020905b81548152906001019060200180831161032b57829003601f168201915b5050505050905090565b60003361036081858561082c565b5060019392505050565b600033610378858285610950565b6103838585856109c4565b506001949350505050565b6000336103608185856103a183836105e9565b6103ab9190611126565b61082c565b60006103bc85856104f8565b50843b15610383576103833386868686610b92565b6060600480546102cf906110d6565b600033816103ee82866105e9565b9050838110156104535760405162461bcd60e51b815260206004820152602560248201527f45524332303a2064656372656173656420616c6c6f77616e63652062656c6f77604482015264207a65726f60d81b60648201526084015b60405180910390fd5b610383828686840361082c565b336001600160a01b037f000000000000000000000000000000000000000000000000000000000000000016146104e85760405162461bcd60e51b815260206004820152602760248201527f53656e646572206d757374206265207374616b696e672064657269766174697660448201526632903a37b5b2b760c91b606482015260840161044a565b6104f28484610c00565b50505050565b6000336103608185856109c4565b60405163119c137760e31b8152600481018290526000907f00000000000000000000000000000000000000000000000000000000000000006001600160a01b031690638ce09bb8906024015b602060405180830381865afa15801561056f573d6000803e3d6000fd5b505050506040513d601f19601f82011682018060405250810190610593919061113e565b92915050565b604051631ae6f20560e31b8152600481018290526000907f00000000000000000000000000000000000000000000000000000000000000006001600160a01b03169063d737902890602401610552565b6001600160a01b03918216600090815260016020908152604080832093909416825291909152205490565b600081116106595760405162461bcd60e51b81526020600482015260126024820152710416d6f756e74206d757374206265203e20360741b604482015260640161044a565b604051631ae6f20560e31b8152600481018290526000907f00000000000000000000000000000000000000000000000000000000000000006001600160a01b03169063d737902890602401602060405180830381865afa1580156106c1573d6000803e3d6000fd5b505050506040513d601f19601f820116820180604052508101906106e5919061113e565b90506106f13383610cdd565b60405163a9059cbb60e01b8152336004820152602481018290527f00000000000000000000000000000000000000000000000000000000000000006001600160a01b03169063a9059cbb906044016020604051808303816000875af115801561075e573d6000803e3d6000fd5b505050506040513d601f19601f820116820180604052508101906107829190611157565b505050565b6040516323b872dd60e01b8152336004820152306024820152604481018290527f00000000000000000000000000000000000000000000000000000000000000006001600160a01b0316906323b872dd906064016020604051808303816000875af11580156107fa573d6000803e3d6000fd5b505050506040513d601f19601f8201168201806040525081019061081e9190611157565b506108293382610c00565b50565b6001600160a01b03831661088e5760405162461bcd60e51b8152602060048201526024808201527f45524332303a20617070726f76652066726f6d20746865207a65726f206164646044820152637265737360e01b606482015260840161044a565b6001600160a01b0382166108ef5760405162461bcd60e51b815260206004820152602260248201527f45524332303a20617070726f766520746f20746865207a65726f206164647265604482015261737360f01b606482015260840161044a565b6001600160a01b0383811660008181526001602090815260408083209487168084529482529182902085905590518481527f8c5be1e5ebec7d5bd14f71427d1e84f3dd0314c0f7b2291e5b200ac8c7c3b925910160405180910390a3505050565b600061095c84846105e9565b905060001981146104f257818110156109b75760405162461bcd60e51b815260206004820152601d60248201527f45524332303a20696e73756666696369656e7420616c6c6f77616e6365000000604482015260640161044a565b6104f2848484840361082c565b6001600160a01b038316610a285760405162461bcd60e51b815260206004820152602560248201527f45524332303a207472616e736665722066726f6d20746865207a65726f206164604482015264647265737360d81b606482015260840161044a565b6001600160a01b038216610a8a5760405162461bcd60e51b815260206004820152602360248201527f45524332303a207472616e7366657220746f20746865207a65726f206164647260448201526265737360e81b606482015260840161044a565b6001600160a01b03831660009081526020819052604090205481811015610b025760405162461bcd60e51b815260206004820152602660248201527f45524332303a207472616e7366657220616d6f756e7420657863656564732062604482015265616c616e636560d01b606482015260840161044a565b6001600160a01b03808516600090815260208190526040808220858503905591851681529081208054849290610b39908490611126565b92505081905550826001600160a01b0316846001600160a01b03167fddf252ad1be2c89b69c2b068fc378daa952ba7f163c4a11628f55a4df523b3ef84604051610b8591815260200190565b60405180910390a36104f2565b604051635260769b60e11b815284906001600160a01b0382169063a4c0ed3690610bc6908990889088908890600401611179565b600060405180830381600087803b158015610be057600080fd5b505af1158015610bf4573d6000803e3d6000fd5b50505050505050505050565b60008111610c455760405162461bcd60e51b81526020600482015260126024820152710416d6f756e74206d757374206265203e20360741b604482015260640161044a565b60405163119c137760e31b8152600481018290526000907f00000000000000000000000000000000000000000000000000000000000000006001600160a01b031690638ce09bb890602401602060405180830381865afa158015610cad573d6000803e3d6000fd5b505050506040513d601f19601f82011682018060405250810190610cd1919061113e565b90506107828382610e2b565b6001600160a01b038216610d3d5760405162461bcd60e51b815260206004820152602160248201527f45524332303a206275726e2066726f6d20746865207a65726f206164647265736044820152607360f81b606482015260840161044a565b6001600160a01b03821660009081526020819052604090205481811015610db15760405162461bcd60e51b815260206004820152602260248201527f45524332303a206275726e20616d6f756e7420657863656564732062616c616e604482015261636560f01b606482015260840161044a565b6001600160a01b0383166000908152602081905260408120838303905560028054849290610de09084906111c1565b90915550506040518281526000906001600160a01b038516907fddf252ad1be2c89b69c2b068fc378daa952ba7f163c4a11628f55a4df523b3ef9060200160405180910390a3505050565b6001600160a01b038216610e815760405162461bcd60e51b815260206004820152601f60248201527f45524332303a206d696e7420746f20746865207a65726f206164647265737300604482015260640161044a565b8060026000828254610e939190611126565b90915550506001600160a01b03821660009081526020819052604081208054839290610ec0908490611126565b90915550506040518181526001600160a01b038316906000907fddf252ad1be2c89b69c2b068fc378daa952ba7f163c4a11628f55a4df523b3ef9060200160405180910390a35050565b600060208083528351808285015260005b81811015610f3757858101830151858201604001528201610f1b565b81811115610f49576000604083870101525b50601f01601f1916929092016040019392505050565b80356001600160a01b0381168114610f7657600080fd5b919050565b60008060408385031215610f8e57600080fd5b610f9783610f5f565b946020939093013593505050565b600080600060608486031215610fba57600080fd5b610fc384610f5f565b9250610fd160208501610f5f565b9150604084013590509250925092565b60008060008060608587031215610ff757600080fd5b61100085610f5f565b935060208501359250604085013567ffffffffffffffff8082111561102457600080fd5b818701915087601f83011261103857600080fd5b81358181111561104757600080fd5b88602082850101111561105957600080fd5b95989497505060200194505050565b60006020828403121561107a57600080fd5b61108382610f5f565b9392505050565b60006020828403121561109c57600080fd5b5035919050565b600080604083850312156110b657600080fd5b6110bf83610f5f565b91506110cd60208401610f5f565b90509250929050565b600181811c908216806110ea57607f821691505b60208210810361110a57634e487b7160e01b600052602260045260246000fd5b50919050565b634e487b7160e01b600052601160045260246000fd5b6000821982111561113957611139611110565b500190565b60006020828403121561115057600080fd5b5051919050565b60006020828403121561116957600080fd5b8151801515811461108357600080fd5b6001600160a01b0385168152602081018490526060604082018190528101829052818360808301376000818301608090810191909152601f909201601f191601019392505050565b6000828210156111d3576111d3611110565b50039056fea2646970667358221220d43995d8d6877cc43aa16e95fc61acda62eae1b5ddbe8bd14f7e0d62de1b1ba764736f6c634300080f0033",
  "devdoc": {
    "kind": "dev",
    "methods": {
      "allowance(address,address)": {
        "details": "See {IERC20-allowance}."
      },
      "approve(address,uint256)": {
        "details": "See {IERC20-approve}. NOTE: If `amount` is the maximum `uint256`, the allowance is not updated on `transferFrom`. This is semantically equivalent to an infinite approval. Requirements: - `spender` cannot be the zero address."
      },
      "balanceOf(address)": {
        "details": "See {IERC20-balanceOf}."
      },
      "decimals()": {
        "details": "Returns the number of decimals used to get its user representation. For example, if `decimals` equals `2`, a balance of `505` tokens should be displayed to a user as `5.05` (`505 / 10 ** 2`). Tokens usually opt for a value of 18, imitating the relationship between Ether and Wei. This is the value {ERC20} uses, unless this function is overridden; NOTE: This information is only used for _display_ purposes: it in no way affects any of the arithmetic of the contract, including {IERC20-balanceOf} and {IERC20-transfer}."
      },
      "decreaseAllowance(address,uint256)": {
        "details": "Atomically decreases the allowance granted to `spender` by the caller. This is an alternative to {approve} that can be used as a mitigation for problems described in {IERC20-approve}. Emits an {Approval} event indicating the updated allowance. Requirements: - `spender` cannot be the zero address. - `spender` must have allowance for the caller of at least `subtractedValue`."
      },
      "getUnderlyingByWrapped(uint256)": {
        "params": {
          "_amount": "amount of wrapped tokens"
        },
        "returns": {
          "_0": "amount of unwrapped tokens"
        }
      },
      "getWrappedByUnderlying(uint256)": {
        "params": {
          "_amount": "amount of unwrapped tokens"
        },
        "returns": {
          "_0": "amount of wrapped tokens"
        }
      },
      "increaseAllowance(address,uint256)": {
        "details": "Atomically increases the allowance granted to `spender` by the caller. This is an alternative to {approve} that can be used as a mitigation for problems described in {IERC20-approve}. Emits an {Approval} event indicating the updated allowance. Requirements: - `spender` cannot be the zero address."
      },
      "name()": {
        "details": "Returns the name of the token."
      },
      "onTokenTransfer(address,uint256,bytes)": {
        "params": {
          "_sender": "of the token transfer",
          "_value": "of the token transfer*"
        }
      },
      "symbol()": {
        "details": "Returns the symbol of the token, usually a shorter version of the name."
      },
      "totalSupply()": {
        "details": "See {IERC20-totalSupply}."
      },
      "transfer(address,uint256)": {
        "details": "See {IERC20-transfer}. Requirements: - `to` cannot be the zero address. - the caller must have a balance of at least `amount`."
      },
      "transferFrom(address,address,uint256)": {
        "details": "See {IERC20-transferFrom}. Emits an {Approval} event indicating the updated allowance. This is not required by the EIP. See the note at the beginning of {ERC20}. NOTE: Does not update the allowance if the current allowance is the maximum `uint256`. Requirements: - `from` and `to` cannot be the zero address. - `from` must have a balance of at least `amount`. - the caller must have allowance for ``from``'s tokens of at least `amount`."
      },
      "unwrap(uint256)": {
        "params": {
          "_amount": "amount of wrapped tokens to unwrap"
        }
      },
      "wrap(uint256)": {
        "params": {
          "_amount": "amount of unwrapped tokens to wrap"
        }
      }
    },
    "title": "Wrapped Staking Derivative Token",
    "version": 1
  },
  "userdoc": {
    "kind": "user",
    "methods": {
      "getUnderlyingByWrapped(uint256)": {
        "notice": "Returns amount of unwrapped tokens for an amount of wrapped tokens"
      },
      "getWrappedByUnderlying(uint256)": {
        "notice": "Returns amount of wrapped tokens for an amount of unwrapped tokens"
      },
      "onTokenTransfer(address,uint256,bytes)": {
        "notice": "ERC677 implementation that proxies wrapping"
      },
      "unwrap(uint256)": {
        "notice": "unwraps tokens"
      },
      "wrap(uint256)": {
        "notice": "wraps tokens"
      }
    },
    "notice": "Wraps rebasing derivative tokens with a normal ERC20 token",
    "version": 1
  },
  "storageLayout": {
    "storage": [
      {
        "astId": 4355,
        "contract": "contracts/core/tokens/WrappedSDToken.sol:WrappedSDToken",
        "label": "_balances",
        "offset": 0,
        "slot": "0",
        "type": "t_mapping(t_address,t_uint256)"
      },
      {
        "astId": 4361,
        "contract": "contracts/core/tokens/WrappedSDToken.sol:WrappedSDToken",
        "label": "_allowances",
        "offset": 0,
        "slot": "1",
        "type": "t_mapping(t_address,t_mapping(t_address,t_uint256))"
      },
      {
        "astId": 4363,
        "contract": "contracts/core/tokens/WrappedSDToken.sol:WrappedSDToken",
        "label": "_totalSupply",
        "offset": 0,
        "slot": "2",
        "type": "t_uint256"
      },
      {
        "astId": 4365,
        "contract": "contracts/core/tokens/WrappedSDToken.sol:WrappedSDToken",
        "label": "_name",
        "offset": 0,
        "slot": "3",
        "type": "t_string_storage"
      },
      {
        "astId": 4367,
        "contract": "contracts/core/tokens/WrappedSDToken.sol:WrappedSDToken",
        "label": "_symbol",
        "offset": 0,
        "slot": "4",
        "type": "t_string_storage"
      }
    ],
    "types": {
      "t_address": {
        "encoding": "inplace",
        "label": "address",
        "numberOfBytes": "20"
      },
      "t_mapping(t_address,t_mapping(t_address,t_uint256))": {
        "encoding": "mapping",
        "key": "t_address",
        "label": "mapping(address => mapping(address => uint256))",
        "numberOfBytes": "32",
        "value": "t_mapping(t_address,t_uint256)"
      },
      "t_mapping(t_address,t_uint256)": {
        "encoding": "mapping",
        "key": "t_address",
        "label": "mapping(address => uint256)",
        "numberOfBytes": "32",
        "value": "t_uint256"
      },
      "t_string_storage": {
        "encoding": "bytes",
        "label": "string",
        "numberOfBytes": "32"
      },
      "t_uint256": {
        "encoding": "inplace",
        "label": "uint256",
        "numberOfBytes": "32"
      }
    }
  }
}