{
  "address": "0xBB102106c869CA23f3DdFe337018FD43C3b9FECD",
  "abi": [
    {
      "inputs": [
        {
          "internalType": "address",
          "name": "_controller",
          "type": "address"
        },
        {
          "internalType": "address",
          "name": "_token",
          "type": "address"
        }
      ],
      "stateMutability": "nonpayable",
      "type": "constructor"
    },
    {
      "anonymous": false,
      "inputs": [
        {
          "indexed": true,
          "internalType": "address",
          "name": "sender",
          "type": "address"
        },
        {
          "indexed": false,
          "internalType": "uint256",
          "name": "amountStaked",
          "type": "uint256"
        },
        {
          "indexed": false,
          "internalType": "uint256",
          "name": "amount",
          "type": "uint256"
        }
      ],
      "name": "DistributeRewards",
      "type": "event"
    },
    {
      "anonymous": false,
      "inputs": [
        {
          "indexed": true,
          "internalType": "address",
          "name": "account",
          "type": "address"
        },
        {
          "indexed": false,
          "internalType": "uint256",
          "name": "amount",
          "type": "uint256"
        }
      ],
      "name": "Withdraw",
      "type": "event"
    },
    {
      "inputs": [],
      "name": "controller",
      "outputs": [
        {
          "internalType": "contract IRewardsPoolController",
          "name": "",
          "type": "address"
        }
      ],
      "stateMutability": "view",
      "type": "function"
    },
    {
      "inputs": [],
      "name": "distributeRewards",
      "outputs": [],
      "stateMutability": "nonpayable",
      "type": "function"
    },
    {
      "inputs": [
        {
          "internalType": "address",
          "name": "",
          "type": "address"
        },
        {
          "internalType": "uint256",
          "name": "",
          "type": "uint256"
        },
        {
          "internalType": "bytes",
          "name": "",
          "type": "bytes"
        }
      ],
      "name": "onTokenTransfer",
      "outputs": [],
      "stateMutability": "nonpayable",
      "type": "function"
    },
    {
      "inputs": [],
      "name": "rewardPerToken",
      "outputs": [
        {
          "internalType": "uint256",
          "name": "",
          "type": "uint256"
        }
      ],
      "stateMutability": "view",
      "type": "function"
    },
    {
      "inputs": [],
      "name": "token",
      "outputs": [
        {
          "internalType": "contract IERC677",
          "name": "",
          "type": "address"
        }
      ],
      "stateMutability": "view",
      "type": "function"
    },
    {
      "inputs": [],
      "name": "totalRewards",
      "outputs": [
        {
          "internalType": "uint256",
          "name": "",
          "type": "uint256"
        }
      ],
      "stateMutability": "view",
      "type": "function"
    },
    {
      "inputs": [
        {
          "internalType": "address",
          "name": "_account",
          "type": "address"
        }
      ],
      "name": "updateReward",
      "outputs": [],
      "stateMutability": "nonpayable",
      "type": "function"
    },
    {
      "inputs": [
        {
          "internalType": "address",
          "name": "",
          "type": "address"
        }
      ],
      "name": "userRewardPerTokenPaid",
      "outputs": [
        {
          "internalType": "uint256",
          "name": "",
          "type": "uint256"
        }
      ],
      "stateMutability": "view",
      "type": "function"
    },
    {
      "inputs": [
        {
          "internalType": "address",
          "name": "",
          "type": "address"
        }
      ],
      "name": "userRewards",
      "outputs": [
        {
          "internalType": "uint256",
          "name": "",
          "type": "uint256"
        }
      ],
      "stateMutability": "view",
      "type": "function"
    },
    {
      "inputs": [],
      "name": "withdraw",
      "outputs": [],
      "stateMutability": "nonpayable",
      "type": "function"
    },
    {
      "inputs": [
        {
          "internalType": "address",
          "name": "_account",
          "type": "address"
        }
      ],
      "name": "withdraw",
      "outputs": [],
      "stateMutability": "nonpayable",
      "type": "function"
    },
    {
      "inputs": [
        {
          "internalType": "address",
          "name": "_account",
          "type": "address"
        }
      ],
      "name": "withdrawableRewards",
      "outputs": [
        {
          "internalType": "uint256",
          "name": "",
          "type": "uint256"
        }
      ],
      "stateMutability": "view",
      "type": "function"
    }
  ],
  "transactionHash": "0xb9a92c489fcc052297152e0dc0bc04e6d113459210924bc70b39b02487cb348f",
  "args": [
    "0xA5F9D440028332C06338DC3289a9CBfA42264Bd8",
    "0x63309E64Bc20704D6e4f411aAC3de5E0345F6d69"
  ],
  "numDeployments": 1,
  "solcInputHash": "1488552f6849c7a9bc332dc32dd75dca",
  "bytecode": "0x60c060405234801561001057600080fd5b50604051610ec5380380610ec583398101604081905261002f91610062565b6001600160a01b0391821660a05216608052610095565b80516001600160a01b038116811461005d57600080fd5b919050565b6000806040838503121561007557600080fd5b61007e83610046565b915061008c60208401610046565b90509250929050565b60805160a051610dd36100f2600039600081816101810152818161023a0152818161033c015281816104400152818161060701526107ef0152600081816101c001528181610542015281816106ac015261077d0152610dd36000f3fe608060405234801561001057600080fd5b50600436106100b45760003560e01c80636f4a2cd0116100715780636f4a2cd0146101385780638b87634714610140578063a4c0ed3614610160578063cd3daf9d14610173578063f77c47911461017c578063fc0c546a146101bb57600080fd5b80630660f1e8146100b95780630e15561a146100ec5780630f14b4d6146100f55780633ccfd60b1461010857806351cff8d914610112578063632447c914610125575b600080fd5b6100d96100c7366004610bbf565b60036020526000908152604090205481565b6040519081526020015b60405180910390f35b6100d960015481565b6100d9610103366004610bbf565b6101e2565b6101106102c9565b005b610110610120366004610bbf565b610331565b610110610133366004610bbf565b6103bc565b61011061043c565b6100d961014e366004610bbf565b60026020526000908152604090205481565b61011061016e366004610bda565b6106a1565b6100d960005481565b6101a37f000000000000000000000000000000000000000000000000000000000000000081565b6040516001600160a01b0390911681526020016100e3565b6101a37f000000000000000000000000000000000000000000000000000000000000000081565b6001600160a01b03811660009081526003602090815260408083205460029092528220548254670de0b6b3a76400009161021b91610c77565b6040516326201f6160e21b81526001600160a01b0386811660048301527f000000000000000000000000000000000000000000000000000000000000000016906398807d8490602401602060405180830381865afa158015610281573d6000803e3d6000fd5b505050506040513d601f19601f820116820180604052508101906102a59190610c8e565b6102af9190610ca7565b6102b99190610cc6565b6102c39190610ce8565b92915050565b60006102d4336101e2565b9050600081116103245760405162461bcd60e51b81526020600482015260166024820152754e6f207265776172647320746f20776974686472617760501b60448201526064015b60405180910390fd5b61032e3382610720565b50565b336001600160a01b037f0000000000000000000000000000000000000000000000000000000000000000161461039b5760405162461bcd60e51b815260206004820152600f60248201526e436f6e74726f6c6c6572206f6e6c7960881b604482015260640161031b565b60006103a6826101e2565b905080156103b8576103b88282610720565b5050565b6001600160a01b0381166000908152600360205260408120546103de836101e2565b6103e89190610c77565b9050801561041e576001600160a01b03821660009081526003602052604081208054839290610418908490610ce8565b90915550505b50600080546001600160a01b03909216815260026020526040902055565b60007f00000000000000000000000000000000000000000000000000000000000000006001600160a01b031663817b1cd26040518163ffffffff1660e01b8152600401602060405180830381865afa15801561049c573d6000803e3d6000fd5b505050506040513d601f19601f820116820180604052508101906104c09190610c8e565b1161051e5760405162461bcd60e51b815260206004820152602860248201527f43616e6e6f742064697374726962757465207768656e206e6f7468696e6720696044820152671cc81cdd185ad95960c21b606482015260840161031b565b6001546040516370a0823160e01b8152306004820152600091906001600160a01b037f000000000000000000000000000000000000000000000000000000000000000016906370a0823190602401602060405180830381865afa158015610589573d6000803e3d6000fd5b505050506040513d601f19601f820116820180604052508101906105ad9190610c8e565b6105b79190610c77565b905080600160008282546105cb9190610ce8565b909155506105da9050816107eb565b336001600160a01b03167f3a748d40c2a4d1652cf9e6faa37c5e347459597272d02843e21e96eb956423727f00000000000000000000000000000000000000000000000000000000000000006001600160a01b031663817b1cd26040518163ffffffff1660e01b8152600401602060405180830381865afa158015610663573d6000803e3d6000fd5b505050506040513d601f19601f820116820180604052508101906106879190610c8e565b60408051918252602082018590520160405180910390a250565b336001600160a01b037f000000000000000000000000000000000000000000000000000000000000000016146107125760405162461bcd60e51b815260206004820152601660248201527527b7363c9031b0b63630b1363290313c903a37b5b2b760511b604482015260640161031b565b61071a61043c565b50505050565b610729826103bc565b6001600160a01b03821660009081526003602052604081208054839290610751908490610c77565b92505081905550806001600082825461076a9190610c77565b909155506107a490506001600160a01b037f00000000000000000000000000000000000000000000000000000000000000001683836108f7565b816001600160a01b03167f884edad9ce6fa2440d8a54cc123490eb96d2768479d49ff9c7366125a9424364826040516107df91815260200190565b60405180910390a25050565b60007f00000000000000000000000000000000000000000000000000000000000000006001600160a01b031663817b1cd26040518163ffffffff1660e01b8152600401602060405180830381865afa15801561084b573d6000803e3d6000fd5b505050506040513d601f19601f8201168201806040525081019061086f9190610c8e565b9050600081116108c15760405162461bcd60e51b815260206004820152601960248201527f5374616b656420616d6f756e74206d757374206265203e203000000000000000604482015260640161031b565b806108d483670de0b6b3a7640000610ca7565b6108de9190610cc6565b6000808282546108ee9190610ce8565b90915550505050565b604080516001600160a01b038416602482015260448082018490528251808303909101815260649091019091526020810180516001600160e01b031663a9059cbb60e01b17905261094990849061094e565b505050565b60006109a3826040518060400160405280602081526020017f5361666545524332303a206c6f772d6c6576656c2063616c6c206661696c6564815250856001600160a01b0316610a209092919063ffffffff16565b80519091501561094957808060200190518101906109c19190610d00565b6109495760405162461bcd60e51b815260206004820152602a60248201527f5361666545524332303a204552433230206f7065726174696f6e20646964206e6044820152691bdd081cdd58d8d9595960b21b606482015260840161031b565b6060610a2f8484600085610a39565b90505b9392505050565b606082471015610a9a5760405162461bcd60e51b815260206004820152602660248201527f416464726573733a20696e73756666696369656e742062616c616e636520666f6044820152651c8818d85b1b60d21b606482015260840161031b565b6001600160a01b0385163b610af15760405162461bcd60e51b815260206004820152601d60248201527f416464726573733a2063616c6c20746f206e6f6e2d636f6e7472616374000000604482015260640161031b565b600080866001600160a01b03168587604051610b0d9190610d4e565b60006040518083038185875af1925050503d8060008114610b4a576040519150601f19603f3d011682016040523d82523d6000602084013e610b4f565b606091505b5091509150610b5f828286610b6a565b979650505050505050565b60608315610b79575081610a32565b825115610b895782518084602001fd5b8160405162461bcd60e51b815260040161031b9190610d6a565b80356001600160a01b0381168114610bba57600080fd5b919050565b600060208284031215610bd157600080fd5b610a3282610ba3565b60008060008060608587031215610bf057600080fd5b610bf985610ba3565b935060208501359250604085013567ffffffffffffffff80821115610c1d57600080fd5b818701915087601f830112610c3157600080fd5b813581811115610c4057600080fd5b886020828501011115610c5257600080fd5b95989497505060200194505050565b634e487b7160e01b600052601160045260246000fd5b600082821015610c8957610c89610c61565b500390565b600060208284031215610ca057600080fd5b5051919050565b6000816000190483118215151615610cc157610cc1610c61565b500290565b600082610ce357634e487b7160e01b600052601260045260246000fd5b500490565b60008219821115610cfb57610cfb610c61565b500190565b600060208284031215610d1257600080fd5b81518015158114610a3257600080fd5b60005b83811015610d3d578181015183820152602001610d25565b8381111561071a5750506000910152565b60008251610d60818460208701610d22565b9190910192915050565b6020815260008251806020840152610d89816040850160208701610d22565b601f01601f1916919091016040019291505056fea26469706673582212209bfe513cfed369d381dc53f728f17960ce033f3fed1633cb0c5798ad41b170a664736f6c634300080f0033",
  "devdoc": {
    "details": "rewards can only be positive (user balances can only increase)",
    "kind": "dev",
    "methods": {
      "updateReward(address)": {
        "params": {
          "_account": "account to update for*"
        }
      },
      "withdraw(address)": {
        "details": "used by PoolOwners",
        "params": {
          "_account": "account to withdraw for*"
        }
      },
      "withdrawableRewards(address)": {
        "params": {
          "_account": "account to return rewards for"
        },
        "returns": {
          "_0": "account's total unclaimed rewards*"
        }
      }
    },
    "title": "RewardsPool",
    "version": 1
  },
  "userdoc": {
    "kind": "user",
    "methods": {
      "distributeRewards()": {
        "notice": "distributes new rewards that have been deposited*"
      },
      "onTokenTransfer(address,uint256,bytes)": {
        "notice": "ERC677 implementation that proxies reward distribution*"
      },
      "updateReward(address)": {
        "notice": "updates an account's principal reward balance"
      },
      "withdraw()": {
        "notice": "withdraws an account's earned rewards*"
      },
      "withdraw(address)": {
        "notice": "withdraws an account's earned rewards"
      },
      "withdrawableRewards(address)": {
        "notice": "returns an account's total withdrawable rewards (principal balance + newly earned rewards)"
      }
    },
    "notice": "Handles reward distribution for a single asset",
    "version": 1
  },
  "storageLayout": {
    "storage": [
      {
        "astId": 16539,
        "contract": "contracts/core/RewardsPool.sol:RewardsPool",
        "label": "rewardPerToken",
        "offset": 0,
        "slot": "0",
        "type": "t_uint256"
      },
      {
        "astId": 16541,
        "contract": "contracts/core/RewardsPool.sol:RewardsPool",
        "label": "totalRewards",
        "offset": 0,
        "slot": "1",
        "type": "t_uint256"
      },
      {
        "astId": 16545,
        "contract": "contracts/core/RewardsPool.sol:RewardsPool",
        "label": "userRewardPerTokenPaid",
        "offset": 0,
        "slot": "2",
        "type": "t_mapping(t_address,t_uint256)"
      },
      {
        "astId": 16549,
        "contract": "contracts/core/RewardsPool.sol:RewardsPool",
        "label": "userRewards",
        "offset": 0,
        "slot": "3",
        "type": "t_mapping(t_address,t_uint256)"
      }
    ],
    "types": {
      "t_address": {
        "encoding": "inplace",
        "label": "address",
        "numberOfBytes": "20"
      },
      "t_mapping(t_address,t_uint256)": {
        "encoding": "mapping",
        "key": "t_address",
        "label": "mapping(address => uint256)",
        "numberOfBytes": "32",
        "value": "t_uint256"
      },
      "t_uint256": {
        "encoding": "inplace",
        "label": "uint256",
        "numberOfBytes": "32"
      }
    }
  }
}