{
  "address": "0x579d9aBcF8A4A1F86076c4d93ad0b09E62B86470",
  "abi": [
    {
      "inputs": [
        {
          "internalType": "address",
          "name": "_lplToken",
          "type": "address"
        },
        {
          "internalType": "address",
          "name": "_sdlToken",
          "type": "address"
        }
      ],
      "stateMutability": "nonpayable",
      "type": "constructor"
    },
    {
      "anonymous": false,
      "inputs": [
        {
          "indexed": true,
          "internalType": "address",
          "name": "sender",
          "type": "address"
        },
        {
          "indexed": false,
          "internalType": "uint256",
          "name": "amount",
          "type": "uint256"
        }
      ],
      "name": "LPLMigrated",
      "type": "event"
    },
    {
      "inputs": [],
      "name": "MIGRATION_RATIO",
      "outputs": [
        {
          "internalType": "uint256",
          "name": "",
          "type": "uint256"
        }
      ],
      "stateMutability": "view",
      "type": "function"
    },
    {
      "inputs": [],
      "name": "lplToken",
      "outputs": [
        {
          "internalType": "address",
          "name": "",
          "type": "address"
        }
      ],
      "stateMutability": "view",
      "type": "function"
    },
    {
      "inputs": [
        {
          "internalType": "address",
          "name": "_sender",
          "type": "address"
        },
        {
          "internalType": "uint256",
          "name": "_value",
          "type": "uint256"
        },
        {
          "internalType": "bytes",
          "name": "",
          "type": "bytes"
        }
      ],
      "name": "onTokenTransfer",
      "outputs": [],
      "stateMutability": "nonpayable",
      "type": "function"
    },
    {
      "inputs": [],
      "name": "sdlToken",
      "outputs": [
        {
          "internalType": "address",
          "name": "",
          "type": "address"
        }
      ],
      "stateMutability": "view",
      "type": "function"
    }
  ],
  "transactionHash": "0xd234da8e34e727e13820c0a4eb2153c4a4b3a6b22a3435c850c45373119cede2",
  "args": [
    "0xD24498c10fF699F12c80DAc4d94C13E0dF38b78b",
    "0xeAF59ece1D1E900E3b3367f22b2E4EE12efaa385"
  ],
  "numDeployments": 1,
  "solcInputHash": "716f7ec369ec5237ed83445c47c46fa6",
  "bytecode": "0x608060405234801561001057600080fd5b506040516106da3803806106da83398101604081905261002f9161007c565b600080546001600160a01b039384166001600160a01b031991821617909155600180549290931691161790556100af565b80516001600160a01b038116811461007757600080fd5b919050565b6000806040838503121561008f57600080fd5b61009883610060565b91506100a660208401610060565b90509250929050565b61061c806100be6000396000f3fe608060405234801561001057600080fd5b506004361061004c5760003560e01c80639b4140cc14610051578063a1a9328614610081578063a4c0ed3614610097578063a704a91d146100ac575b600080fd5b600154610064906001600160a01b031681565b6040516001600160a01b0390911681526020015b60405180910390f35b610089600281565b604051908152602001610078565b6100aa6100a536600461044a565b6100bf565b005b600054610064906001600160a01b031681565b6000546001600160a01b0316331461011e5760405162461bcd60e51b815260206004820152601860248201527f53656e646572206d757374206265204c504c20746f6b656e000000000000000060448201526064015b60405180910390fd5b6101408361012d600285610523565b6001546001600160a01b03169190610188565b826001600160a01b03167f8781dc15ca660c2fe476167a62e62b0db452cb5c609a61406fffaa7c9e120d148360405161017b91815260200190565b60405180910390a2505050565b604080516001600160a01b038416602482015260448082018490528251808303909101815260649091019091526020810180516001600160e01b031663a9059cbb60e01b1790526101da9084906101df565b505050565b6000610234826040518060400160405280602081526020017f5361666545524332303a206c6f772d6c6576656c2063616c6c206661696c6564815250856001600160a01b03166102b19092919063ffffffff16565b8051909150156101da57808060200190518101906102529190610545565b6101da5760405162461bcd60e51b815260206004820152602a60248201527f5361666545524332303a204552433230206f7065726174696f6e20646964206e6044820152691bdd081cdd58d8d9595960b21b6064820152608401610115565b60606102c084846000856102ca565b90505b9392505050565b60608247101561032b5760405162461bcd60e51b815260206004820152602660248201527f416464726573733a20696e73756666696369656e742062616c616e636520666f6044820152651c8818d85b1b60d21b6064820152608401610115565b6001600160a01b0385163b6103825760405162461bcd60e51b815260206004820152601d60248201527f416464726573733a2063616c6c20746f206e6f6e2d636f6e74726163740000006044820152606401610115565b600080866001600160a01b0316858760405161039e9190610597565b60006040518083038185875af1925050503d80600081146103db576040519150601f19603f3d011682016040523d82523d6000602084013e6103e0565b606091505b50915091506103f08282866103fb565b979650505050505050565b6060831561040a5750816102c3565b82511561041a5782518084602001fd5b8160405162461bcd60e51b815260040161011591906105b3565b634e487b7160e01b600052604160045260246000fd5b60008060006060848603121561045f57600080fd5b83356001600160a01b038116811461047657600080fd5b925060208401359150604084013567ffffffffffffffff8082111561049a57600080fd5b818601915086601f8301126104ae57600080fd5b8135818111156104c0576104c0610434565b604051601f8201601f19908116603f011681019083821181831017156104e8576104e8610434565b8160405282815289602084870101111561050157600080fd5b8260208601602083013760006020848301015280955050505050509250925092565b60008261054057634e487b7160e01b600052601260045260246000fd5b500490565b60006020828403121561055757600080fd5b815180151581146102c357600080fd5b60005b8381101561058257818101518382015260200161056a565b83811115610591576000848401525b50505050565b600082516105a9818460208701610567565b9190910192915050565b60208152600082518060208401526105d2816040850160208701610567565b601f01601f1916919091016040019291505056fea26469706673582212204dcf33a36225f0e929ba1a7cc48239ce49a8f28e8488c863325d184aab71c8b064736f6c634300080f0033",
  "devdoc": {
    "details": "Migrates LPL tokens to SDL",
    "kind": "dev",
    "methods": {
      "onTokenTransfer(address,uint256,bytes)": {
        "details": "swaps LPL tokens for SDL tokens",
        "params": {
          "_sender": "address that is migrating",
          "_value": "amount to migrate*"
        }
      }
    },
    "title": "LPL Migration",
    "version": 1
  },
  "userdoc": {
    "kind": "user",
    "methods": {},
    "version": 1
  },
  "storageLayout": {
    "storage": [
      {
        "astId": 22529,
        "contract": "contracts/core/tokens/LPLMigration.sol:LPLMigration",
        "label": "lplToken",
        "offset": 0,
        "slot": "0",
        "type": "t_address"
      },
      {
        "astId": 22531,
        "contract": "contracts/core/tokens/LPLMigration.sol:LPLMigration",
        "label": "sdlToken",
        "offset": 0,
        "slot": "1",
        "type": "t_address"
      }
    ],
    "types": {
      "t_address": {
        "encoding": "inplace",
        "label": "address",
        "numberOfBytes": "20"
      }
    }
  }
}