{
  "address": "0x0051f643c74c7e0B0200405120126C4ec8b80957",
  "abi": [
    {
      "inputs": [
        {
          "internalType": "address",
          "name": "_poolOwners",
          "type": "address"
        },
        {
          "internalType": "address",
          "name": "_rewardsToken",
          "type": "address"
        },
        {
          "internalType": "string",
          "name": "_dTokenName",
          "type": "string"
        },
        {
          "internalType": "string",
          "name": "_dTokenSymbol",
          "type": "string"
        }
      ],
      "stateMutability": "nonpayable",
      "type": "constructor"
    },
    {
      "anonymous": false,
      "inputs": [
        {
          "indexed": true,
          "internalType": "address",
          "name": "owner",
          "type": "address"
        },
        {
          "indexed": true,
          "internalType": "address",
          "name": "spender",
          "type": "address"
        },
        {
          "indexed": false,
          "internalType": "uint256",
          "name": "value",
          "type": "uint256"
        }
      ],
      "name": "Approval",
      "type": "event"
    },
    {
      "anonymous": false,
      "inputs": [
        {
          "indexed": true,
          "internalType": "address",
          "name": "sender",
          "type": "address"
        },
        {
          "indexed": false,
          "internalType": "uint256",
          "name": "amountStaked",
          "type": "uint256"
        },
        {
          "indexed": false,
          "internalType": "uint256",
          "name": "amount",
          "type": "uint256"
        }
      ],
      "name": "RewardDistributed",
      "type": "event"
    },
    {
      "anonymous": false,
      "inputs": [
        {
          "indexed": true,
          "internalType": "address",
          "name": "from",
          "type": "address"
        },
        {
          "indexed": true,
          "internalType": "address",
          "name": "to",
          "type": "address"
        },
        {
          "indexed": false,
          "internalType": "uint256",
          "name": "value",
          "type": "uint256"
        }
      ],
      "name": "Transfer",
      "type": "event"
    },
    {
      "anonymous": false,
      "inputs": [
        {
          "indexed": true,
          "internalType": "address",
          "name": "user",
          "type": "address"
        },
        {
          "indexed": false,
          "internalType": "uint256",
          "name": "amount",
          "type": "uint256"
        }
      ],
      "name": "Withdrawn",
      "type": "event"
    },
    {
      "inputs": [
        {
          "internalType": "address",
          "name": "owner",
          "type": "address"
        },
        {
          "internalType": "address",
          "name": "spender",
          "type": "address"
        }
      ],
      "name": "allowance",
      "outputs": [
        {
          "internalType": "uint256",
          "name": "",
          "type": "uint256"
        }
      ],
      "stateMutability": "view",
      "type": "function"
    },
    {
      "inputs": [
        {
          "internalType": "address",
          "name": "spender",
          "type": "address"
        },
        {
          "internalType": "uint256",
          "name": "amount",
          "type": "uint256"
        }
      ],
      "name": "approve",
      "outputs": [
        {
          "internalType": "bool",
          "name": "",
          "type": "bool"
        }
      ],
      "stateMutability": "nonpayable",
      "type": "function"
    },
    {
      "inputs": [
        {
          "internalType": "address",
          "name": "_account",
          "type": "address"
        }
      ],
      "name": "balanceOf",
      "outputs": [
        {
          "internalType": "uint256",
          "name": "",
          "type": "uint256"
        }
      ],
      "stateMutability": "view",
      "type": "function"
    },
    {
      "inputs": [],
      "name": "decimals",
      "outputs": [
        {
          "internalType": "uint256",
          "name": "",
          "type": "uint256"
        }
      ],
      "stateMutability": "view",
      "type": "function"
    },
    {
      "inputs": [],
      "name": "distributeRewards",
      "outputs": [],
      "stateMutability": "nonpayable",
      "type": "function"
    },
    {
      "inputs": [],
      "name": "distributedRewards",
      "outputs": [
        {
          "internalType": "uint256",
          "name": "",
          "type": "uint256"
        }
      ],
      "stateMutability": "view",
      "type": "function"
    },
    {
      "inputs": [],
      "name": "name",
      "outputs": [
        {
          "internalType": "string",
          "name": "",
          "type": "string"
        }
      ],
      "stateMutability": "view",
      "type": "function"
    },
    {
      "inputs": [
        {
          "internalType": "address",
          "name": "_sender",
          "type": "address"
        },
        {
          "internalType": "uint256",
          "name": "_value",
          "type": "uint256"
        },
        {
          "internalType": "bytes",
          "name": "",
          "type": "bytes"
        }
      ],
      "name": "onTokenTransfer",
      "outputs": [],
      "stateMutability": "nonpayable",
      "type": "function"
    },
    {
      "inputs": [],
      "name": "poolOwners",
      "outputs": [
        {
          "internalType": "address",
          "name": "",
          "type": "address"
        }
      ],
      "stateMutability": "view",
      "type": "function"
    },
    {
      "inputs": [],
      "name": "rewardPerToken",
      "outputs": [
        {
          "internalType": "uint256",
          "name": "",
          "type": "uint256"
        }
      ],
      "stateMutability": "view",
      "type": "function"
    },
    {
      "inputs": [],
      "name": "rewardsToken",
      "outputs": [
        {
          "internalType": "contract IERC677",
          "name": "",
          "type": "address"
        }
      ],
      "stateMutability": "view",
      "type": "function"
    },
    {
      "inputs": [],
      "name": "stakingDerivative",
      "outputs": [
        {
          "internalType": "contract IERC677",
          "name": "",
          "type": "address"
        }
      ],
      "stateMutability": "view",
      "type": "function"
    },
    {
      "inputs": [],
      "name": "symbol",
      "outputs": [
        {
          "internalType": "string",
          "name": "",
          "type": "string"
        }
      ],
      "stateMutability": "view",
      "type": "function"
    },
    {
      "inputs": [],
      "name": "totalSupply",
      "outputs": [
        {
          "internalType": "uint256",
          "name": "",
          "type": "uint256"
        }
      ],
      "stateMutability": "view",
      "type": "function"
    },
    {
      "inputs": [
        {
          "internalType": "address",
          "name": "recipient",
          "type": "address"
        },
        {
          "internalType": "uint256",
          "name": "amount",
          "type": "uint256"
        }
      ],
      "name": "transfer",
      "outputs": [
        {
          "internalType": "bool",
          "name": "",
          "type": "bool"
        }
      ],
      "stateMutability": "nonpayable",
      "type": "function"
    },
    {
      "inputs": [
        {
          "internalType": "address",
          "name": "_to",
          "type": "address"
        },
        {
          "internalType": "uint256",
          "name": "_value",
          "type": "uint256"
        },
        {
          "internalType": "bytes",
          "name": "_data",
          "type": "bytes"
        }
      ],
      "name": "transferAndCall",
      "outputs": [
        {
          "internalType": "bool",
          "name": "success",
          "type": "bool"
        }
      ],
      "stateMutability": "nonpayable",
      "type": "function"
    },
    {
      "inputs": [
        {
          "internalType": "address",
          "name": "sender",
          "type": "address"
        },
        {
          "internalType": "address",
          "name": "recipient",
          "type": "address"
        },
        {
          "internalType": "uint256",
          "name": "amount",
          "type": "uint256"
        }
      ],
      "name": "transferFrom",
      "outputs": [
        {
          "internalType": "bool",
          "name": "",
          "type": "bool"
        }
      ],
      "stateMutability": "nonpayable",
      "type": "function"
    },
    {
      "inputs": [
        {
          "internalType": "address",
          "name": "_account",
          "type": "address"
        }
      ],
      "name": "updateReward",
      "outputs": [],
      "stateMutability": "nonpayable",
      "type": "function"
    },
    {
      "inputs": [
        {
          "internalType": "address",
          "name": "",
          "type": "address"
        }
      ],
      "name": "userRewardPerTokenPaid",
      "outputs": [
        {
          "internalType": "uint256",
          "name": "",
          "type": "uint256"
        }
      ],
      "stateMutability": "view",
      "type": "function"
    },
    {
      "inputs": [
        {
          "internalType": "uint256",
          "name": "_amount",
          "type": "uint256"
        }
      ],
      "name": "withdraw",
      "outputs": [],
      "stateMutability": "nonpayable",
      "type": "function"
    },
    {
      "inputs": [
        {
          "internalType": "address",
          "name": "_account",
          "type": "address"
        }
      ],
      "name": "withdraw",
      "outputs": [],
      "stateMutability": "nonpayable",
      "type": "function"
    }
  ],
  "transactionHash": "0x112c70aac354614576422b09a3402e84969a597a93e41fb09b80ada1f75bc25f",
  "args": [
    "0xf4BC57b78c4f6B05Af601A30E58490dd2FDf025E",
    "0xDF706cfaaF517d62237FE1d1e815f3c0438786bA",
    "LinkPool Owners LINK",
    "lpoLINK"
  ],
  "numDeployments": 1,
  "solcInputHash": "0a37d7b84716f05cf659a85de2a0982e",
  "bytecode": "0x60806040523480156200001157600080fd5b5060405162001be938038062001be98339810160408190526200003491620001a7565b838383838181818160036200004a8382620002c6565b506004620000598282620002c6565b505060058054601260ff19909116179055505060016006555050600880546001600160a01b03199081166001600160a01b03948516179091556007805482169484169490941790935550600b80549092169516949094179093555062000392915050565b80516001600160a01b0381168114620000d557600080fd5b919050565b634e487b7160e01b600052604160045260246000fd5b600082601f8301126200010257600080fd5b81516001600160401b03808211156200011f576200011f620000da565b604051601f8301601f19908116603f011681019082821181831017156200014a576200014a620000da565b816040528381526020925086838588010111156200016757600080fd5b600091505b838210156200018b57858201830151818301840152908201906200016c565b838211156200019d5760008385830101525b9695505050505050565b60008060008060808587031215620001be57600080fd5b620001c985620000bd565b9350620001d960208601620000bd565b60408601519093506001600160401b0380821115620001f757600080fd5b6200020588838901620000f0565b935060608701519150808211156200021c57600080fd5b506200022b87828801620000f0565b91505092959194509250565b600181811c908216806200024c57607f821691505b6020821081036200026d57634e487b7160e01b600052602260045260246000fd5b50919050565b601f821115620002c157600081815260208120601f850160051c810160208610156200029c5750805b601f850160051c820191505b81811015620002bd57828155600101620002a8565b5050505b505050565b81516001600160401b03811115620002e257620002e2620000da565b620002fa81620002f3845462000237565b8462000273565b602080601f831160018114620003325760008415620003195750858301515b600019600386901b1c1916600185901b178555620002bd565b600085815260208120601f198616915b82811015620003635788860151825594840194600190910190840162000342565b5085821015620003825787850151600019600388901b60f8161c191681555b5050505050600190811b01905550565b61184780620003a26000396000f3fe608060405234801561001057600080fd5b50600436106101375760003560e01c80636f4a2cd0116100b8578063a9059cbb1161007c578063a9059cbb1461027c578063c375fcfa1461028f578063cd3daf9d146102a2578063d1af0c7d146102ab578063dd62ed3e146102be578063f3e14f1e146102f757600080fd5b80636f4a2cd01461022657806370a082311461022e5780638b8763471461024157806395d89b4114610261578063a4c0ed361461026957600080fd5b8063313ce567116100ff578063313ce567146101b75780634000aea0146101c257806351cff8d9146101d5578063632447c9146101e857806369b78772146101fb57600080fd5b806306fdde031461013c578063095ea7b31461015a57806318160ddd1461017d57806323b872dd1461018f5780632e1a7d4d146101a2575b600080fd5b610144610300565b60405161015191906114d8565b60405180910390f35b61016d610168366004611527565b610392565b6040519015158152602001610151565b6002545b604051908152602001610151565b61016d61019d366004611551565b6103a8565b6101b56101b036600461158d565b610484565b005b60055460ff16610181565b61016d6101d03660046115a6565b6104be565b6101b56101e336600461162d565b6104e9565b6101b56101f636600461162d565b6105fd565b60075461020e906001600160a01b031681565b6040516001600160a01b039091168152602001610151565b6101b5610635565b61018161023c36600461162d565b61085b565b61018161024f36600461162d565b600a6020526000908152604090205481565b610144610925565b6101b56102773660046115a6565b610934565b61016d61028a366004611527565b6109c8565b600b5461020e906001600160a01b031681565b61018160095481565b60085461020e906001600160a01b031681565b6101816102cc366004611648565b6001600160a01b03918216600090815260016020908152604080832093909416825291909152205490565b610181600c5481565b60606003805461030f9061167b565b80601f016020809104026020016040519081016040528092919081815260200182805461033b9061167b565b80156103885780601f1061035d57610100808354040283529160200191610388565b820191906000526020600020905b81548152906001019060200180831161036b57829003601f168201915b5050505050905090565b600061039f3384846109d5565b50600192915050565b60006103b5848484610afa565b6001600160a01b038416600090815260016020908152604080832033845290915290205482111561043e5760405162461bcd60e51b815260206004820152602860248201527f45524332303a207472616e7366657220616d6f756e74206578636565647320616044820152676c6c6f77616e636560c01b60648201526084015b60405180910390fd5b6001600160a01b0384166000908152600160209081526040808320338085529252909120546104799186916104749086906116cb565b6109d5565b5060015b9392505050565b8060018101610499576104963361085b565b90505b80600c60008282546104ab91906116cb565b909155506104ba905081610b13565b5050565b60006104ca85856109c8565b50843b156104de576104de85858585610b5b565b506001949350505050565b60026006540361050b5760405162461bcd60e51b8152600401610435906116e2565b6002600655600b546001600160a01b0316331461055c5760405162461bcd60e51b815260206004820152600f60248201526e506f6f6c4f776e657273206f6e6c7960881b6044820152606401610435565b60006105678261085b565b905080156105f45761057882610bc8565b6105828282610c26565b80600c600082825461059491906116cb565b90915550506008546105b0906001600160a01b03168383610d8d565b816001600160a01b03167f7084f5476618d8e60b11ef0d7d3f06914655adb8793e28ff7f018d4c76d505d5826040516105eb91815260200190565b60405180910390a25b50506001600655565b60026006540361061f5760405162461bcd60e51b8152600401610435906116e2565b600260065561062d81610bc8565b506001600655565b600754604080516318160ddd60e01b815290516000926001600160a01b0316916318160ddd9160048083019260209291908290030181865afa15801561067f573d6000803e3d6000fd5b505050506040513d601f19601f820116820180604052508101906106a39190611719565b116107015760405162461bcd60e51b815260206004820152602860248201527f43616e6e6f742064697374726962757465207768656e206e6f7468696e6720696044820152671cc81cdd185ad95960c21b6064820152608401610435565b600c546008546040516370a0823160e01b8152306004820152600092916001600160a01b0316906370a0823190602401602060405180830381865afa15801561074e573d6000803e3d6000fd5b505050506040513d601f19601f820116820180604052508101906107729190611719565b61077c91906116cb565b905080600c60008282546107909190611732565b9091555061079f905081610ddf565b336001600160a01b03167f53118bff2fb56701752f5bf54053d24fb83cec92f9f6ce664b90c38a2991caa4600760009054906101000a90046001600160a01b03166001600160a01b03166318160ddd6040518163ffffffff1660e01b8152600401602060405180830381865afa15801561081d573d6000803e3d6000fd5b505050506040513d601f19601f820116820180604052508101906108419190611719565b60408051918252602082018590520160405180910390a250565b6001600160a01b03811660009081526020818152604080832054600a909252822054600954670de0b6b3a764000091610893916116cb565b6007546040516370a0823160e01b81526001600160a01b038781166004830152909116906370a0823190602401602060405180830381865afa1580156108dd573d6000803e3d6000fd5b505050506040513d601f19601f820116820180604052508101906109019190611719565b61090b919061174a565b6109159190611769565b61091f9190611732565b92915050565b60606004805461030f9061167b565b6002600654036109565760405162461bcd60e51b8152600401610435906116e2565b60026006556008546001600160a01b031633146109b55760405162461bcd60e51b815260206004820152601c60248201527f53656e646572206d757374206265207265776172647320746f6b656e000000006044820152606401610435565b6109bd610635565b505060016006555050565b600061039f338484610afa565b6001600160a01b038316610a375760405162461bcd60e51b8152602060048201526024808201527f45524332303a20617070726f76652066726f6d20746865207a65726f206164646044820152637265737360e01b6064820152608401610435565b6001600160a01b038216610a985760405162461bcd60e51b815260206004820152602260248201527f45524332303a20617070726f766520746f20746865207a65726f206164647265604482015261737360f01b6064820152608401610435565b6001600160a01b0383811660008181526001602090815260408083209487168084529482529182902085905590518481527f8c5be1e5ebec7d5bd14f71427d1e84f3dd0314c0f7b2291e5b200ac8c7c3b92591015b60405180910390a3505050565b610b0383610bc8565b610b0e838383610f40565b505050565b600260065403610b355760405162461bcd60e51b8152600401610435906116e2565b6002600655610b443382611122565b60085461062d906001600160a01b03163383610d8d565b604051635260769b60e11b815284906001600160a01b0382169063a4c0ed3690610b8f90339088908890889060040161178b565b600060405180830381600087803b158015610ba957600080fd5b505af1158015610bbd573d6000803e3d6000fd5b505050505050505050565b6001600160a01b038116600090815260208190526040812054610bea8361085b565b610bf491906116cb565b90508015610c0657610c06828261117c565b506009546001600160a01b039091166000908152600a6020526040902055565b6001600160a01b038216610c865760405162461bcd60e51b815260206004820152602160248201527f45524332303a206275726e2066726f6d20746865207a65726f206164647265736044820152607360f81b6064820152608401610435565b6001600160a01b038216600090815260208190526040902054811115610cf95760405162461bcd60e51b815260206004820152602260248201527f45524332303a206275726e20616d6f756e7420657863656564732062616c616e604482015261636560f01b6064820152608401610435565b6001600160a01b038216600090815260208190526040902054610d1d9082906116cb565b6001600160a01b038316600090815260208190526040902055600254610d449082906116cb565b6002556040518181526000906001600160a01b038416907fddf252ad1be2c89b69c2b068fc378daa952ba7f163c4a11628f55a4df523b3ef906020015b60405180910390a35050565b604080516001600160a01b038416602482015260448082018490528251808303909101815260649091019091526020810180516001600160e01b031663a9059cbb60e01b179052610b0e908490611255565b600754604080516318160ddd60e01b815290516000926001600160a01b0316916318160ddd9160048083019260209291908290030181865afa158015610e29573d6000803e3d6000fd5b505050506040513d601f19601f82011682018060405250810190610e4d9190611719565b11610e9a5760405162461bcd60e51b815260206004820152601960248201527f5374616b656420616d6f756e74206d757374206265203e2030000000000000006044820152606401610435565b600760009054906101000a90046001600160a01b03166001600160a01b03166318160ddd6040518163ffffffff1660e01b8152600401602060405180830381865afa158015610eed573d6000803e3d6000fd5b505050506040513d601f19601f82011682018060405250810190610f119190611719565b610f2382670de0b6b3a764000061174a565b610f2d9190611769565b600954610f3a9190611732565b60095550565b6001600160a01b038316610fa45760405162461bcd60e51b815260206004820152602560248201527f45524332303a207472616e736665722066726f6d20746865207a65726f206164604482015264647265737360d81b6064820152608401610435565b6001600160a01b0382166110065760405162461bcd60e51b815260206004820152602360248201527f45524332303a207472616e7366657220746f20746865207a65726f206164647260448201526265737360e81b6064820152608401610435565b6001600160a01b03831660009081526020819052604090205481111561107d5760405162461bcd60e51b815260206004820152602660248201527f45524332303a207472616e7366657220616d6f756e7420657863656564732062604482015265616c616e636560d01b6064820152608401610435565b6001600160a01b0383166000908152602081905260409020546110a19082906116cb565b6001600160a01b0380851660009081526020819052604080822093909355908416815220546110d1908290611732565b6001600160a01b038381166000818152602081815260409182902094909455518481529092918616917fddf252ad1be2c89b69c2b068fc378daa952ba7f163c4a11628f55a4df523b3ef9101610aed565b61112b82610bc8565b6111358282610c26565b816001600160a01b03167f7084f5476618d8e60b11ef0d7d3f06914655adb8793e28ff7f018d4c76d505d58260405161117091815260200190565b60405180910390a25050565b6001600160a01b0382166111d25760405162461bcd60e51b815260206004820152601f60248201527f45524332303a206d696e7420746f20746865207a65726f2061646472657373006044820152606401610435565b806002546111e09190611732565b6002556001600160a01b038216600090815260208190526040902054611207908290611732565b6001600160a01b038316600081815260208181526040808320949094559251848152919290917fddf252ad1be2c89b69c2b068fc378daa952ba7f163c4a11628f55a4df523b3ef9101610d81565b60006112aa826040518060400160405280602081526020017f5361666545524332303a206c6f772d6c6576656c2063616c6c206661696c6564815250856001600160a01b03166113279092919063ffffffff16565b805190915015610b0e57808060200190518101906112c891906117d3565b610b0e5760405162461bcd60e51b815260206004820152602a60248201527f5361666545524332303a204552433230206f7065726174696f6e20646964206e6044820152691bdd081cdd58d8d9595960b21b6064820152608401610435565b6060611336848460008561133e565b949350505050565b60608247101561139f5760405162461bcd60e51b815260206004820152602660248201527f416464726573733a20696e73756666696369656e742062616c616e636520666f6044820152651c8818d85b1b60d21b6064820152608401610435565b6001600160a01b0385163b6113f65760405162461bcd60e51b815260206004820152601d60248201527f416464726573733a2063616c6c20746f206e6f6e2d636f6e74726163740000006044820152606401610435565b600080866001600160a01b0316858760405161141291906117f5565b60006040518083038185875af1925050503d806000811461144f576040519150601f19603f3d011682016040523d82523d6000602084013e611454565b606091505b509150915061146482828661146f565b979650505050505050565b6060831561147e57508161047d565b82511561148e5782518084602001fd5b8160405162461bcd60e51b815260040161043591906114d8565b60005b838110156114c35781810151838201526020016114ab565b838111156114d2576000848401525b50505050565b60208152600082518060208401526114f78160408501602087016114a8565b601f01601f19169190910160400192915050565b80356001600160a01b038116811461152257600080fd5b919050565b6000806040838503121561153a57600080fd5b6115438361150b565b946020939093013593505050565b60008060006060848603121561156657600080fd5b61156f8461150b565b925061157d6020850161150b565b9150604084013590509250925092565b60006020828403121561159f57600080fd5b5035919050565b600080600080606085870312156115bc57600080fd5b6115c58561150b565b935060208501359250604085013567ffffffffffffffff808211156115e957600080fd5b818701915087601f8301126115fd57600080fd5b81358181111561160c57600080fd5b88602082850101111561161e57600080fd5b95989497505060200194505050565b60006020828403121561163f57600080fd5b61047d8261150b565b6000806040838503121561165b57600080fd5b6116648361150b565b91506116726020840161150b565b90509250929050565b600181811c9082168061168f57607f821691505b6020821081036116af57634e487b7160e01b600052602260045260246000fd5b50919050565b634e487b7160e01b600052601160045260246000fd5b6000828210156116dd576116dd6116b5565b500390565b6020808252601f908201527f5265656e7472616e637947756172643a207265656e7472616e742063616c6c00604082015260600190565b60006020828403121561172b57600080fd5b5051919050565b60008219821115611745576117456116b5565b500190565b6000816000190483118215151615611764576117646116b5565b500290565b60008261178657634e487b7160e01b600052601260045260246000fd5b500490565b6001600160a01b0385168152602081018490526060604082018190528101829052818360808301376000818301608090810191909152601f909201601f191601019392505050565b6000602082840312156117e557600080fd5b8151801515811461047d57600080fd5b600082516118078184602087016114a8565b919091019291505056fea26469706673582212202b7d56e24946d8de82f0d0b4cb909219346a13ecf39eecf8a066755dfcc3e79164736f6c634300080f0033",
  "devdoc": {
    "details": "Handles distribution of pool owners rewards",
    "kind": "dev",
    "methods": {
      "allowance(address,address)": {
        "details": "Returns the remaining number of tokens that `spender` will be allowed to spend on behalf of `owner` through {transferFrom}. This is zero by default. This value changes when {approve} or {transferFrom} are called."
      },
      "approve(address,uint256)": {
        "details": "Sets `amount` as the allowance of `spender` over the caller's tokens. Returns a boolean value indicating whether the operation succeeded. IMPORTANT: Beware that changing an allowance with this method brings the risk that someone may use both the old and the new allowance by unfortunate transaction ordering. One possible solution to mitigate this race condition is to first reduce the spender's allowance to 0 and set the desired value afterwards: https://github.com/ethereum/EIPs/issues/20#issuecomment-263524729 Emits an {Approval} event."
      },
      "balanceOf(address)": {
        "details": "calculates a user's total unclaimed rewards (principal balance + newly earned rewards)",
        "params": {
          "_account": "user to calculate rewards for"
        },
        "returns": {
          "_0": "user's total unclaimed rewards*"
        }
      },
      "distributeRewards()": {
        "details": "distributes new rewards that have been deposited*"
      },
      "onTokenTransfer(address,uint256,bytes)": {
        "details": "ERC677 implementation that automatically calls distributeRewards",
        "params": {
          "_sender": "of the token transfer",
          "_value": "of the token transfer*"
        }
      },
      "totalSupply()": {
        "details": "Returns the amount of tokens in existence."
      },
      "updateReward(address)": {
        "details": "updates a user's principal reward balance",
        "params": {
          "_account": "user to update for*"
        }
      },
      "withdraw(address)": {
        "details": "withdraws all of a user's earned rewards",
        "params": {
          "_account": "user to withdraw for*"
        }
      },
      "withdraw(uint256)": {
        "details": "withdraws a user's earned rewards",
        "params": {
          "_amount": "amount to withdraw*"
        }
      }
    },
    "title": "OwnersRewardsPool",
    "version": 1
  },
  "userdoc": {
    "kind": "user",
    "methods": {},
    "version": 1
  },
  "storageLayout": {
    "storage": [
      {
        "astId": 22050,
        "contract": "contracts/core/test/v1/OwnersRewardsPoolV1.sol:OwnersRewardsPoolV1",
        "label": "_balances",
        "offset": 0,
        "slot": "0",
        "type": "t_mapping(t_address,t_uint256)"
      },
      {
        "astId": 22056,
        "contract": "contracts/core/test/v1/OwnersRewardsPoolV1.sol:OwnersRewardsPoolV1",
        "label": "_allowances",
        "offset": 0,
        "slot": "1",
        "type": "t_mapping(t_address,t_mapping(t_address,t_uint256))"
      },
      {
        "astId": 22058,
        "contract": "contracts/core/test/v1/OwnersRewardsPoolV1.sol:OwnersRewardsPoolV1",
        "label": "_totalSupply",
        "offset": 0,
        "slot": "2",
        "type": "t_uint256"
      },
      {
        "astId": 22060,
        "contract": "contracts/core/test/v1/OwnersRewardsPoolV1.sol:OwnersRewardsPoolV1",
        "label": "_name",
        "offset": 0,
        "slot": "3",
        "type": "t_string_storage"
      },
      {
        "astId": 22062,
        "contract": "contracts/core/test/v1/OwnersRewardsPoolV1.sol:OwnersRewardsPoolV1",
        "label": "_symbol",
        "offset": 0,
        "slot": "4",
        "type": "t_string_storage"
      },
      {
        "astId": 22064,
        "contract": "contracts/core/test/v1/OwnersRewardsPoolV1.sol:OwnersRewardsPoolV1",
        "label": "_decimals",
        "offset": 0,
        "slot": "5",
        "type": "t_uint8"
      },
      {
        "astId": 3883,
        "contract": "contracts/core/test/v1/OwnersRewardsPoolV1.sol:OwnersRewardsPoolV1",
        "label": "_status",
        "offset": 0,
        "slot": "6",
        "type": "t_uint256"
      },
      {
        "astId": 21291,
        "contract": "contracts/core/test/v1/OwnersRewardsPoolV1.sol:OwnersRewardsPoolV1",
        "label": "stakingDerivative",
        "offset": 0,
        "slot": "7",
        "type": "t_contract(IERC677)18834"
      },
      {
        "astId": 21294,
        "contract": "contracts/core/test/v1/OwnersRewardsPoolV1.sol:OwnersRewardsPoolV1",
        "label": "rewardsToken",
        "offset": 0,
        "slot": "8",
        "type": "t_contract(IERC677)18834"
      },
      {
        "astId": 21296,
        "contract": "contracts/core/test/v1/OwnersRewardsPoolV1.sol:OwnersRewardsPoolV1",
        "label": "rewardPerToken",
        "offset": 0,
        "slot": "9",
        "type": "t_uint256"
      },
      {
        "astId": 21300,
        "contract": "contracts/core/test/v1/OwnersRewardsPoolV1.sol:OwnersRewardsPoolV1",
        "label": "userRewardPerTokenPaid",
        "offset": 0,
        "slot": "10",
        "type": "t_mapping(t_address,t_uint256)"
      },
      {
        "astId": 20340,
        "contract": "contracts/core/test/v1/OwnersRewardsPoolV1.sol:OwnersRewardsPoolV1",
        "label": "poolOwners",
        "offset": 0,
        "slot": "11",
        "type": "t_address"
      },
      {
        "astId": 20342,
        "contract": "contracts/core/test/v1/OwnersRewardsPoolV1.sol:OwnersRewardsPoolV1",
        "label": "distributedRewards",
        "offset": 0,
        "slot": "12",
        "type": "t_uint256"
      }
    ],
    "types": {
      "t_address": {
        "encoding": "inplace",
        "label": "address",
        "numberOfBytes": "20"
      },
      "t_contract(IERC677)18834": {
        "encoding": "inplace",
        "label": "contract IERC677",
        "numberOfBytes": "20"
      },
      "t_mapping(t_address,t_mapping(t_address,t_uint256))": {
        "encoding": "mapping",
        "key": "t_address",
        "label": "mapping(address => mapping(address => uint256))",
        "numberOfBytes": "32",
        "value": "t_mapping(t_address,t_uint256)"
      },
      "t_mapping(t_address,t_uint256)": {
        "encoding": "mapping",
        "key": "t_address",
        "label": "mapping(address => uint256)",
        "numberOfBytes": "32",
        "value": "t_uint256"
      },
      "t_string_storage": {
        "encoding": "bytes",
        "label": "string",
        "numberOfBytes": "32"
      },
      "t_uint256": {
        "encoding": "inplace",
        "label": "uint256",
        "numberOfBytes": "32"
      },
      "t_uint8": {
        "encoding": "inplace",
        "label": "uint8",
        "numberOfBytes": "1"
      }
    }
  }
}