{
  "address": "0xBdf93A71Dc50120bc9Cf3524E5d077481746110b",
  "abi": [
    {
      "inputs": [
        {
          "internalType": "address",
          "name": "_stakingToken",
          "type": "address"
        }
      ],
      "stateMutability": "nonpayable",
      "type": "constructor"
    },
    {
      "anonymous": false,
      "inputs": [
        {
          "indexed": true,
          "internalType": "address",
          "name": "user",
          "type": "address"
        }
      ],
      "name": "AllowanceMinted",
      "type": "event"
    },
    {
      "anonymous": false,
      "inputs": [
        {
          "indexed": true,
          "internalType": "address",
          "name": "previousOwner",
          "type": "address"
        },
        {
          "indexed": true,
          "internalType": "address",
          "name": "newOwner",
          "type": "address"
        }
      ],
      "name": "OwnershipTransferred",
      "type": "event"
    },
    {
      "anonymous": false,
      "inputs": [
        {
          "indexed": true,
          "internalType": "address",
          "name": "token",
          "type": "address"
        },
        {
          "indexed": false,
          "internalType": "address",
          "name": "allowanceToken",
          "type": "address"
        },
        {
          "indexed": false,
          "internalType": "address",
          "name": "rewardsPool",
          "type": "address"
        }
      ],
      "name": "RewardTokenAdded",
      "type": "event"
    },
    {
      "anonymous": false,
      "inputs": [
        {
          "indexed": true,
          "internalType": "address",
          "name": "token",
          "type": "address"
        }
      ],
      "name": "RewardTokenRemoved",
      "type": "event"
    },
    {
      "anonymous": false,
      "inputs": [
        {
          "indexed": true,
          "internalType": "address",
          "name": "user",
          "type": "address"
        }
      ],
      "name": "RewardsWithdrawn",
      "type": "event"
    },
    {
      "anonymous": false,
      "inputs": [
        {
          "indexed": true,
          "internalType": "address",
          "name": "user",
          "type": "address"
        },
        {
          "indexed": false,
          "internalType": "uint256",
          "name": "amount",
          "type": "uint256"
        }
      ],
      "name": "Staked",
      "type": "event"
    },
    {
      "anonymous": false,
      "inputs": [
        {
          "indexed": true,
          "internalType": "address",
          "name": "user",
          "type": "address"
        },
        {
          "indexed": false,
          "internalType": "uint256",
          "name": "amount",
          "type": "uint256"
        }
      ],
      "name": "Withdrawn",
      "type": "event"
    },
    {
      "inputs": [
        {
          "internalType": "address",
          "name": "_token",
          "type": "address"
        },
        {
          "internalType": "address",
          "name": "_allowanceToken",
          "type": "address"
        },
        {
          "internalType": "address",
          "name": "_rewardPool",
          "type": "address"
        }
      ],
      "name": "addRewardToken",
      "outputs": [],
      "stateMutability": "nonpayable",
      "type": "function"
    },
    {
      "inputs": [
        {
          "internalType": "address",
          "name": "",
          "type": "address"
        }
      ],
      "name": "allowanceTokens",
      "outputs": [
        {
          "internalType": "address",
          "name": "",
          "type": "address"
        }
      ],
      "stateMutability": "view",
      "type": "function"
    },
    {
      "inputs": [
        {
          "internalType": "address",
          "name": "_account",
          "type": "address"
        }
      ],
      "name": "balanceOf",
      "outputs": [
        {
          "internalType": "uint256",
          "name": "",
          "type": "uint256"
        }
      ],
      "stateMutability": "view",
      "type": "function"
    },
    {
      "inputs": [],
      "name": "exit",
      "outputs": [],
      "stateMutability": "nonpayable",
      "type": "function"
    },
    {
      "inputs": [],
      "name": "mintAllowance",
      "outputs": [],
      "stateMutability": "nonpayable",
      "type": "function"
    },
    {
      "inputs": [
        {
          "internalType": "address",
          "name": "_allowanceToken",
          "type": "address"
        },
        {
          "internalType": "address",
          "name": "_account",
          "type": "address"
        }
      ],
      "name": "mintedAllowance",
      "outputs": [
        {
          "internalType": "uint256",
          "name": "",
          "type": "uint256"
        }
      ],
      "stateMutability": "view",
      "type": "function"
    },
    {
      "inputs": [
        {
          "internalType": "address",
          "name": "_sender",
          "type": "address"
        },
        {
          "internalType": "uint256",
          "name": "_value",
          "type": "uint256"
        },
        {
          "internalType": "bytes",
          "name": "",
          "type": "bytes"
        }
      ],
      "name": "onTokenTransfer",
      "outputs": [],
      "stateMutability": "nonpayable",
      "type": "function"
    },
    {
      "inputs": [],
      "name": "owner",
      "outputs": [
        {
          "internalType": "address",
          "name": "",
          "type": "address"
        }
      ],
      "stateMutability": "view",
      "type": "function"
    },
    {
      "inputs": [
        {
          "internalType": "uint16",
          "name": "_index",
          "type": "uint16"
        }
      ],
      "name": "removeRewardToken",
      "outputs": [],
      "stateMutability": "nonpayable",
      "type": "function"
    },
    {
      "inputs": [],
      "name": "renounceOwnership",
      "outputs": [],
      "stateMutability": "nonpayable",
      "type": "function"
    },
    {
      "inputs": [
        {
          "internalType": "address",
          "name": "",
          "type": "address"
        }
      ],
      "name": "rewardPools",
      "outputs": [
        {
          "internalType": "address",
          "name": "",
          "type": "address"
        }
      ],
      "stateMutability": "view",
      "type": "function"
    },
    {
      "inputs": [
        {
          "internalType": "uint16",
          "name": "",
          "type": "uint16"
        }
      ],
      "name": "rewardTokens",
      "outputs": [
        {
          "internalType": "address",
          "name": "",
          "type": "address"
        }
      ],
      "stateMutability": "view",
      "type": "function"
    },
    {
      "inputs": [
        {
          "internalType": "uint256",
          "name": "_amount",
          "type": "uint256"
        }
      ],
      "name": "stake",
      "outputs": [],
      "stateMutability": "nonpayable",
      "type": "function"
    },
    {
      "inputs": [],
      "name": "stakingToken",
      "outputs": [
        {
          "internalType": "contract IERC677",
          "name": "",
          "type": "address"
        }
      ],
      "stateMutability": "view",
      "type": "function"
    },
    {
      "inputs": [],
      "name": "totalRewardTokens",
      "outputs": [
        {
          "internalType": "uint16",
          "name": "",
          "type": "uint16"
        }
      ],
      "stateMutability": "view",
      "type": "function"
    },
    {
      "inputs": [],
      "name": "totalStaked",
      "outputs": [
        {
          "internalType": "uint256",
          "name": "",
          "type": "uint256"
        }
      ],
      "stateMutability": "view",
      "type": "function"
    },
    {
      "inputs": [],
      "name": "totalSupply",
      "outputs": [
        {
          "internalType": "uint256",
          "name": "",
          "type": "uint256"
        }
      ],
      "stateMutability": "view",
      "type": "function"
    },
    {
      "inputs": [
        {
          "internalType": "address",
          "name": "newOwner",
          "type": "address"
        }
      ],
      "name": "transferOwnership",
      "outputs": [],
      "stateMutability": "nonpayable",
      "type": "function"
    },
    {
      "inputs": [
        {
          "internalType": "uint256",
          "name": "_amount",
          "type": "uint256"
        }
      ],
      "name": "withdraw",
      "outputs": [],
      "stateMutability": "nonpayable",
      "type": "function"
    },
    {
      "inputs": [],
      "name": "withdrawAllRewards",
      "outputs": [],
      "stateMutability": "nonpayable",
      "type": "function"
    }
  ],
  "transactionHash": "0xee65b88e56ed20fc7062892d772c08b386fa0e1a1afa6ccad6f55c42712c1946",
  "args": [
    "0xD24498c10fF699F12c80DAc4d94C13E0dF38b78b"
  ],
  "numDeployments": 1,
  "solcInputHash": "716f7ec369ec5237ed83445c47c46fa6",
  "bytecode": "0x608060405234801561001057600080fd5b5060405161168638038061168683398101604081905261002f916100b4565b600160005561003d33610062565b600280546001600160a01b0319166001600160a01b03929092169190911790556100e4565b600180546001600160a01b038381166001600160a01b0319831681179093556040519116919082907f8be0079c531659141344cd1fd0a4f28419497f9722a3daafe3b4186f6b6457e090600090a35050565b6000602082840312156100c657600080fd5b81516001600160a01b03811681146100dd57600080fd5b9392505050565b611593806100f36000396000f3fe608060405234801561001057600080fd5b506004361061012c5760003560e01c8063715018a6116100ad578063a4c0ed3611610071578063a4c0ed3614610293578063a694fc3a146102a6578063e9fad8ee146102b9578063ef2149ba146102c1578063f2fde38b146102ea57600080fd5b8063715018a61461024b57806372f702f314610253578063817b1cd2146102665780638da5cb5b1461026f5780639c4239501461028057600080fd5b8063372d9448116100f4578063372d9448146101d6578063396876bd146101ff57806345114ee5146102075780634b48599d1461020f57806370a082311461022257600080fd5b806314706f3e1461013157806318160ddd146101575780631b0875a61461015f5780632e1a7d4d146101805780633203ea8f14610195575b600080fd5b61014461013f36600461128d565b6102fd565b6040519081526020015b60405180910390f35b600354610144565b60055461016d9061ffff1681565b60405161ffff909116815260200161014e565b61019361018e3660046112c0565b610328565b005b6101be6101a33660046112d9565b6006602052600090815260409020546001600160a01b031681565b6040516001600160a01b03909116815260200161014e565b6101be6101e43660046112fd565b6007602052600090815260409020546001600160a01b031681565b6101936104a7565b610193610509565b61019361021d366004611318565b6105b1565b6101446102303660046112fd565b6001600160a01b031660009081526004602052604090205490565b610193610709565b6002546101be906001600160a01b031681565b61014460035481565b6001546001600160a01b03166101be565b61019361028e3660046112d9565b61071d565b6101936102a136600461135b565b6108e0565b6101936102b43660046112c0565b610976565b6101936109c7565b6101be6102cf3660046112fd565b6008602052600090815260409020546001600160a01b031681565b6101936102f83660046112fd565b6109e8565b6001600160a01b03918216600090815260096020908152604080832093909416825291909152205490565b6002600054036103535760405162461bcd60e51b815260040161034a906113e2565b60405180910390fd5b6002600090815533905b60055461ffff90811690821610156104025761ffff81166000908152600660209081526040808320546001600160a01b03908116845260079092529182902054915163632447c960e01b8152848216600482015291169063632447c990602401600060405180830381600087803b1580156103d757600080fd5b505af11580156103eb573d6000803e3d6000fd5b5050505080806103fa9061142f565b91505061035d565b503360009081526004602052604090205461041e908390611450565b3360009081526004602052604081209190915560038054849290610443908490611450565b90915550610452905033610a61565b600254610469906001600160a01b03163384610b8b565b60405182815233907f7084f5476618d8e60b11ef0d7d3f06914655adb8793e28ff7f018d4c76d505d59060200160405180910390a250506001600055565b6002600054036104c95760405162461bcd60e51b815260040161034a906113e2565b60026000556104d733610bee565b60405133907fbf0116af1f8ddd1320e0d5708a1f7bd67f71d8c96d369b4084ba1b91ab7f7b1890600090a26001600055565b60026000540361052b5760405162461bcd60e51b815260040161034a906113e2565b600260009081555b60055461ffff908116908216101561057e5761ffff811660009081526006602052604090205461056c906001600160a01b031633610d13565b806105768161142f565b915050610533565b5060405133907fd5e5e23ba670ad7ae775ba2dd622861c8f5e59940127ddb42d0ada3bdfe8881990600090a26001600055565b6105b9610dec565b6001600160a01b0383811660009081526007602052604090205416156106215760405162461bcd60e51b815260206004820152601b60248201527f52657761726420746f6b656e20616c7265616479206578697374730000000000604482015260640161034a565b6005805461ffff908116600090815260066020908152604080832080546001600160a01b03199081166001600160a01b038b8116918217909355855260088452828520805482168a841617905560079093529083208054909216908616179055825490911691906106918361142f565b91906101000a81548161ffff021916908361ffff16021790555050826001600160a01b03167fdc569ae656a2a291bea4cbb0b556071ffff75a5aff570f9d300a176344bde53a83836040516106fc9291906001600160a01b0392831681529116602082015260400190565b60405180910390a2505050565b610711610dec565b61071b6000610e46565b565b610725610dec565b60055461ffff9081169082161061077e5760405162461bcd60e51b815260206004820152601b60248201527f52657761726420746f6b656e20646f6573206e6f742065786973740000000000604482015260640161034a565b61ffff8082166000908152600660205260409020546005546001600160a01b039091169160019116111561080b576005546006906000906107c59060019061ffff16611467565b61ffff9081168252602080830193909352604091820160009081205491861681526006909352912080546001600160a01b0319166001600160a01b039092169190911790555b6005546006906000906108249060019061ffff16611467565b61ffff90811682526020808301939093526040918201600090812080546001600160a01b03199081169091556001600160a01b0386168252600885528382208054821690556007909452918220805490931690925560058054909216919061088b8361148a565b91906101000a81548161ffff021916908361ffff16021790555050806001600160a01b03167f66257bcef574219c04f7c05f7a1c78d599da10491294c92a5805c48b4cdf500960405160405180910390a25050565b6002600054036109025760405162461bcd60e51b815260040161034a906113e2565b60026000819055546001600160a01b031633146109615760405162461bcd60e51b815260206004820152601c60248201527f53656e646572206d757374206265207374616b696e6720746f6b656e00000000604482015260640161034a565b61096b8484610e98565b505060016000555050565b6002600054036109985760405162461bcd60e51b815260040161034a906113e2565b60026000819055546109b5906001600160a01b0316333084610fde565b6109bf3382610e98565b506001600055565b336000908152600460205260409020546109e090610328565b61071b610509565b6109f0610dec565b6001600160a01b038116610a555760405162461bcd60e51b815260206004820152602660248201527f4f776e61626c653a206e6577206f776e657220697320746865207a65726f206160448201526564647265737360d01b606482015260840161034a565b610a5e81610e46565b50565b6001600160a01b038116600090815260046020526040812054905b60055461ffff9081169082161015610b865761ffff81166000908152600660209081526040808320546001600160a01b03908116845260089092528220541690610ac682866102fd565b905083811115610b71576001600160a01b038216630d99bd6c86610aea8785611450565b6040516001600160e01b031960e085901b1681526001600160a01b0390921660048301526024820152604401600060405180830381600087803b158015610b3057600080fd5b505af1158015610b44573d6000803e3d6000fd5b5050506001600160a01b038084166000908152600960209081526040808320938a16835292905220859055505b50508080610b7e9061142f565b915050610a7c565b505050565b6040516001600160a01b038316602482015260448101829052610b8690849063a9059cbb60e01b906064015b60408051601f198184030181529190526020810180516001600160e01b03166001600160e01b03199093169290921790915261101c565b6001600160a01b038116600090815260046020526040812054905b60055461ffff9081169082161015610b865761ffff81166000908152600660209081526040808320546001600160a01b03908116845260089092528220541690610c5382866102fd565b905083811015610cfe576001600160a01b0382166308641c8686610c778488611450565b6040516001600160e01b031960e085901b1681526001600160a01b0390921660048301526024820152604401600060405180830381600087803b158015610cbd57600080fd5b505af1158015610cd1573d6000803e3d6000fd5b5050506001600160a01b038084166000908152600960209081526040808320938a16835292905220859055505b50508080610d0b9061142f565b915050610c09565b6001600160a01b0382811660009081526007602052604090205416610d7a5760405162461bcd60e51b815260206004820152601b60248201527f52657761726420746f6b656e20646f6573206e6f742065786973740000000000604482015260640161034a565b6001600160a01b03828116600090815260076020526040908190205490516351cff8d960e01b815283831660048201529116906351cff8d990602401600060405180830381600087803b158015610dd057600080fd5b505af1158015610de4573d6000803e3d6000fd5b505050505050565b6001546001600160a01b0316331461071b5760405162461bcd60e51b815260206004820181905260248201527f4f776e61626c653a2063616c6c6572206973206e6f7420746865206f776e6572604482015260640161034a565b600180546001600160a01b038381166001600160a01b0319831681179093556040519116919082907f8be0079c531659141344cd1fd0a4f28419497f9722a3daafe3b4186f6b6457e090600090a35050565b8160005b60055461ffff9081169082161015610f415761ffff81166000908152600660209081526040808320546001600160a01b03908116845260079092529182902054915163632447c960e01b8152848216600482015291169063632447c990602401600060405180830381600087803b158015610f1657600080fd5b505af1158015610f2a573d6000803e3d6000fd5b505050508080610f399061142f565b915050610e9c565b506001600160a01b038316600090815260046020526040902054610f669083906114a8565b6001600160a01b03841660009081526004602052604081209190915560038054849290610f949084906114a8565b90915550610fa3905083610bee565b826001600160a01b03167f9e71bc8eea02a63969f509818f2dafb9254532904319f9dbda79b67bd34a5f3d836040516106fc91815260200190565b6040516001600160a01b03808516602483015283166044820152606481018290526110169085906323b872dd60e01b90608401610bb7565b50505050565b6000611071826040518060400160405280602081526020017f5361666545524332303a206c6f772d6c6576656c2063616c6c206661696c6564815250856001600160a01b03166110ee9092919063ffffffff16565b805190915015610b86578080602001905181019061108f91906114c0565b610b865760405162461bcd60e51b815260206004820152602a60248201527f5361666545524332303a204552433230206f7065726174696f6e20646964206e6044820152691bdd081cdd58d8d9595960b21b606482015260840161034a565b60606110fd8484600085611107565b90505b9392505050565b6060824710156111685760405162461bcd60e51b815260206004820152602660248201527f416464726573733a20696e73756666696369656e742062616c616e636520666f6044820152651c8818d85b1b60d21b606482015260840161034a565b6001600160a01b0385163b6111bf5760405162461bcd60e51b815260206004820152601d60248201527f416464726573733a2063616c6c20746f206e6f6e2d636f6e7472616374000000604482015260640161034a565b600080866001600160a01b031685876040516111db919061150e565b60006040518083038185875af1925050503d8060008114611218576040519150601f19603f3d011682016040523d82523d6000602084013e61121d565b606091505b509150915061122d828286611238565b979650505050505050565b60608315611247575081611100565b8251156112575782518084602001fd5b8160405162461bcd60e51b815260040161034a919061152a565b80356001600160a01b038116811461128857600080fd5b919050565b600080604083850312156112a057600080fd5b6112a983611271565b91506112b760208401611271565b90509250929050565b6000602082840312156112d257600080fd5b5035919050565b6000602082840312156112eb57600080fd5b813561ffff8116811461110057600080fd5b60006020828403121561130f57600080fd5b61110082611271565b60008060006060848603121561132d57600080fd5b61133684611271565b925061134460208501611271565b915061135260408501611271565b90509250925092565b6000806000806060858703121561137157600080fd5b61137a85611271565b935060208501359250604085013567ffffffffffffffff8082111561139e57600080fd5b818701915087601f8301126113b257600080fd5b8135818111156113c157600080fd5b8860208285010111156113d357600080fd5b95989497505060200194505050565b6020808252601f908201527f5265656e7472616e637947756172643a207265656e7472616e742063616c6c00604082015260600190565b634e487b7160e01b600052601160045260246000fd5b600061ffff80831681810361144657611446611419565b6001019392505050565b60008282101561146257611462611419565b500390565b600061ffff8381169083168181101561148257611482611419565b039392505050565b600061ffff82168061149e5761149e611419565b6000190192915050565b600082198211156114bb576114bb611419565b500190565b6000602082840312156114d257600080fd5b8151801515811461110057600080fd5b60005b838110156114fd5781810151838201526020016114e5565b838111156110165750506000910152565b600082516115208184602087016114e2565b9190910192915050565b60208152600082518060208401526115498160408501602087016114e2565b601f01601f1916919091016040019291505056fea2646970667358221220d5de2588ef5d345631669aa762125547a18e5b8343f8d669287651a30b8d137164736f6c634300080f0033",
  "devdoc": {
    "details": "Handles owners token staking, allowance token distribution, & owners rewards assets",
    "kind": "dev",
    "methods": {
      "addRewardToken(address,address,address)": {
        "details": "adds a new asset",
        "params": {
          "_allowanceToken": "asset pool allowance token to add",
          "_rewardPool": "asset reward pool to add*",
          "_token": "asset to add"
        }
      },
      "balanceOf(address)": {
        "details": "returns a user's staked balance",
        "params": {
          "_account": "user to return balance for"
        },
        "returns": {
          "_0": "user's staked balance*"
        }
      },
      "exit()": {
        "details": "withdraws users earned rewards for all assets and withdraws their owners tokens*"
      },
      "mintAllowance()": {
        "details": "mints a user's unclaimed allowance tokens (used if a new asset is added after a user has already staked)*"
      },
      "mintedAllowance(address,address)": {
        "details": "returns how many allowance tokens have been minted for a user",
        "params": {
          "_account": "user to return minted amount for",
          "_allowanceToken": "allowance token to return minted amount for"
        },
        "returns": {
          "_0": "total allowance tokens a user has minted*"
        }
      },
      "onTokenTransfer(address,uint256,bytes)": {
        "details": "ERC677 implementation that proxies staking",
        "params": {
          "_sender": "of the token transfer",
          "_value": "of the token transfer*"
        }
      },
      "owner()": {
        "details": "Returns the address of the current owner."
      },
      "removeRewardToken(uint16)": {
        "details": "removes an existing asset",
        "params": {
          "_index": "index of asset to remove*"
        }
      },
      "renounceOwnership()": {
        "details": "Leaves the contract without owner. It will not be possible to call `onlyOwner` functions anymore. Can only be called by the current owner. NOTE: Renouncing ownership will leave the contract without an owner, thereby removing any functionality that is only available to the owner."
      },
      "stake(uint256)": {
        "details": "stakes owners tokens & mints staking allowance tokens in return",
        "params": {
          "_amount": "amount to stake*"
        }
      },
      "totalSupply()": {
        "details": "returns total amount staked",
        "returns": {
          "_0": "total amount staked*"
        }
      },
      "transferOwnership(address)": {
        "details": "Transfers ownership of the contract to a new account (`newOwner`). Can only be called by the current owner."
      },
      "withdraw(uint256)": {
        "details": "burns staking allowance tokens and withdraws staked owners tokens",
        "params": {
          "_amount": "amount to withdraw*"
        }
      },
      "withdrawAllRewards()": {
        "details": "withdraws user's earned rewards for a all assets*"
      }
    },
    "title": "Pool Owners",
    "version": 1
  },
  "userdoc": {
    "kind": "user",
    "methods": {},
    "version": 1
  },
  "storageLayout": {
    "storage": [
      {
        "astId": 4310,
        "contract": "contracts/core/test/v1/PoolOwnersV1.sol:PoolOwnersV1",
        "label": "_status",
        "offset": 0,
        "slot": "0",
        "type": "t_uint256"
      },
      {
        "astId": 3767,
        "contract": "contracts/core/test/v1/PoolOwnersV1.sol:PoolOwnersV1",
        "label": "_owner",
        "offset": 0,
        "slot": "1",
        "type": "t_address"
      },
      {
        "astId": 21664,
        "contract": "contracts/core/test/v1/PoolOwnersV1.sol:PoolOwnersV1",
        "label": "stakingToken",
        "offset": 0,
        "slot": "2",
        "type": "t_contract(IERC677)19646"
      },
      {
        "astId": 21666,
        "contract": "contracts/core/test/v1/PoolOwnersV1.sol:PoolOwnersV1",
        "label": "totalStaked",
        "offset": 0,
        "slot": "3",
        "type": "t_uint256"
      },
      {
        "astId": 21670,
        "contract": "contracts/core/test/v1/PoolOwnersV1.sol:PoolOwnersV1",
        "label": "stakedBalances",
        "offset": 0,
        "slot": "4",
        "type": "t_mapping(t_address,t_uint256)"
      },
      {
        "astId": 21672,
        "contract": "contracts/core/test/v1/PoolOwnersV1.sol:PoolOwnersV1",
        "label": "totalRewardTokens",
        "offset": 0,
        "slot": "5",
        "type": "t_uint16"
      },
      {
        "astId": 21676,
        "contract": "contracts/core/test/v1/PoolOwnersV1.sol:PoolOwnersV1",
        "label": "rewardTokens",
        "offset": 0,
        "slot": "6",
        "type": "t_mapping(t_uint16,t_address)"
      },
      {
        "astId": 21680,
        "contract": "contracts/core/test/v1/PoolOwnersV1.sol:PoolOwnersV1",
        "label": "rewardPools",
        "offset": 0,
        "slot": "7",
        "type": "t_mapping(t_address,t_address)"
      },
      {
        "astId": 21684,
        "contract": "contracts/core/test/v1/PoolOwnersV1.sol:PoolOwnersV1",
        "label": "allowanceTokens",
        "offset": 0,
        "slot": "8",
        "type": "t_mapping(t_address,t_address)"
      },
      {
        "astId": 21690,
        "contract": "contracts/core/test/v1/PoolOwnersV1.sol:PoolOwnersV1",
        "label": "mintedAllowanceTokens",
        "offset": 0,
        "slot": "9",
        "type": "t_mapping(t_address,t_mapping(t_address,t_uint256))"
      }
    ],
    "types": {
      "t_address": {
        "encoding": "inplace",
        "label": "address",
        "numberOfBytes": "20"
      },
      "t_contract(IERC677)19646": {
        "encoding": "inplace",
        "label": "contract IERC677",
        "numberOfBytes": "20"
      },
      "t_mapping(t_address,t_address)": {
        "encoding": "mapping",
        "key": "t_address",
        "label": "mapping(address => address)",
        "numberOfBytes": "32",
        "value": "t_address"
      },
      "t_mapping(t_address,t_mapping(t_address,t_uint256))": {
        "encoding": "mapping",
        "key": "t_address",
        "label": "mapping(address => mapping(address => uint256))",
        "numberOfBytes": "32",
        "value": "t_mapping(t_address,t_uint256)"
      },
      "t_mapping(t_address,t_uint256)": {
        "encoding": "mapping",
        "key": "t_address",
        "label": "mapping(address => uint256)",
        "numberOfBytes": "32",
        "value": "t_uint256"
      },
      "t_mapping(t_uint16,t_address)": {
        "encoding": "mapping",
        "key": "t_uint16",
        "label": "mapping(uint16 => address)",
        "numberOfBytes": "32",
        "value": "t_address"
      },
      "t_uint16": {
        "encoding": "inplace",
        "label": "uint16",
        "numberOfBytes": "2"
      },
      "t_uint256": {
        "encoding": "inplace",
        "label": "uint256",
        "numberOfBytes": "32"
      }
    }
  }
}