{
  "address": "0xC9C3645EF2299e992827F2E88c3e68855efB5780",
  "abi": [
    {
      "inputs": [
        {
          "internalType": "string",
          "name": "_name",
          "type": "string"
        },
        {
          "internalType": "string",
          "name": "_symbol",
          "type": "string"
        },
        {
          "internalType": "address",
          "name": "_poolOwners",
          "type": "address"
        }
      ],
      "stateMutability": "nonpayable",
      "type": "constructor"
    },
    {
      "anonymous": false,
      "inputs": [
        {
          "indexed": true,
          "internalType": "address",
          "name": "owner",
          "type": "address"
        },
        {
          "indexed": true,
          "internalType": "address",
          "name": "spender",
          "type": "address"
        },
        {
          "indexed": false,
          "internalType": "uint256",
          "name": "value",
          "type": "uint256"
        }
      ],
      "name": "Approval",
      "type": "event"
    },
    {
      "anonymous": false,
      "inputs": [
        {
          "indexed": true,
          "internalType": "address",
          "name": "from",
          "type": "address"
        },
        {
          "indexed": true,
          "internalType": "address",
          "name": "to",
          "type": "address"
        },
        {
          "indexed": false,
          "internalType": "uint256",
          "name": "value",
          "type": "uint256"
        }
      ],
      "name": "Transfer",
      "type": "event"
    },
    {
      "inputs": [
        {
          "internalType": "address",
          "name": "owner",
          "type": "address"
        },
        {
          "internalType": "address",
          "name": "spender",
          "type": "address"
        }
      ],
      "name": "allowance",
      "outputs": [
        {
          "internalType": "uint256",
          "name": "",
          "type": "uint256"
        }
      ],
      "stateMutability": "view",
      "type": "function"
    },
    {
      "inputs": [
        {
          "internalType": "address",
          "name": "spender",
          "type": "address"
        },
        {
          "internalType": "uint256",
          "name": "amount",
          "type": "uint256"
        }
      ],
      "name": "approve",
      "outputs": [
        {
          "internalType": "bool",
          "name": "",
          "type": "bool"
        }
      ],
      "stateMutability": "nonpayable",
      "type": "function"
    },
    {
      "inputs": [
        {
          "internalType": "address",
          "name": "account",
          "type": "address"
        }
      ],
      "name": "balanceOf",
      "outputs": [
        {
          "internalType": "uint256",
          "name": "",
          "type": "uint256"
        }
      ],
      "stateMutability": "view",
      "type": "function"
    },
    {
      "inputs": [
        {
          "internalType": "address",
          "name": "_account",
          "type": "address"
        },
        {
          "internalType": "uint256",
          "name": "_amount",
          "type": "uint256"
        }
      ],
      "name": "burnAllowance",
      "outputs": [],
      "stateMutability": "nonpayable",
      "type": "function"
    },
    {
      "inputs": [],
      "name": "decimals",
      "outputs": [
        {
          "internalType": "uint8",
          "name": "",
          "type": "uint8"
        }
      ],
      "stateMutability": "view",
      "type": "function"
    },
    {
      "inputs": [
        {
          "internalType": "address",
          "name": "spender",
          "type": "address"
        },
        {
          "internalType": "uint256",
          "name": "subtractedValue",
          "type": "uint256"
        }
      ],
      "name": "decreaseAllowance",
      "outputs": [
        {
          "internalType": "bool",
          "name": "",
          "type": "bool"
        }
      ],
      "stateMutability": "nonpayable",
      "type": "function"
    },
    {
      "inputs": [
        {
          "internalType": "address",
          "name": "spender",
          "type": "address"
        },
        {
          "internalType": "uint256",
          "name": "addedValue",
          "type": "uint256"
        }
      ],
      "name": "increaseAllowance",
      "outputs": [
        {
          "internalType": "bool",
          "name": "",
          "type": "bool"
        }
      ],
      "stateMutability": "nonpayable",
      "type": "function"
    },
    {
      "inputs": [
        {
          "internalType": "address",
          "name": "_account",
          "type": "address"
        },
        {
          "internalType": "uint256",
          "name": "_amount",
          "type": "uint256"
        }
      ],
      "name": "mintAllowance",
      "outputs": [],
      "stateMutability": "nonpayable",
      "type": "function"
    },
    {
      "inputs": [],
      "name": "name",
      "outputs": [
        {
          "internalType": "string",
          "name": "",
          "type": "string"
        }
      ],
      "stateMutability": "view",
      "type": "function"
    },
    {
      "inputs": [],
      "name": "poolOwners",
      "outputs": [
        {
          "internalType": "address",
          "name": "",
          "type": "address"
        }
      ],
      "stateMutability": "view",
      "type": "function"
    },
    {
      "inputs": [],
      "name": "symbol",
      "outputs": [
        {
          "internalType": "string",
          "name": "",
          "type": "string"
        }
      ],
      "stateMutability": "view",
      "type": "function"
    },
    {
      "inputs": [],
      "name": "totalSupply",
      "outputs": [
        {
          "internalType": "uint256",
          "name": "",
          "type": "uint256"
        }
      ],
      "stateMutability": "view",
      "type": "function"
    },
    {
      "inputs": [
        {
          "internalType": "address",
          "name": "to",
          "type": "address"
        },
        {
          "internalType": "uint256",
          "name": "amount",
          "type": "uint256"
        }
      ],
      "name": "transfer",
      "outputs": [
        {
          "internalType": "bool",
          "name": "",
          "type": "bool"
        }
      ],
      "stateMutability": "nonpayable",
      "type": "function"
    },
    {
      "inputs": [
        {
          "internalType": "address",
          "name": "_to",
          "type": "address"
        },
        {
          "internalType": "uint256",
          "name": "_value",
          "type": "uint256"
        },
        {
          "internalType": "bytes",
          "name": "_data",
          "type": "bytes"
        }
      ],
      "name": "transferAndCall",
      "outputs": [
        {
          "internalType": "bool",
          "name": "",
          "type": "bool"
        }
      ],
      "stateMutability": "nonpayable",
      "type": "function"
    },
    {
      "inputs": [
        {
          "internalType": "address",
          "name": "from",
          "type": "address"
        },
        {
          "internalType": "address",
          "name": "to",
          "type": "address"
        },
        {
          "internalType": "uint256",
          "name": "amount",
          "type": "uint256"
        }
      ],
      "name": "transferFrom",
      "outputs": [
        {
          "internalType": "bool",
          "name": "",
          "type": "bool"
        }
      ],
      "stateMutability": "nonpayable",
      "type": "function"
    }
  ],
  "transactionHash": "0x2172fa988f4391ea8fc5b7410fdf452f120513788d5a14b1ad6771fdf6466a7f",
  "args": [
    "LINK LinkPool Allowance",
    "linkLPLA",
    "0x9b057dB7e0e165a2B3FdF7d28B6A84F1c9338838"
  ],
  "numDeployments": 1,
  "solcInputHash": "1488552f6849c7a9bc332dc32dd75dca",
  "bytecode": "0x60806040523480156200001157600080fd5b50604051620013663803806200136683398101604081905262000034916200027d565b828260008282600362000048838262000398565b50600462000057828262000398565b50505062000091336200006f620000be60201b60201c565b6200007f9060ff16600a62000579565b6200008b90846200058e565b620000c3565b5050600580546001600160a01b0319166001600160a01b03939093169290921790915550620005cb915050565b601290565b6001600160a01b0382166200011e5760405162461bcd60e51b815260206004820152601f60248201527f45524332303a206d696e7420746f20746865207a65726f206164647265737300604482015260640160405180910390fd5b8060026000828254620001329190620005b0565b90915550506001600160a01b0382166000908152602081905260408120805483929062000161908490620005b0565b90915550506040518181526001600160a01b038316906000907fddf252ad1be2c89b69c2b068fc378daa952ba7f163c4a11628f55a4df523b3ef9060200160405180910390a35050565b505050565b634e487b7160e01b600052604160045260246000fd5b600082601f830112620001d857600080fd5b81516001600160401b0380821115620001f557620001f5620001b0565b604051601f8301601f19908116603f01168101908282118183101715620002205762000220620001b0565b816040528381526020925086838588010111156200023d57600080fd5b600091505b8382101562000261578582018301518183018401529082019062000242565b83821115620002735760008385830101525b9695505050505050565b6000806000606084860312156200029357600080fd5b83516001600160401b0380821115620002ab57600080fd5b620002b987838801620001c6565b94506020860151915080821115620002d057600080fd5b50620002df86828701620001c6565b604086015190935090506001600160a01b0381168114620002ff57600080fd5b809150509250925092565b600181811c908216806200031f57607f821691505b6020821081036200034057634e487b7160e01b600052602260045260246000fd5b50919050565b601f821115620001ab57600081815260208120601f850160051c810160208610156200036f5750805b601f850160051c820191505b8181101562000390578281556001016200037b565b505050505050565b81516001600160401b03811115620003b457620003b4620001b0565b620003cc81620003c584546200030a565b8462000346565b602080601f831160018114620004045760008415620003eb5750858301515b600019600386901b1c1916600185901b17855562000390565b600085815260208120601f198616915b82811015620004355788860151825594840194600190910190840162000414565b5085821015620004545787850151600019600388901b60f8161c191681555b5050505050600190811b01905550565b634e487b7160e01b600052601160045260246000fd5b600181815b80851115620004bb5781600019048211156200049f576200049f62000464565b80851615620004ad57918102915b93841c93908002906200047f565b509250929050565b600082620004d45750600162000573565b81620004e35750600062000573565b8160018114620004fc5760028114620005075762000527565b600191505062000573565b60ff8411156200051b576200051b62000464565b50506001821b62000573565b5060208310610133831016604e8410600b84101617156200054c575081810a62000573565b6200055883836200047a565b80600019048211156200056f576200056f62000464565b0290505b92915050565b6000620005878383620004c3565b9392505050565b6000816000190483118215151615620005ab57620005ab62000464565b500290565b60008219821115620005c657620005c662000464565b500190565b610d8b80620005db6000396000f3fe608060405234801561001057600080fd5b50600436106100f55760003560e01c80633950935111610097578063a457c2d711610066578063a457c2d7146101ee578063a9059cbb14610201578063c375fcfa14610214578063dd62ed3e1461023f57600080fd5b806339509351146101975780634000aea0146101aa57806370a08231146101bd57806395d89b41146101e657600080fd5b80630d99bd6c116100d35780630d99bd6c1461015057806318160ddd1461016357806323b872dd14610175578063313ce5671461018857600080fd5b806306fdde03146100fa57806308641c8614610118578063095ea7b31461012d575b600080fd5b610102610252565b60405161010f9190610adb565b60405180910390f35b61012b610126366004610b4c565b6102e4565b005b61014061013b366004610b4c565b610343565b604051901515815260200161010f565b61012b61015e366004610b4c565b61035b565b6002545b60405190815260200161010f565b610140610183366004610b76565b6103b1565b6040516012815260200161010f565b6101406101a5366004610b4c565b6103d5565b6101406101b8366004610bb2565b6103f7565b6101676101cb366004610c39565b6001600160a01b031660009081526020819052604090205490565b610102610418565b6101406101fc366004610b4c565b610427565b61014061020f366004610b4c565b6104a2565b600554610227906001600160a01b031681565b6040516001600160a01b03909116815260200161010f565b61016761024d366004610c5b565b6104b0565b60606003805461026190610c8e565b80601f016020809104026020016040519081016040528092919081815260200182805461028d90610c8e565b80156102da5780601f106102af576101008083540402835291602001916102da565b820191906000526020600020905b8154815290600101906020018083116102bd57829003601f168201915b5050505050905090565b6005546001600160a01b031633146103355760405162461bcd60e51b815260206004820152600f60248201526e506f6f6c4f776e657273206f6e6c7960881b60448201526064015b60405180910390fd5b61033f82826104db565b5050565b6000336103518185856105ba565b5060019392505050565b6005546001600160a01b031633146103a75760405162461bcd60e51b815260206004820152600f60248201526e506f6f6c4f776e657273206f6e6c7960881b604482015260640161032c565b61033f82826106df565b6000336103bf858285610825565b6103ca85858561089f565b506001949350505050565b6000336103518185856103e883836104b0565b6103f29190610cde565b6105ba565b600061040385856104a2565b50843b156103ca576103ca3386868686610a6d565b60606004805461026190610c8e565b6000338161043582866104b0565b9050838110156104955760405162461bcd60e51b815260206004820152602560248201527f45524332303a2064656372656173656420616c6c6f77616e63652062656c6f77604482015264207a65726f60d81b606482015260840161032c565b6103ca82868684036105ba565b60003361035181858561089f565b6001600160a01b03918216600090815260016020908152604080832093909416825291909152205490565b6001600160a01b0382166105315760405162461bcd60e51b815260206004820152601f60248201527f45524332303a206d696e7420746f20746865207a65726f206164647265737300604482015260640161032c565b80600260008282546105439190610cde565b90915550506001600160a01b03821660009081526020819052604081208054839290610570908490610cde565b90915550506040518181526001600160a01b038316906000907fddf252ad1be2c89b69c2b068fc378daa952ba7f163c4a11628f55a4df523b3ef9060200160405180910390a35050565b6001600160a01b03831661061c5760405162461bcd60e51b8152602060048201526024808201527f45524332303a20617070726f76652066726f6d20746865207a65726f206164646044820152637265737360e01b606482015260840161032c565b6001600160a01b03821661067d5760405162461bcd60e51b815260206004820152602260248201527f45524332303a20617070726f766520746f20746865207a65726f206164647265604482015261737360f01b606482015260840161032c565b6001600160a01b0383811660008181526001602090815260408083209487168084529482529182902085905590518481527f8c5be1e5ebec7d5bd14f71427d1e84f3dd0314c0f7b2291e5b200ac8c7c3b92591015b60405180910390a3505050565b6001600160a01b03821661073f5760405162461bcd60e51b815260206004820152602160248201527f45524332303a206275726e2066726f6d20746865207a65726f206164647265736044820152607360f81b606482015260840161032c565b6001600160a01b038216600090815260208190526040902054818110156107b35760405162461bcd60e51b815260206004820152602260248201527f45524332303a206275726e20616d6f756e7420657863656564732062616c616e604482015261636560f01b606482015260840161032c565b6001600160a01b03831660009081526020819052604081208383039055600280548492906107e2908490610cf6565b90915550506040518281526000906001600160a01b038516907fddf252ad1be2c89b69c2b068fc378daa952ba7f163c4a11628f55a4df523b3ef906020016106d2565b600061083184846104b0565b90506000198114610899578181101561088c5760405162461bcd60e51b815260206004820152601d60248201527f45524332303a20696e73756666696369656e7420616c6c6f77616e6365000000604482015260640161032c565b61089984848484036105ba565b50505050565b6001600160a01b0383166109035760405162461bcd60e51b815260206004820152602560248201527f45524332303a207472616e736665722066726f6d20746865207a65726f206164604482015264647265737360d81b606482015260840161032c565b6001600160a01b0382166109655760405162461bcd60e51b815260206004820152602360248201527f45524332303a207472616e7366657220746f20746865207a65726f206164647260448201526265737360e81b606482015260840161032c565b6001600160a01b038316600090815260208190526040902054818110156109dd5760405162461bcd60e51b815260206004820152602660248201527f45524332303a207472616e7366657220616d6f756e7420657863656564732062604482015265616c616e636560d01b606482015260840161032c565b6001600160a01b03808516600090815260208190526040808220858503905591851681529081208054849290610a14908490610cde565b92505081905550826001600160a01b0316846001600160a01b03167fddf252ad1be2c89b69c2b068fc378daa952ba7f163c4a11628f55a4df523b3ef84604051610a6091815260200190565b60405180910390a3610899565b604051635260769b60e11b815284906001600160a01b0382169063a4c0ed3690610aa1908990889088908890600401610d0d565b600060405180830381600087803b158015610abb57600080fd5b505af1158015610acf573d6000803e3d6000fd5b50505050505050505050565b600060208083528351808285015260005b81811015610b0857858101830151858201604001528201610aec565b81811115610b1a576000604083870101525b50601f01601f1916929092016040019392505050565b80356001600160a01b0381168114610b4757600080fd5b919050565b60008060408385031215610b5f57600080fd5b610b6883610b30565b946020939093013593505050565b600080600060608486031215610b8b57600080fd5b610b9484610b30565b9250610ba260208501610b30565b9150604084013590509250925092565b60008060008060608587031215610bc857600080fd5b610bd185610b30565b935060208501359250604085013567ffffffffffffffff80821115610bf557600080fd5b818701915087601f830112610c0957600080fd5b813581811115610c1857600080fd5b886020828501011115610c2a57600080fd5b95989497505060200194505050565b600060208284031215610c4b57600080fd5b610c5482610b30565b9392505050565b60008060408385031215610c6e57600080fd5b610c7783610b30565b9150610c8560208401610b30565b90509250929050565b600181811c90821680610ca257607f821691505b602082108103610cc257634e487b7160e01b600052602260045260246000fd5b50919050565b634e487b7160e01b600052601160045260246000fd5b60008219821115610cf157610cf1610cc8565b500190565b600082821015610d0857610d08610cc8565b500390565b6001600160a01b0385168152602081018490526060604082018190528101829052818360808301376000818301608090810191909152601f909201601f19160101939250505056fea26469706673582212204bf2daa7d40ea215e85851c1cb037f882facb2007504e06037e716fa188611e964736f6c634300080f0033",
  "devdoc": {
    "details": "Pool staking allowance token",
    "kind": "dev",
    "methods": {
      "allowance(address,address)": {
        "details": "See {IERC20-allowance}."
      },
      "approve(address,uint256)": {
        "details": "See {IERC20-approve}. NOTE: If `amount` is the maximum `uint256`, the allowance is not updated on `transferFrom`. This is semantically equivalent to an infinite approval. Requirements: - `spender` cannot be the zero address."
      },
      "balanceOf(address)": {
        "details": "See {IERC20-balanceOf}."
      },
      "burnAllowance(address,uint256)": {
        "details": "burns allowance tokens",
        "params": {
          "_account": "address to burn tokens from",
          "_amount": "amount to burn*"
        }
      },
      "decimals()": {
        "details": "Returns the number of decimals used to get its user representation. For example, if `decimals` equals `2`, a balance of `505` tokens should be displayed to a user as `5.05` (`505 / 10 ** 2`). Tokens usually opt for a value of 18, imitating the relationship between Ether and Wei. This is the value {ERC20} uses, unless this function is overridden; NOTE: This information is only used for _display_ purposes: it in no way affects any of the arithmetic of the contract, including {IERC20-balanceOf} and {IERC20-transfer}."
      },
      "decreaseAllowance(address,uint256)": {
        "details": "Atomically decreases the allowance granted to `spender` by the caller. This is an alternative to {approve} that can be used as a mitigation for problems described in {IERC20-approve}. Emits an {Approval} event indicating the updated allowance. Requirements: - `spender` cannot be the zero address. - `spender` must have allowance for the caller of at least `subtractedValue`."
      },
      "increaseAllowance(address,uint256)": {
        "details": "Atomically increases the allowance granted to `spender` by the caller. This is an alternative to {approve} that can be used as a mitigation for problems described in {IERC20-approve}. Emits an {Approval} event indicating the updated allowance. Requirements: - `spender` cannot be the zero address."
      },
      "mintAllowance(address,uint256)": {
        "details": "mints allowance tokens",
        "params": {
          "_account": "address to mint tokens for",
          "_amount": "amount to mint*"
        }
      },
      "name()": {
        "details": "Returns the name of the token."
      },
      "symbol()": {
        "details": "Returns the symbol of the token, usually a shorter version of the name."
      },
      "totalSupply()": {
        "details": "See {IERC20-totalSupply}."
      },
      "transfer(address,uint256)": {
        "details": "See {IERC20-transfer}. Requirements: - `to` cannot be the zero address. - the caller must have a balance of at least `amount`."
      },
      "transferFrom(address,address,uint256)": {
        "details": "See {IERC20-transferFrom}. Emits an {Approval} event indicating the updated allowance. This is not required by the EIP. See the note at the beginning of {ERC20}. NOTE: Does not update the allowance if the current allowance is the maximum `uint256`. Requirements: - `from` and `to` cannot be the zero address. - `from` must have a balance of at least `amount`. - the caller must have allowance for ``from``'s tokens of at least `amount`."
      }
    },
    "title": "Pool Allowance",
    "version": 1
  },
  "userdoc": {
    "kind": "user",
    "methods": {},
    "version": 1
  },
  "storageLayout": {
    "storage": [
      {
        "astId": 3928,
        "contract": "contracts/core/test/v1/PoolAllowanceV1.sol:PoolAllowanceV1",
        "label": "_balances",
        "offset": 0,
        "slot": "0",
        "type": "t_mapping(t_address,t_uint256)"
      },
      {
        "astId": 3934,
        "contract": "contracts/core/test/v1/PoolAllowanceV1.sol:PoolAllowanceV1",
        "label": "_allowances",
        "offset": 0,
        "slot": "1",
        "type": "t_mapping(t_address,t_mapping(t_address,t_uint256))"
      },
      {
        "astId": 3936,
        "contract": "contracts/core/test/v1/PoolAllowanceV1.sol:PoolAllowanceV1",
        "label": "_totalSupply",
        "offset": 0,
        "slot": "2",
        "type": "t_uint256"
      },
      {
        "astId": 3938,
        "contract": "contracts/core/test/v1/PoolAllowanceV1.sol:PoolAllowanceV1",
        "label": "_name",
        "offset": 0,
        "slot": "3",
        "type": "t_string_storage"
      },
      {
        "astId": 3940,
        "contract": "contracts/core/test/v1/PoolAllowanceV1.sol:PoolAllowanceV1",
        "label": "_symbol",
        "offset": 0,
        "slot": "4",
        "type": "t_string_storage"
      },
      {
        "astId": 21497,
        "contract": "contracts/core/test/v1/PoolAllowanceV1.sol:PoolAllowanceV1",
        "label": "poolOwners",
        "offset": 0,
        "slot": "5",
        "type": "t_address"
      }
    ],
    "types": {
      "t_address": {
        "encoding": "inplace",
        "label": "address",
        "numberOfBytes": "20"
      },
      "t_mapping(t_address,t_mapping(t_address,t_uint256))": {
        "encoding": "mapping",
        "key": "t_address",
        "label": "mapping(address => mapping(address => uint256))",
        "numberOfBytes": "32",
        "value": "t_mapping(t_address,t_uint256)"
      },
      "t_mapping(t_address,t_uint256)": {
        "encoding": "mapping",
        "key": "t_address",
        "label": "mapping(address => uint256)",
        "numberOfBytes": "32",
        "value": "t_uint256"
      },
      "t_string_storage": {
        "encoding": "bytes",
        "label": "string",
        "numberOfBytes": "32"
      },
      "t_uint256": {
        "encoding": "inplace",
        "label": "uint256",
        "numberOfBytes": "32"
      }
    }
  }
}