{
  "address": "0x86D2AFfd07Ab56F5371FE65f89F63d1B59bC8B12",
  "abi": [
    {
      "inputs": [
        {
          "internalType": "address",
          "name": "_allowanceToken",
          "type": "address"
        }
      ],
      "stateMutability": "nonpayable",
      "type": "constructor"
    },
    {
      "anonymous": false,
      "inputs": [
        {
          "indexed": true,
          "internalType": "address",
          "name": "token",
          "type": "address"
        },
        {
          "indexed": true,
          "internalType": "address",
          "name": "pool",
          "type": "address"
        }
      ],
      "name": "AddPool",
      "type": "event"
    },
    {
      "anonymous": false,
      "inputs": [
        {
          "indexed": true,
          "internalType": "address",
          "name": "previousOwner",
          "type": "address"
        },
        {
          "indexed": true,
          "internalType": "address",
          "name": "newOwner",
          "type": "address"
        }
      ],
      "name": "OwnershipTransferred",
      "type": "event"
    },
    {
      "anonymous": false,
      "inputs": [
        {
          "indexed": true,
          "internalType": "address",
          "name": "token",
          "type": "address"
        },
        {
          "indexed": true,
          "internalType": "address",
          "name": "pool",
          "type": "address"
        }
      ],
      "name": "RemovePool",
      "type": "event"
    },
    {
      "anonymous": false,
      "inputs": [
        {
          "indexed": true,
          "internalType": "address",
          "name": "token",
          "type": "address"
        },
        {
          "indexed": true,
          "internalType": "address",
          "name": "pool",
          "type": "address"
        },
        {
          "indexed": true,
          "internalType": "address",
          "name": "account",
          "type": "address"
        },
        {
          "indexed": false,
          "internalType": "uint256",
          "name": "amount",
          "type": "uint256"
        }
      ],
      "name": "StakeToken",
      "type": "event"
    },
    {
      "anonymous": false,
      "inputs": [
        {
          "indexed": true,
          "internalType": "address",
          "name": "token",
          "type": "address"
        },
        {
          "indexed": true,
          "internalType": "address",
          "name": "pool",
          "type": "address"
        },
        {
          "indexed": true,
          "internalType": "address",
          "name": "account",
          "type": "address"
        },
        {
          "indexed": false,
          "internalType": "uint256",
          "name": "amount",
          "type": "uint256"
        }
      ],
      "name": "WithdrawToken",
      "type": "event"
    },
    {
      "inputs": [
        {
          "internalType": "address",
          "name": "_token",
          "type": "address"
        },
        {
          "internalType": "address",
          "name": "_stakingPool",
          "type": "address"
        },
        {
          "internalType": "enum PoolRouter.PoolStatus",
          "name": "_status",
          "type": "uint8"
        },
        {
          "internalType": "bool",
          "name": "_reservedModeActive",
          "type": "bool"
        }
      ],
      "name": "addPool",
      "outputs": [],
      "stateMutability": "nonpayable",
      "type": "function"
    },
    {
      "inputs": [],
      "name": "allPools",
      "outputs": [
        {
          "components": [
            {
              "internalType": "contract IERC677",
              "name": "token",
              "type": "address"
            },
            {
              "internalType": "contract IStakingPool",
              "name": "stakingPool",
              "type": "address"
            },
            {
              "internalType": "enum PoolRouter.PoolStatus",
              "name": "status",
              "type": "uint8"
            },
            {
              "internalType": "bool",
              "name": "reservedModeActive",
              "type": "bool"
            }
          ],
          "internalType": "struct PoolRouter.Pool[]",
          "name": "poolList",
          "type": "tuple[]"
        }
      ],
      "stateMutability": "view",
      "type": "function"
    },
    {
      "inputs": [],
      "name": "allowanceToken",
      "outputs": [
        {
          "internalType": "contract IERC677",
          "name": "",
          "type": "address"
        }
      ],
      "stateMutability": "view",
      "type": "function"
    },
    {
      "inputs": [
        {
          "internalType": "address",
          "name": "_account",
          "type": "address"
        },
        {
          "internalType": "address",
          "name": "_token",
          "type": "address"
        },
        {
          "internalType": "uint16",
          "name": "_index",
          "type": "uint16"
        }
      ],
      "name": "canDeposit",
      "outputs": [
        {
          "internalType": "uint256",
          "name": "",
          "type": "uint256"
        }
      ],
      "stateMutability": "view",
      "type": "function"
    },
    {
      "inputs": [
        {
          "internalType": "address",
          "name": "_token",
          "type": "address"
        },
        {
          "internalType": "uint16",
          "name": "_index",
          "type": "uint16"
        },
        {
          "internalType": "uint256",
          "name": "_amount",
          "type": "uint256"
        }
      ],
      "name": "canDepositByAllowance",
      "outputs": [
        {
          "internalType": "uint256",
          "name": "",
          "type": "uint256"
        }
      ],
      "stateMutability": "view",
      "type": "function"
    },
    {
      "inputs": [],
      "name": "delegatorPool",
      "outputs": [
        {
          "internalType": "contract IDelegatorPool",
          "name": "",
          "type": "address"
        }
      ],
      "stateMutability": "view",
      "type": "function"
    },
    {
      "inputs": [
        {
          "internalType": "address",
          "name": "_token",
          "type": "address"
        },
        {
          "internalType": "uint16",
          "name": "_index",
          "type": "uint16"
        }
      ],
      "name": "getPool",
      "outputs": [
        {
          "components": [
            {
              "internalType": "contract IERC677",
              "name": "token",
              "type": "address"
            },
            {
              "internalType": "contract IStakingPool",
              "name": "stakingPool",
              "type": "address"
            },
            {
              "internalType": "enum PoolRouter.PoolStatus",
              "name": "status",
              "type": "uint8"
            },
            {
              "internalType": "bool",
              "name": "reservedModeActive",
              "type": "bool"
            }
          ],
          "internalType": "struct PoolRouter.Pool",
          "name": "",
          "type": "tuple"
        }
      ],
      "stateMutability": "view",
      "type": "function"
    },
    {
      "inputs": [],
      "name": "getReservedMultiplier",
      "outputs": [
        {
          "internalType": "uint256",
          "name": "",
          "type": "uint256"
        }
      ],
      "stateMutability": "view",
      "type": "function"
    },
    {
      "inputs": [],
      "name": "isReservedMode",
      "outputs": [
        {
          "internalType": "bool",
          "name": "",
          "type": "bool"
        }
      ],
      "stateMutability": "view",
      "type": "function"
    },
    {
      "inputs": [
        {
          "internalType": "address",
          "name": "_sender",
          "type": "address"
        },
        {
          "internalType": "uint256",
          "name": "_value",
          "type": "uint256"
        },
        {
          "internalType": "bytes",
          "name": "_calldata",
          "type": "bytes"
        }
      ],
      "name": "onTokenTransfer",
      "outputs": [],
      "stateMutability": "nonpayable",
      "type": "function"
    },
    {
      "inputs": [],
      "name": "owner",
      "outputs": [
        {
          "internalType": "address",
          "name": "",
          "type": "address"
        }
      ],
      "stateMutability": "view",
      "type": "function"
    },
    {
      "inputs": [],
      "name": "poolCount",
      "outputs": [
        {
          "internalType": "uint256",
          "name": "",
          "type": "uint256"
        }
      ],
      "stateMutability": "view",
      "type": "function"
    },
    {
      "inputs": [
        {
          "internalType": "address",
          "name": "",
          "type": "address"
        }
      ],
      "name": "poolCountByToken",
      "outputs": [
        {
          "internalType": "uint16",
          "name": "",
          "type": "uint16"
        }
      ],
      "stateMutability": "view",
      "type": "function"
    },
    {
      "inputs": [
        {
          "internalType": "address",
          "name": "_token",
          "type": "address"
        },
        {
          "internalType": "uint16",
          "name": "_index",
          "type": "uint16"
        }
      ],
      "name": "poolUtilisation",
      "outputs": [
        {
          "internalType": "uint256",
          "name": "",
          "type": "uint256"
        }
      ],
      "stateMutability": "view",
      "type": "function"
    },
    {
      "inputs": [
        {
          "internalType": "address",
          "name": "_token",
          "type": "address"
        },
        {
          "internalType": "uint16",
          "name": "_index",
          "type": "uint16"
        }
      ],
      "name": "removePool",
      "outputs": [],
      "stateMutability": "nonpayable",
      "type": "function"
    },
    {
      "inputs": [],
      "name": "renounceOwnership",
      "outputs": [],
      "stateMutability": "nonpayable",
      "type": "function"
    },
    {
      "inputs": [
        {
          "internalType": "address",
          "name": "_delegatorPool",
          "type": "address"
        }
      ],
      "name": "setDelegatorPool",
      "outputs": [],
      "stateMutability": "nonpayable",
      "type": "function"
    },
    {
      "inputs": [
        {
          "internalType": "address",
          "name": "_token",
          "type": "address"
        },
        {
          "internalType": "uint16",
          "name": "_index",
          "type": "uint16"
        },
        {
          "internalType": "enum PoolRouter.PoolStatus",
          "name": "_status",
          "type": "uint8"
        }
      ],
      "name": "setPoolStatus",
      "outputs": [],
      "stateMutability": "nonpayable",
      "type": "function"
    },
    {
      "inputs": [
        {
          "internalType": "address",
          "name": "_token",
          "type": "address"
        },
        {
          "internalType": "uint16",
          "name": "_index",
          "type": "uint16"
        }
      ],
      "name": "setPoolStatusClosed",
      "outputs": [],
      "stateMutability": "nonpayable",
      "type": "function"
    },
    {
      "inputs": [
        {
          "internalType": "address",
          "name": "_token",
          "type": "address"
        },
        {
          "internalType": "uint16",
          "name": "_index",
          "type": "uint16"
        },
        {
          "internalType": "bool",
          "name": "_reservedModeActive",
          "type": "bool"
        }
      ],
      "name": "setReservedModeActive",
      "outputs": [],
      "stateMutability": "nonpayable",
      "type": "function"
    },
    {
      "inputs": [
        {
          "internalType": "uint256",
          "name": "_reservedMultiplier",
          "type": "uint256"
        }
      ],
      "name": "setReservedSpaceMultiplier",
      "outputs": [],
      "stateMutability": "nonpayable",
      "type": "function"
    },
    {
      "inputs": [
        {
          "internalType": "address",
          "name": "_wrappedETH",
          "type": "address"
        }
      ],
      "name": "setWrappedETH",
      "outputs": [],
      "stateMutability": "nonpayable",
      "type": "function"
    },
    {
      "inputs": [
        {
          "internalType": "address",
          "name": "_token",
          "type": "address"
        },
        {
          "internalType": "uint16",
          "name": "_index",
          "type": "uint16"
        },
        {
          "internalType": "uint256",
          "name": "_amount",
          "type": "uint256"
        }
      ],
      "name": "stake",
      "outputs": [],
      "stateMutability": "nonpayable",
      "type": "function"
    },
    {
      "inputs": [
        {
          "internalType": "uint16",
          "name": "_index",
          "type": "uint16"
        }
      ],
      "name": "stakeETH",
      "outputs": [],
      "stateMutability": "payable",
      "type": "function"
    },
    {
      "inputs": [],
      "name": "supportedTokens",
      "outputs": [
        {
          "internalType": "address[]",
          "name": "",
          "type": "address[]"
        }
      ],
      "stateMutability": "view",
      "type": "function"
    },
    {
      "inputs": [
        {
          "internalType": "uint256",
          "name": "",
          "type": "uint256"
        }
      ],
      "name": "tokens",
      "outputs": [
        {
          "internalType": "address",
          "name": "",
          "type": "address"
        }
      ],
      "stateMutability": "view",
      "type": "function"
    },
    {
      "inputs": [
        {
          "internalType": "address",
          "name": "newOwner",
          "type": "address"
        }
      ],
      "name": "transferOwnership",
      "outputs": [],
      "stateMutability": "nonpayable",
      "type": "function"
    },
    {
      "inputs": [
        {
          "internalType": "address",
          "name": "_token",
          "type": "address"
        },
        {
          "internalType": "uint16",
          "name": "_index",
          "type": "uint16"
        },
        {
          "internalType": "uint256",
          "name": "_amount",
          "type": "uint256"
        }
      ],
      "name": "withdraw",
      "outputs": [],
      "stateMutability": "nonpayable",
      "type": "function"
    },
    {
      "inputs": [
        {
          "internalType": "uint16",
          "name": "_index",
          "type": "uint16"
        },
        {
          "internalType": "uint256",
          "name": "_amount",
          "type": "uint256"
        }
      ],
      "name": "withdrawETH",
      "outputs": [],
      "stateMutability": "nonpayable",
      "type": "function"
    },
    {
      "inputs": [],
      "name": "wrappedETH",
      "outputs": [
        {
          "internalType": "address",
          "name": "",
          "type": "address"
        }
      ],
      "stateMutability": "view",
      "type": "function"
    },
    {
      "stateMutability": "payable",
      "type": "receive"
    }
  ],
  "transactionHash": "0xbad10337ea78e9454c9cd0f424fcf2ba818d16b3b6c5b3af227880d83c0cc622",
  "args": [
    "0x9029A794b6032E747c7Cc6Dab9c7485D86705F7b"
  ],
  "numDeployments": 1,
  "solcInputHash": "3b2625e8211dd6eaac71f4a881384a88",
  "bytecode": "0x60a06040523480156200001157600080fd5b50604051620032ab380380620032ab8339810160408190526200003491620000a7565b6200003f3362000057565b6001600160a01b0316608052612710600755620000d9565b600080546001600160a01b038381166001600160a01b0319831681178455604051919092169283917f8be0079c531659141344cd1fd0a4f28419497f9722a3daafe3b4186f6b6457e09190a35050565b600060208284031215620000ba57600080fd5b81516001600160a01b0381168114620000d257600080fd5b9392505050565b6080516131a8620001036000396000818161053e01528181610f9f01526124b101526131a86000f3fe6080604052600436106101d15760003560e01c80639754c2ca116100f7578063cee45d3811610095578063e828f55911610064578063e828f55914610580578063f2fde38b14610593578063f525cb68146105b3578063fe20f16f146105c957600080fd5b8063cee45d38146104ec578063d4a002c01461050c578063d5d67d511461052c578063d9e96d911461056057600080fd5b8063b002249d116100d1578063b002249d14610468578063c5c63e651461048a578063c9b435bd146104ac578063cad37ac4146104cc57600080fd5b80639754c2ca14610403578063a4c0ed3614610423578063a7858f571461044357600080fd5b80634f64b2be1161016f5780636200fed51161013e5780636200fed51461036c578063715018a61461038c578063806f75ba146103a15780638da5cb5b146103e557600080fd5b80634f64b2be146102c757806350fd065b146102ff5780635a840c021461032c5780635deb761f1461034c57600080fd5b80632ed8672d116101ab5780632ed8672d1461023f57806332220a241461025f5780633ecc0b40146102925780634655a26f146102b257600080fd5b80631a8ee3c6146101dd5780632227cc9a146101ff57806323ec62c11461021f57600080fd5b366101d857005b600080fd5b3480156101e957600080fd5b506101fd6101f8366004612aab565b6105e9565b005b34801561020b57600080fd5b506101fd61021a366004612b13565b61087d565b34801561022b57600080fd5b506101fd61023a366004612b13565b6108da565b34801561024b57600080fd5b506101fd61025a366004612b4f565b61093c565b34801561026b57600080fd5b5061027f61027a366004612b92565b610a34565b6040519081526020015b60405180910390f35b34801561029e57600080fd5b506101fd6102ad366004612bcc565b610b5e565b3480156102be57600080fd5b5060075461027f565b3480156102d357600080fd5b506102e76102e2366004612bff565b610bf4565b6040516001600160a01b039091168152602001610289565b34801561030b57600080fd5b5061031f61031a366004612bcc565b610c1e565b6040516102899190612c7f565b34801561033857600080fd5b506101fd610347366004612c8d565b610cdf565b34801561035857600080fd5b506001546102e7906001600160a01b031681565b34801561037857600080fd5b5061027f610387366004612b13565b610e24565b34801561039857600080fd5b506101fd61108b565b3480156103ad57600080fd5b506103d26103bc366004612cb7565b60036020526000908152604090205461ffff1681565b60405161ffff9091168152602001610289565b3480156103f157600080fd5b506000546001600160a01b03166102e7565b34801561040f57600080fd5b506101fd61041e366004612bcc565b61109f565b34801561042f57600080fd5b506101fd61043e366004612cd2565b611568565b34801561044f57600080fd5b5061045861165f565b6040519015158152602001610289565b34801561047457600080fd5b5061047d61172b565b6040516102899190612d59565b34801561049657600080fd5b5061049f61178d565b6040516102899190612da6565b3480156104b857600080fd5b506006546102e7906001600160a01b031681565b3480156104d857600080fd5b506101fd6104e7366004612cb7565b61194f565b3480156104f857600080fd5b5061027f610507366004612bcc565b6119d7565b34801561051857600080fd5b506101fd610527366004612cb7565b611b17565b34801561053857600080fd5b506102e77f000000000000000000000000000000000000000000000000000000000000000081565b34801561056c57600080fd5b506101fd61057b366004612bff565b611b9a565b6101fd61058e366004612de8565b611c03565b34801561059f57600080fd5b506101fd6105ae366004612cb7565b611ccc565b3480156105bf57600080fd5b5061027f60045481565b3480156105d557600080fd5b506101fd6105e4366004612e03565b611d42565b6105f1611d86565b6004805490600061060183612e60565b90915550506001600160a01b03841660009081526003602052604081205461ffff16906002816106318885611de0565b8152602080820192909252604090810160009081206001600160a01b038a1682526003909352908120805492935061ffff909216919061067083612e79565b91906101000a81548161ffff021916908361ffff160217905550508161ffff166000036106e357600580546001810182556000919091527f036b6384b5eca791c62761152d0c79bb0604c104a5fb6f4eb0703f3154bb3db00180546001600160a01b0319166001600160a01b0388161790555b80546001600160a01b038088166001600160a01b031992831617835560018301805491881692821683178155869290916001600160a81b03191617600160a01b83600281111561073557610735612c18565b021790555060018101805460ff60a81b1916600160a81b85151502179055604051636eb1769f60e11b81523060048201526001600160a01b03868116602483015287169063dd62ed3e90604401602060405180830381865afa15801561079f573d6000803e3d6000fd5b505050506040513d601f19601f820116820180604052508101906107c39190612e9a565b6000036107e0576107e06001600160a01b03871686600019611e34565b604051630e16611f60e01b815261ffff831660048201526001600160a01b03861690630e16611f90602401600060405180830381600087803b15801561082557600080fd5b505af1158015610839573d6000803e3d6000fd5b50506040516001600160a01b038089169350891691507f062107fcb2a202af1ba617d851daca9ade2580ccf29e346770119cc10b015f0790600090a3505050505050565b6001600160a01b038316600090815260036020526040902054839061ffff808516911681106108c75760405162461bcd60e51b81526004016108be90612eb3565b60405180910390fd5b6108d385858533611f7c565b5050505050565b6001600160a01b038316600090815260036020526040902054839061ffff8085169116811061091b5760405162461bcd60e51b81526004016108be90612eb3565b6109306001600160a01b0386163330866121bc565b6108d3858533866121fa565b6001600160a01b038316600090815260036020526040902054839061ffff8085169116811061097d5760405162461bcd60e51b81526004016108be90612eb3565b610985611d86565b600283600281111561099957610999612c18565b036109e65760405162461bcd60e51b815260206004820152601b60248201527f43616e6e6f74207365742073746174757320746f20434c4f534544000000000060448201526064016108be565b82600260006109f58888611de0565b81526020810191909152604001600020600101805460ff60a01b1916600160a01b836002811115610a2857610a28612c18565b02179055505050505050565b6001600160a01b038216600090815260036020526040812054839061ffff80851691168110610a755760405162461bcd60e51b81526004016108be90612eb3565b600060026000610a858888611de0565b815260208101919091526040016000908120600101546001600160a01b03169150600281610ab38989611de0565b815260200190815260200160002060010160159054906101000a900460ff1690506000826001600160a01b031663e78a58756040518163ffffffff1660e01b8152600401602060405180830381865afa158015610b14573d6000803e3d6000fd5b505050506040513d601f19601f82011682018060405250810190610b389190612e9a565b905081610b455780610b51565b610b5189898984612392565b9998505050505050505050565b6001600160a01b038216600090815260036020526040902054829061ffff80841691168110610b9f5760405162461bcd60e51b81526004016108be90612eb3565b610ba7611d86565b6002806000610bb68787611de0565b81526020810191909152604001600020600101805460ff60a01b1916600160a01b836002811115610be957610be9612c18565b021790555050505050565b60058181548110610c0457600080fd5b6000918252602090912001546001600160a01b0316905081565b60408051608081018252600080825260208201819052918101829052606081019190915260026000610c508585611de0565b81526020808201929092526040908101600020815160808101835281546001600160a01b039081168252600183015490811694820194909452929091830190600160a01b900460ff166002811115610caa57610caa612c18565b6002811115610cbb57610cbb612c18565b815260019190910154600160a81b900460ff16151560209091015290505b92915050565b6006546001600160a01b031660008181526003602052604090205461ffff80851691168110610d205760405162461bcd60e51b81526004016108be90612eb3565b600654610d38906001600160a01b0316858530611f7c565b600654604051636f074d1f60e11b8152600481018590526001600160a01b039091169063de0e9a3e90602401600060405180830381600087803b158015610d7e57600080fd5b505af1158015610d92573d6000803e3d6000fd5b50506040516000925033915085908381818185875af1925050503d8060008114610dd8576040519150601f19603f3d011682016040523d82523d6000602084013e610ddd565b606091505b50509050806108d35760405162461bcd60e51b8152602060048201526013602482015272115512081d1c985b9cd9995c8819985a5b1959606a1b60448201526064016108be565b6001600160a01b038316600090815260036020526040812054849061ffff80861691168110610e655760405162461bcd60e51b81526004016108be90612eb3565b600060026000610e758989611de0565b815260208101919091526040016000908120600101546001600160a01b03169150600281610ea38a8a611de0565b815260200190815260200160002060010160159054906101000a900460ff1690506000826001600160a01b031663e78a58756040518163ffffffff1660e01b8152600401602060405180830381865afa158015610f04573d6000803e3d6000fd5b505050506040513d601f19601f82011682018060405250810190610f289190612e9a565b90506000600754612710670de0b6b3a7640000866001600160a01b031663b7b7a4086040518163ffffffff1660e01b8152600401602060405180830381865afa158015610f79573d6000803e3d6000fd5b505050506040513d601f19601f82011682018060405250810190610f9d9190612e9a565b7f00000000000000000000000000000000000000000000000000000000000000006001600160a01b03166318160ddd6040518163ffffffff1660e01b8152600401602060405180830381865afa158015610ffb573d6000803e3d6000fd5b505050506040513d601f19601f8201168201806040525081019061101f9190612e9a565b6110318d670de0b6b3a7640000612ee0565b61103b9190612eff565b6110459190612ee0565b61104f9190612eff565b6110599190612eff565b6110639190612ee0565b905082158061107157508181115b61107b578061107d565b815b9a9950505050505050505050565b611093611d86565b61109d60006126f1565b565b6110a7611d86565b6001600160a01b038216600090815260036020526040902054829061ffff808416911681106110e85760405162461bcd60e51b81526004016108be90612eb3565b6000600260006110f88787611de0565b81526020808201929092526040908101600020600181015482516318160ddd60e01b815292519194506001600160a01b0316926318160ddd92600480820193918290030181865afa158015611151573d6000803e3d6000fd5b505050506040513d601f19601f820116820180604052508101906111759190612e9a565b156111d65760405162461bcd60e51b815260206004820152602b60248201527f43616e206f6e6c792072656d6f7665206120706f6f6c2077697468206e6f206160448201526a6374697665207374616b6560a81b60648201526084016108be565b60018101546040516001600160a01b03918216918716907f11daeca081340bd5e0254b4da4c8b19999daec3f6cc08b25c6ca5655281be9a090600090a36001600160a01b03851660009081526003602052604081205461123c9060019061ffff16612f21565b90508061ffff168561ffff161461139b576002600061125b8884611de0565b8152602001908152602001600020600260006112778989611de0565b81526020810191909152604001600020815481546001600160a01b03199081166001600160a01b039283161783556001808501805491850180549384169290941691821784555460ff600160a01b918290041693926001600160a81b031916909117908360028111156112ec576112ec612c18565b02179055506001918201549101805460ff60a81b1916600160a81b9283900460ff161515909202919091179055600260006113278888611de0565b815260208101919091526040908101600020600101549051630e16611f60e01b815261ffff871660048201526001600160a01b0390911690630e16611f90602401600060405180830381600087803b15801561138257600080fd5b505af1158015611396573d6000803e3d6000fd5b505050505b600260006113a98884611de0565b81526020808201929092526040908101600090812080546001600160a01b031916815560010180546001600160b01b03191690556001600160a01b038916815260039092528120805461ffff169161140083612f44565b91906101000a81548161ffff021916908361ffff160217905550506004600081548092919061142e90612f62565b90915550506001600160a01b03861660009081526003602052604081205461ffff1690036115605760005b60055481101561155e57866001600160a01b03166005828154811061148057611480612f79565b6000918252602090912001546001600160a01b03160361154c57600580546114aa90600190612f8f565b815481106114ba576114ba612f79565b600091825260209091200154600580546001600160a01b0390921691839081106114e6576114e6612f79565b9060005260206000200160006101000a8154816001600160a01b0302191690836001600160a01b03160217905550600580548061152557611525612fa6565b600082815260209020810160001990810180546001600160a01b031916905501905561155e565b8061155681612e60565b915050611459565b505b505050505050565b3360009081526003602052604090205461ffff166115d25760405162461bcd60e51b815260206004820152602160248201527f4f6e6c792063616c6c61626c6520627920737570706f7274656420746f6b656e6044820152607360f81b60648201526084016108be565b600061161b61161684848080601f01602080910402602001604051908101604052809392919081815260200183838082843760009201919091525061274192505050565b6127c6565b3360009081526003602052604090205490915061ffff8083169116116116535760405162461bcd60e51b81526004016108be90612eb3565b6108d3338287876121fa565b6000805b6005548110156117235760006005828154811061168257611682612f79565b60009182526020822001546001600160a01b031691505b6001600160a01b03821660009081526003602052604090205461ffff908116908216101561170e57600260006116cf8484611de0565b8152602081019190915260400160002060010154600160a81b900460ff16156116fc576001935050505090565b8061170681612e79565b915050611699565b5050808061171b90612e60565b915050611663565b506000905090565b6060600580548060200260200160405190810160405280929190818152602001828054801561178357602002820191906000526020600020905b81546001600160a01b03168152600190910190602001808311611765575b5050505050905090565b606060045467ffffffffffffffff8111156117aa576117aa612fbc565b6040519080825280602002602001820160405280156117fc57816020015b6040805160808101825260008082526020808301829052928201819052606082015282526000199092019101816117c85790505b5090506000805b60055481101561194a5760006005828154811061182257611822612f79565b60009182526020822001546001600160a01b031691505b6001600160a01b03821660009081526003602052604090205461ffff9081169082161015611935576002600061186f8484611de0565b81526020808201929092526040908101600020815160808101835281546001600160a01b039081168252600183015490811694820194909452929091830190600160a01b900460ff1660028111156118c9576118c9612c18565b60028111156118da576118da612c18565b815260019190910154600160a81b900460ff161515602090910152855186908690811061190957611909612f79565b6020026020010181905250838061191f90612e60565b945050808061192d90612e79565b915050611839565b5050808061194290612e60565b915050611803565b505090565b611957611d86565b6006546001600160a01b0316156119a95760405162461bcd60e51b81526020600482015260166024820152751ddc985c1c195911551208185b1c9958591e481cd95d60521b60448201526064016108be565b600680546001600160a01b0319166001600160a01b0383169081179091556119d49082600019611e34565b50565b600080600260006119e88686611de0565b815260200190815260200160002060010160009054906101000a90046001600160a01b031690506000816001600160a01b03166318160ddd6040518163ffffffff1660e01b8152600401602060405180830381865afa158015611a4f573d6000803e3d6000fd5b505050506040513d601f19601f82011682018060405250810190611a739190612e9a565b90506000826001600160a01b031663b7b7a4086040518163ffffffff1660e01b8152600401602060405180830381865afa158015611ab5573d6000803e3d6000fd5b505050506040513d601f19601f82011682018060405250810190611ad99190612e9a565b9050818111611af057670de0b6b3a7640000611b0d565b80611b0383670de0b6b3a7640000612ee0565b611b0d9190612eff565b9695505050505050565b611b1f611d86565b6001546001600160a01b031615611b785760405162461bcd60e51b815260206004820152601960248201527f64656c656761746f72506f6f6c20616c7265616479207365740000000000000060448201526064016108be565b600180546001600160a01b0319166001600160a01b0392909216919091179055565b611ba2611d86565b612710811015611bfe5760405162461bcd60e51b815260206004820152602160248201527f496e76616c6964207265736572766564207370616365206d756c7469706c69656044820152603960f91b60648201526084016108be565b600755565b6006546001600160a01b031660008181526003602052604090205461ffff80841691168110611c445760405162461bcd60e51b81526004016108be90612eb3565b600660009054906101000a90046001600160a01b03166001600160a01b031663d46eb119346040518263ffffffff1660e01b81526004016000604051808303818588803b158015611c9457600080fd5b505af1158015611ca8573d6000803e3d6000fd5b5050600654611cc793506001600160a01b0316915085905033346121fa565b505050565b611cd4611d86565b6001600160a01b038116611d395760405162461bcd60e51b815260206004820152602660248201527f4f776e61626c653a206e6577206f776e657220697320746865207a65726f206160448201526564647265737360d01b60648201526084016108be565b6119d4816126f1565b611d4a611d86565b8060026000611d598686611de0565b815260200190815260200160002060010160156101000a81548160ff021916908315150217905550505050565b6000546001600160a01b0316331461109d5760405162461bcd60e51b815260206004820181905260248201527f4f776e61626c653a2063616c6c6572206973206e6f7420746865206f776e657260448201526064016108be565b6040516bffffffffffffffffffffffff19606084901b1660208201526001600160f01b031960f083901b16603482015260009060360160405160208183030381529060405280519060200120905092915050565b801580611eae5750604051636eb1769f60e11b81523060048201526001600160a01b03838116602483015284169063dd62ed3e90604401602060405180830381865afa158015611e88573d6000803e3d6000fd5b505050506040513d601f19601f82011682018060405250810190611eac9190612e9a565b155b611f195760405162461bcd60e51b815260206004820152603660248201527f5361666545524332303a20617070726f76652066726f6d206e6f6e2d7a65726f60448201527520746f206e6f6e2d7a65726f20616c6c6f77616e636560501b60648201526084016108be565b6040516001600160a01b038316602482015260448101829052611cc790849063095ea7b360e01b906064015b60408051601f198184030181529190526020810180516001600160e01b03166001600160e01b03199093169290921790915261282d565b6001600160a01b038416600090815260036020526040902054849061ffff80861691168110611fbd5760405162461bcd60e51b81526004016108be90612eb3565b600060026000611fcd8989611de0565b81526020810191909152604001600020905060026001820154600160a01b900460ff16600281111561200157612001612c18565b0361203f5760405162461bcd60e51b815260206004820152600e60248201526d141bdbdb081a5cc818db1bdcd95960921b60448201526064016108be565b60018101546040516370a0823160e01b815233600482015286916001600160a01b0316906370a0823190602401602060405180830381865afa158015612089573d6000803e3d6000fd5b505050506040513d601f19601f820116820180604052508101906120ad9190612e9a565b10156120fb5760405162461bcd60e51b815260206004820152601d60248201527f416d6f756e742065786365656473207374616b65642062616c616e636500000060448201526064016108be565b6001810154604051636ce5768960e11b81523360048201526001600160a01b038681166024830152604482018890529091169063d9caed1290606401600060405180830381600087803b15801561215157600080fd5b505af1158015612165573d6000803e3d6000fd5b50505050600181015460405186815233916001600160a01b0390811691908a16907f9ca7c1e047552a8048d924a5a8d3c150eb861086a72a9100e5f19d1176c1b7469060200160405180910390a450505050505050565b6040516001600160a01b03808516602483015283166044820152606481018290526121f49085906323b872dd60e01b90608401611f45565b50505050565b60006002600061220a8787611de0565b81526020810191909152604001600090812091506001820154600160a01b900460ff16600281111561223e5761223e612c18565b1461227e5760405162461bcd60e51b815260206004820152601060248201526f2837b7b61034b9903737ba1037b832b760811b60448201526064016108be565b612289838686610a34565b8211156122d85760405162461bcd60e51b815260206004820152601b60248201527f4e6f7420656e6f75676820616c6c6f77616e6365207374616b6564000000000060448201526064016108be565b60018101546040516356e4bb9760e11b81526001600160a01b038581166004830152602482018590529091169063adc9772e90604401600060405180830381600087803b15801561232857600080fd5b505af115801561233c573d6000803e3d6000fd5b5050505060018101546040518381526001600160a01b0385811692811691908816907fd46e45142c548829c0f026ff22529fb4186efea39ebb19eaf04bf0627532a74f9060200160405180910390a45050505050565b600080600260006123a38787611de0565b815260208101919091526040908101600020600190810154905491516370a0823160e01b81526001600160a01b03898116600483015291821693509116906370a0823190602401602060405180830381865afa158015612407573d6000803e3d6000fd5b505050506040513d601f19601f8201168201806040525081019061242b9190612e9a565b60000361243c5760009150506126e9565b6000600754612710670de0b6b3a7640000846001600160a01b031663b7b7a4086040518163ffffffff1660e01b8152600401602060405180830381865afa15801561248b573d6000803e3d6000fd5b505050506040513d601f19601f820116820180604052508101906124af9190612e9a565b7f00000000000000000000000000000000000000000000000000000000000000006001600160a01b03166318160ddd6040518163ffffffff1660e01b8152600401602060405180830381865afa15801561250d573d6000803e3d6000fd5b505050506040513d601f19601f820116820180604052508101906125319190612e9a565b6001546040516370a0823160e01b81526001600160a01b038e81166004830152909116906370a0823190602401602060405180830381865afa15801561257b573d6000803e3d6000fd5b505050506040513d601f19601f8201168201806040525081019061259f9190612e9a565b6125b190670de0b6b3a7640000612ee0565b6125bb9190612eff565b6125c59190612ee0565b6125cf9190612eff565b6125d99190612eff565b6125e39190612ee0565b6040516370a0823160e01b81526001600160a01b03898116600483015291925082918416906370a0823190602401602060405180830381865afa15801561262e573d6000803e3d6000fd5b505050506040513d601f19601f820116820180604052508101906126529190612e9a565b10612662576000925050506126e9565b8381116126e2576040516370a0823160e01b81526001600160a01b0388811660048301528316906370a0823190602401602060405180830381865afa1580156126af573d6000803e3d6000fd5b505050506040513d601f19601f820116820180604052508101906126d39190612e9a565b6126dd9082612f8f565b6126e4565b835b925050505b949350505050565b600080546001600160a01b038381166001600160a01b0319831681178455604051919092169283917f8be0079c531659141344cd1fd0a4f28419497f9722a3daafe3b4186f6b6457e09190a35050565b60008060005b83518110156127bf5761275b816001612fd2565b84516127679190612f8f565b612772906008612ee0565b61277d9060026130ce565b84828151811061278f5761278f612f79565b01602001516127a1919060f81c612ee0565b6127ab9083612fd2565b9150806127b781612e60565b915050612747565b5092915050565b600061ffff8211156128295760405162461bcd60e51b815260206004820152602660248201527f53616665436173743a2076616c756520646f65736e27742066697420696e203160448201526536206269747360d01b60648201526084016108be565b5090565b6000612882826040518060400160405280602081526020017f5361666545524332303a206c6f772d6c6576656c2063616c6c206661696c6564815250856001600160a01b03166128ff9092919063ffffffff16565b805190915015611cc757808060200190518101906128a091906130da565b611cc75760405162461bcd60e51b815260206004820152602a60248201527f5361666545524332303a204552433230206f7065726174696f6e20646964206e6044820152691bdd081cdd58d8d9595960b21b60648201526084016108be565b606061290e8484600085612918565b90505b9392505050565b6060824710156129795760405162461bcd60e51b815260206004820152602660248201527f416464726573733a20696e73756666696369656e742062616c616e636520666f6044820152651c8818d85b1b60d21b60648201526084016108be565b6001600160a01b0385163b6129d05760405162461bcd60e51b815260206004820152601d60248201527f416464726573733a2063616c6c20746f206e6f6e2d636f6e747261637400000060448201526064016108be565b600080866001600160a01b031685876040516129ec9190613123565b60006040518083038185875af1925050503d8060008114612a29576040519150601f19603f3d011682016040523d82523d6000602084013e612a2e565b606091505b50915091506126e482828660608315612a48575081612911565b825115612a585782518084602001fd5b8160405162461bcd60e51b81526004016108be919061313f565b80356001600160a01b0381168114612a8957600080fd5b919050565b803560038110612a8957600080fd5b80151581146119d457600080fd5b60008060008060808587031215612ac157600080fd5b612aca85612a72565b9350612ad860208601612a72565b9250612ae660408601612a8e565b91506060850135612af681612a9d565b939692955090935050565b803561ffff81168114612a8957600080fd5b600080600060608486031215612b2857600080fd5b612b3184612a72565b9250612b3f60208501612b01565b9150604084013590509250925092565b600080600060608486031215612b6457600080fd5b612b6d84612a72565b9250612b7b60208501612b01565b9150612b8960408501612a8e565b90509250925092565b600080600060608486031215612ba757600080fd5b612bb084612a72565b9250612bbe60208501612a72565b9150612b8960408501612b01565b60008060408385031215612bdf57600080fd5b612be883612a72565b9150612bf660208401612b01565b90509250929050565b600060208284031215612c1157600080fd5b5035919050565b634e487b7160e01b600052602160045260246000fd5b80516001600160a01b03908116835260208083015190911690830152604081015160038110612c6d57634e487b7160e01b600052602160045260246000fd5b60408301526060908101511515910152565b60808101610cd98284612c2e565b60008060408385031215612ca057600080fd5b612ca983612b01565b946020939093013593505050565b600060208284031215612cc957600080fd5b61291182612a72565b60008060008060608587031215612ce857600080fd5b612cf185612a72565b935060208501359250604085013567ffffffffffffffff80821115612d1557600080fd5b818701915087601f830112612d2957600080fd5b813581811115612d3857600080fd5b886020828501011115612d4a57600080fd5b95989497505060200194505050565b6020808252825182820181905260009190848201906040850190845b81811015612d9a5783516001600160a01b031683529284019291840191600101612d75565b50909695505050505050565b6020808252825182820181905260009190848201906040850190845b81811015612d9a57612dd5838551612c2e565b9284019260809290920191600101612dc2565b600060208284031215612dfa57600080fd5b61291182612b01565b600080600060608486031215612e1857600080fd5b612e2184612a72565b9250612e2f60208501612b01565b91506040840135612e3f81612a9d565b809150509250925092565b634e487b7160e01b600052601160045260246000fd5b600060018201612e7257612e72612e4a565b5060010190565b600061ffff808316818103612e9057612e90612e4a565b6001019392505050565b600060208284031215612eac57600080fd5b5051919050565b602080825260139082015272141bdbdb08191bd95cc81b9bdd08195e1a5cdd606a1b604082015260600190565b6000816000190483118215151615612efa57612efa612e4a565b500290565b600082612f1c57634e487b7160e01b600052601260045260246000fd5b500490565b600061ffff83811690831681811015612f3c57612f3c612e4a565b039392505050565b600061ffff821680612f5857612f58612e4a565b6000190192915050565b600081612f7157612f71612e4a565b506000190190565b634e487b7160e01b600052603260045260246000fd5b600082821015612fa157612fa1612e4a565b500390565b634e487b7160e01b600052603160045260246000fd5b634e487b7160e01b600052604160045260246000fd5b60008219821115612fe557612fe5612e4a565b500190565b600181815b8085111561302557816000190482111561300b5761300b612e4a565b8085161561301857918102915b93841c9390800290612fef565b509250929050565b60008261303c57506001610cd9565b8161304957506000610cd9565b816001811461305f576002811461306957613085565b6001915050610cd9565b60ff84111561307a5761307a612e4a565b50506001821b610cd9565b5060208310610133831016604e8410600b84101617156130a8575081810a610cd9565b6130b28383612fea565b80600019048211156130c6576130c6612e4a565b029392505050565b6000612911838361302d565b6000602082840312156130ec57600080fd5b815161291181612a9d565b60005b838110156131125781810151838201526020016130fa565b838111156121f45750506000910152565b600082516131358184602087016130f7565b9190910192915050565b602081526000825180602084015261315e8160408501602087016130f7565b601f01601f1916919091016040019291505056fea2646970667358221220b42110391773279fe8ff5d62952b7b6bb630f0b40b8b9320186dbb7d80fe119664736f6c634300080f0033",
  "devdoc": {
    "details": "Handles staking allowances and acts as a proxy for staking pools",
    "kind": "dev",
    "methods": {
      "addPool(address,address,uint8,bool)": {
        "params": {
          "_stakingPool": "token staking pool*",
          "_token": "staking token to add"
        }
      },
      "allPools()": {
        "returns": {
          "poolList": "list of all pools*"
        }
      },
      "canDeposit(address,address,uint16)": {
        "params": {
          "_account": "account address",
          "_index": "pool index",
          "_token": "the token address used by the staking pool"
        },
        "returns": {
          "_0": "amount that can be deposited*"
        }
      },
      "canDepositByAllowance(address,uint16,uint256)": {
        "params": {
          "_amount": "amount of allowance",
          "_index": "pool index",
          "_token": "the token address used by the staking pool"
        },
        "returns": {
          "_0": "amount that can be deposited*"
        }
      },
      "getPool(address,uint16)": {
        "params": {
          "_index": "pool index",
          "_token": "pool token"
        }
      },
      "getReservedMultiplier()": {
        "returns": {
          "_0": "reservedMultiplier multiplier"
        }
      },
      "isReservedMode()": {
        "returns": {
          "_0": "reservedModeActive true/false"
        }
      },
      "onTokenTransfer(address,uint256,bytes)": {
        "params": {
          "_calldata": "pool index*",
          "_sender": "of the token transfer",
          "_value": "of the token transfer"
        }
      },
      "owner()": {
        "details": "Returns the address of the current owner."
      },
      "poolUtilisation(address,uint16)": {
        "params": {
          "_index": "pool index",
          "_token": "pool token"
        },
        "returns": {
          "_0": "poolUtilisation percentage full (0-10000)"
        }
      },
      "removePool(address,uint16)": {
        "params": {
          "_index": "index of pool to remove*",
          "_token": "staking token"
        }
      },
      "renounceOwnership()": {
        "details": "Leaves the contract without owner. It will not be possible to call `onlyOwner` functions anymore. Can only be called by the current owner. NOTE: Renouncing ownership will leave the contract without an owner, thereby removing any functionality that is only available to the owner."
      },
      "setDelegatorPool(address)": {
        "details": "must be set for pool router to work",
        "params": {
          "_delegatorPool": "delegator pool address*"
        }
      },
      "setPoolStatus(address,uint16,uint8)": {
        "params": {
          "_index": "pool index",
          "_status": "pool status",
          "_token": "pool token"
        }
      },
      "setPoolStatusClosed(address,uint16)": {
        "params": {
          "_index": "pool index",
          "_token": "pool token"
        }
      },
      "setReservedModeActive(address,uint16,bool)": {
        "params": {
          "_index": "pool index",
          "_reservedModeActive": "whether it is reserved only*",
          "_token": "pool token"
        }
      },
      "setReservedSpaceMultiplier(uint256)": {
        "params": {
          "_reservedMultiplier": "multiplier*"
        }
      },
      "setWrappedETH(address)": {
        "details": "must be set for ETH staking to work, can only be set once",
        "params": {
          "_wrappedETH": "wrapped ETH token to set*"
        }
      },
      "stake(address,uint16,uint256)": {
        "params": {
          "_amount": "amount to stake*",
          "_index": "index of pool to stake in",
          "_token": "token to stake"
        }
      },
      "stakeETH(uint16)": {
        "params": {
          "_index": "index of pool to stake in*"
        }
      },
      "supportedTokens()": {
        "returns": {
          "_0": "list of tokens*"
        }
      },
      "transferOwnership(address)": {
        "details": "Transfers ownership of the contract to a new account (`newOwner`). Can only be called by the current owner."
      },
      "withdraw(address,uint16,uint256)": {
        "params": {
          "_amount": "amount to withdraw*",
          "_index": "pool index",
          "_token": "token to withdraw"
        }
      },
      "withdrawETH(uint16,uint256)": {
        "params": {
          "_amount": "amount to withdraw*",
          "_index": "pool index"
        }
      }
    },
    "title": "PoolRouter",
    "version": 1
  },
  "userdoc": {
    "kind": "user",
    "methods": {
      "addPool(address,address,uint8,bool)": {
        "notice": "adds a new pool"
      },
      "allPools()": {
        "notice": "Fetch a list of all pools"
      },
      "canDeposit(address,address,uint16)": {
        "notice": "calculates the amount of stake an account can deposit based on it's allowance staked"
      },
      "canDepositByAllowance(address,uint16,uint256)": {
        "notice": "calculates the amount of stake that can be deposited for an amount of allowance"
      },
      "getPool(address,uint16)": {
        "notice": "Returns a pool"
      },
      "getReservedMultiplier()": {
        "notice": "returns the allocation multiplier while in reserved mode"
      },
      "isReservedMode()": {
        "notice": "returns whether any pool is in reserved mode"
      },
      "onTokenTransfer(address,uint256,bytes)": {
        "notice": "ERC677 implementation to receive a token stake"
      },
      "poolUtilisation(address,uint16)": {
        "notice": "returns the percentange utilisation of the pool"
      },
      "removePool(address,uint16)": {
        "notice": "removes an existing pool"
      },
      "setDelegatorPool(address)": {
        "notice": "sets the delegator pool address"
      },
      "setPoolStatus(address,uint16,uint8)": {
        "notice": "sets a pool's status"
      },
      "setPoolStatusClosed(address,uint16)": {
        "notice": "sets a pool's status to CLOSED"
      },
      "setReservedModeActive(address,uint16,bool)": {
        "notice": "sets whether a pool is reserved by only the allowance stakers"
      },
      "setReservedSpaceMultiplier(uint256)": {
        "notice": "sets the multiplier for stake per allowance when the pool has reserved space for allowance stakers"
      },
      "setWrappedETH(address)": {
        "notice": "sets the wrapped ETH token"
      },
      "stake(address,uint16,uint256)": {
        "notice": "stakes tokens in a staking pool"
      },
      "stakeETH(uint16)": {
        "notice": "wraps ETH and stakes wrapped ETH in a staking pool"
      },
      "supportedTokens()": {
        "notice": "Returns a list of all supported tokens"
      },
      "withdraw(address,uint16,uint256)": {
        "notice": "withdraws tokens from a staking pool"
      },
      "withdrawETH(uint16,uint256)": {
        "notice": "withdraws wrapped ETH from a staking pool and unwraps"
      }
    },
    "version": 1
  },
  "storageLayout": {
    "storage": [
      {
        "astId": 3767,
        "contract": "contracts/core/PoolRouter.sol:PoolRouter",
        "label": "_owner",
        "offset": 0,
        "slot": "0",
        "type": "t_address"
      },
      {
        "astId": 14450,
        "contract": "contracts/core/PoolRouter.sol:PoolRouter",
        "label": "delegatorPool",
        "offset": 0,
        "slot": "1",
        "type": "t_contract(IDelegatorPool)19629"
      },
      {
        "astId": 14455,
        "contract": "contracts/core/PoolRouter.sol:PoolRouter",
        "label": "pools",
        "offset": 0,
        "slot": "2",
        "type": "t_mapping(t_bytes32,t_struct(Pool)14444_storage)"
      },
      {
        "astId": 14459,
        "contract": "contracts/core/PoolRouter.sol:PoolRouter",
        "label": "poolCountByToken",
        "offset": 0,
        "slot": "3",
        "type": "t_mapping(t_address,t_uint16)"
      },
      {
        "astId": 14461,
        "contract": "contracts/core/PoolRouter.sol:PoolRouter",
        "label": "poolCount",
        "offset": 0,
        "slot": "4",
        "type": "t_uint256"
      },
      {
        "astId": 14464,
        "contract": "contracts/core/PoolRouter.sol:PoolRouter",
        "label": "tokens",
        "offset": 0,
        "slot": "5",
        "type": "t_array(t_address)dyn_storage"
      },
      {
        "astId": 14466,
        "contract": "contracts/core/PoolRouter.sol:PoolRouter",
        "label": "wrappedETH",
        "offset": 0,
        "slot": "6",
        "type": "t_address"
      },
      {
        "astId": 14468,
        "contract": "contracts/core/PoolRouter.sol:PoolRouter",
        "label": "reservedMultiplier",
        "offset": 0,
        "slot": "7",
        "type": "t_uint256"
      }
    ],
    "types": {
      "t_address": {
        "encoding": "inplace",
        "label": "address",
        "numberOfBytes": "20"
      },
      "t_array(t_address)dyn_storage": {
        "base": "t_address",
        "encoding": "dynamic_array",
        "label": "address[]",
        "numberOfBytes": "32"
      },
      "t_bool": {
        "encoding": "inplace",
        "label": "bool",
        "numberOfBytes": "1"
      },
      "t_bytes32": {
        "encoding": "inplace",
        "label": "bytes32",
        "numberOfBytes": "32"
      },
      "t_contract(IDelegatorPool)19629": {
        "encoding": "inplace",
        "label": "contract IDelegatorPool",
        "numberOfBytes": "20"
      },
      "t_contract(IERC677)19646": {
        "encoding": "inplace",
        "label": "contract IERC677",
        "numberOfBytes": "20"
      },
      "t_contract(IStakingPool)19818": {
        "encoding": "inplace",
        "label": "contract IStakingPool",
        "numberOfBytes": "20"
      },
      "t_enum(PoolStatus)14432": {
        "encoding": "inplace",
        "label": "enum PoolRouter.PoolStatus",
        "numberOfBytes": "1"
      },
      "t_mapping(t_address,t_uint16)": {
        "encoding": "mapping",
        "key": "t_address",
        "label": "mapping(address => uint16)",
        "numberOfBytes": "32",
        "value": "t_uint16"
      },
      "t_mapping(t_bytes32,t_struct(Pool)14444_storage)": {
        "encoding": "mapping",
        "key": "t_bytes32",
        "label": "mapping(bytes32 => struct PoolRouter.Pool)",
        "numberOfBytes": "32",
        "value": "t_struct(Pool)14444_storage"
      },
      "t_struct(Pool)14444_storage": {
        "encoding": "inplace",
        "label": "struct PoolRouter.Pool",
        "members": [
          {
            "astId": 14435,
            "contract": "contracts/core/PoolRouter.sol:PoolRouter",
            "label": "token",
            "offset": 0,
            "slot": "0",
            "type": "t_contract(IERC677)19646"
          },
          {
            "astId": 14438,
            "contract": "contracts/core/PoolRouter.sol:PoolRouter",
            "label": "stakingPool",
            "offset": 0,
            "slot": "1",
            "type": "t_contract(IStakingPool)19818"
          },
          {
            "astId": 14441,
            "contract": "contracts/core/PoolRouter.sol:PoolRouter",
            "label": "status",
            "offset": 20,
            "slot": "1",
            "type": "t_enum(PoolStatus)14432"
          },
          {
            "astId": 14443,
            "contract": "contracts/core/PoolRouter.sol:PoolRouter",
            "label": "reservedModeActive",
            "offset": 21,
            "slot": "1",
            "type": "t_bool"
          }
        ],
        "numberOfBytes": "64"
      },
      "t_uint16": {
        "encoding": "inplace",
        "label": "uint16",
        "numberOfBytes": "2"
      },
      "t_uint256": {
        "encoding": "inplace",
        "label": "uint256",
        "numberOfBytes": "32"
      }
    }
  }
}