{
  "address": "0x3aD797AeDE5004aBDDCBA18Ff973A74c766893Cc",
  "abi": [
    {
      "inputs": [
        {
          "internalType": "address",
          "name": "_token",
          "type": "address"
        },
        {
          "internalType": "string",
          "name": "_derivativeTokenName",
          "type": "string"
        },
        {
          "internalType": "string",
          "name": "_derivativeTokenSymbol",
          "type": "string"
        }
      ],
      "stateMutability": "nonpayable",
      "type": "constructor"
    },
    {
      "anonymous": false,
      "inputs": [
        {
          "indexed": true,
          "internalType": "address",
          "name": "token",
          "type": "address"
        },
        {
          "indexed": false,
          "internalType": "address",
          "name": "rewardsPool",
          "type": "address"
        }
      ],
      "name": "AddToken",
      "type": "event"
    },
    {
      "anonymous": false,
      "inputs": [
        {
          "indexed": true,
          "internalType": "address",
          "name": "owner",
          "type": "address"
        },
        {
          "indexed": true,
          "internalType": "address",
          "name": "spender",
          "type": "address"
        },
        {
          "indexed": false,
          "internalType": "uint256",
          "name": "value",
          "type": "uint256"
        }
      ],
      "name": "Approval",
      "type": "event"
    },
    {
      "anonymous": false,
      "inputs": [
        {
          "indexed": true,
          "internalType": "address",
          "name": "previousOwner",
          "type": "address"
        },
        {
          "indexed": true,
          "internalType": "address",
          "name": "newOwner",
          "type": "address"
        }
      ],
      "name": "OwnershipTransferred",
      "type": "event"
    },
    {
      "anonymous": false,
      "inputs": [
        {
          "indexed": true,
          "internalType": "address",
          "name": "approver",
          "type": "address"
        },
        {
          "indexed": true,
          "internalType": "address",
          "name": "to",
          "type": "address"
        }
      ],
      "name": "RedirectApproval",
      "type": "event"
    },
    {
      "anonymous": false,
      "inputs": [
        {
          "indexed": true,
          "internalType": "address",
          "name": "approver",
          "type": "address"
        },
        {
          "indexed": true,
          "internalType": "address",
          "name": "from",
          "type": "address"
        }
      ],
      "name": "RedirectApprovalRevoked",
      "type": "event"
    },
    {
      "anonymous": false,
      "inputs": [
        {
          "indexed": true,
          "internalType": "address",
          "name": "token",
          "type": "address"
        },
        {
          "indexed": false,
          "internalType": "address",
          "name": "rewardsPool",
          "type": "address"
        }
      ],
      "name": "RemoveToken",
      "type": "event"
    },
    {
      "anonymous": false,
      "inputs": [
        {
          "indexed": true,
          "internalType": "address",
          "name": "from",
          "type": "address"
        },
        {
          "indexed": true,
          "internalType": "address",
          "name": "to",
          "type": "address"
        },
        {
          "indexed": true,
          "internalType": "address",
          "name": "by",
          "type": "address"
        }
      ],
      "name": "RewardsRedirected",
      "type": "event"
    },
    {
      "anonymous": false,
      "inputs": [
        {
          "indexed": true,
          "internalType": "address",
          "name": "account",
          "type": "address"
        },
        {
          "indexed": false,
          "internalType": "uint256",
          "name": "amount",
          "type": "uint256"
        }
      ],
      "name": "Stake",
      "type": "event"
    },
    {
      "anonymous": false,
      "inputs": [
        {
          "indexed": true,
          "internalType": "address",
          "name": "from",
          "type": "address"
        },
        {
          "indexed": true,
          "internalType": "address",
          "name": "to",
          "type": "address"
        },
        {
          "indexed": false,
          "internalType": "uint256",
          "name": "value",
          "type": "uint256"
        }
      ],
      "name": "Transfer",
      "type": "event"
    },
    {
      "anonymous": false,
      "inputs": [
        {
          "indexed": true,
          "internalType": "address",
          "name": "account",
          "type": "address"
        },
        {
          "indexed": false,
          "internalType": "uint256",
          "name": "amount",
          "type": "uint256"
        }
      ],
      "name": "Withdraw",
      "type": "event"
    },
    {
      "anonymous": false,
      "inputs": [
        {
          "indexed": true,
          "internalType": "address",
          "name": "account",
          "type": "address"
        }
      ],
      "name": "WithdrawRewards",
      "type": "event"
    },
    {
      "inputs": [
        {
          "internalType": "address",
          "name": "_token",
          "type": "address"
        },
        {
          "internalType": "address",
          "name": "_rewardsPool",
          "type": "address"
        }
      ],
      "name": "addToken",
      "outputs": [],
      "stateMutability": "nonpayable",
      "type": "function"
    },
    {
      "inputs": [
        {
          "internalType": "address",
          "name": "owner",
          "type": "address"
        },
        {
          "internalType": "address",
          "name": "spender",
          "type": "address"
        }
      ],
      "name": "allowance",
      "outputs": [
        {
          "internalType": "uint256",
          "name": "",
          "type": "uint256"
        }
      ],
      "stateMutability": "view",
      "type": "function"
    },
    {
      "inputs": [
        {
          "internalType": "address",
          "name": "spender",
          "type": "address"
        },
        {
          "internalType": "uint256",
          "name": "amount",
          "type": "uint256"
        }
      ],
      "name": "approve",
      "outputs": [
        {
          "internalType": "bool",
          "name": "",
          "type": "bool"
        }
      ],
      "stateMutability": "nonpayable",
      "type": "function"
    },
    {
      "inputs": [
        {
          "internalType": "address",
          "name": "_to",
          "type": "address"
        }
      ],
      "name": "approveRedirect",
      "outputs": [],
      "stateMutability": "nonpayable",
      "type": "function"
    },
    {
      "inputs": [
        {
          "internalType": "address",
          "name": "account",
          "type": "address"
        }
      ],
      "name": "balanceOf",
      "outputs": [
        {
          "internalType": "uint256",
          "name": "",
          "type": "uint256"
        }
      ],
      "stateMutability": "view",
      "type": "function"
    },
    {
      "inputs": [],
      "name": "decimals",
      "outputs": [
        {
          "internalType": "uint8",
          "name": "",
          "type": "uint8"
        }
      ],
      "stateMutability": "view",
      "type": "function"
    },
    {
      "inputs": [
        {
          "internalType": "address",
          "name": "spender",
          "type": "address"
        },
        {
          "internalType": "uint256",
          "name": "subtractedValue",
          "type": "uint256"
        }
      ],
      "name": "decreaseAllowance",
      "outputs": [
        {
          "internalType": "bool",
          "name": "",
          "type": "bool"
        }
      ],
      "stateMutability": "nonpayable",
      "type": "function"
    },
    {
      "inputs": [
        {
          "internalType": "address",
          "name": "_token",
          "type": "address"
        }
      ],
      "name": "distributeToken",
      "outputs": [],
      "stateMutability": "nonpayable",
      "type": "function"
    },
    {
      "inputs": [
        {
          "internalType": "address[]",
          "name": "_tokens",
          "type": "address[]"
        }
      ],
      "name": "distributeTokens",
      "outputs": [],
      "stateMutability": "nonpayable",
      "type": "function"
    },
    {
      "inputs": [
        {
          "internalType": "address",
          "name": "spender",
          "type": "address"
        },
        {
          "internalType": "uint256",
          "name": "addedValue",
          "type": "uint256"
        }
      ],
      "name": "increaseAllowance",
      "outputs": [
        {
          "internalType": "bool",
          "name": "",
          "type": "bool"
        }
      ],
      "stateMutability": "nonpayable",
      "type": "function"
    },
    {
      "inputs": [
        {
          "internalType": "address",
          "name": "_token",
          "type": "address"
        }
      ],
      "name": "isTokenSupported",
      "outputs": [
        {
          "internalType": "bool",
          "name": "",
          "type": "bool"
        }
      ],
      "stateMutability": "view",
      "type": "function"
    },
    {
      "inputs": [],
      "name": "name",
      "outputs": [
        {
          "internalType": "string",
          "name": "",
          "type": "string"
        }
      ],
      "stateMutability": "view",
      "type": "function"
    },
    {
      "inputs": [
        {
          "internalType": "address",
          "name": "_sender",
          "type": "address"
        },
        {
          "internalType": "uint256",
          "name": "_value",
          "type": "uint256"
        },
        {
          "internalType": "bytes",
          "name": "",
          "type": "bytes"
        }
      ],
      "name": "onTokenTransfer",
      "outputs": [],
      "stateMutability": "nonpayable",
      "type": "function"
    },
    {
      "inputs": [],
      "name": "owner",
      "outputs": [
        {
          "internalType": "address",
          "name": "",
          "type": "address"
        }
      ],
      "stateMutability": "view",
      "type": "function"
    },
    {
      "inputs": [
        {
          "internalType": "address",
          "name": "",
          "type": "address"
        }
      ],
      "name": "redirectApprovals",
      "outputs": [
        {
          "internalType": "address",
          "name": "",
          "type": "address"
        }
      ],
      "stateMutability": "view",
      "type": "function"
    },
    {
      "inputs": [
        {
          "internalType": "address",
          "name": "_to",
          "type": "address"
        }
      ],
      "name": "redirectRewards",
      "outputs": [],
      "stateMutability": "nonpayable",
      "type": "function"
    },
    {
      "inputs": [
        {
          "internalType": "address",
          "name": "_from",
          "type": "address"
        },
        {
          "internalType": "address",
          "name": "_to",
          "type": "address"
        }
      ],
      "name": "redirectRewardsFrom",
      "outputs": [],
      "stateMutability": "nonpayable",
      "type": "function"
    },
    {
      "inputs": [
        {
          "internalType": "address",
          "name": "",
          "type": "address"
        }
      ],
      "name": "redirectedStakes",
      "outputs": [
        {
          "internalType": "uint256",
          "name": "",
          "type": "uint256"
        }
      ],
      "stateMutability": "view",
      "type": "function"
    },
    {
      "inputs": [
        {
          "internalType": "address",
          "name": "_token",
          "type": "address"
        }
      ],
      "name": "removeToken",
      "outputs": [],
      "stateMutability": "nonpayable",
      "type": "function"
    },
    {
      "inputs": [],
      "name": "renounceOwnership",
      "outputs": [],
      "stateMutability": "nonpayable",
      "type": "function"
    },
    {
      "inputs": [],
      "name": "revokeRedirectApproval",
      "outputs": [],
      "stateMutability": "nonpayable",
      "type": "function"
    },
    {
      "inputs": [
        {
          "internalType": "address",
          "name": "_account",
          "type": "address"
        }
      ],
      "name": "rewardsAddress",
      "outputs": [
        {
          "internalType": "address",
          "name": "",
          "type": "address"
        }
      ],
      "stateMutability": "view",
      "type": "function"
    },
    {
      "inputs": [
        {
          "internalType": "uint256",
          "name": "_amount",
          "type": "uint256"
        }
      ],
      "name": "stake",
      "outputs": [],
      "stateMutability": "nonpayable",
      "type": "function"
    },
    {
      "inputs": [
        {
          "internalType": "address",
          "name": "_account",
          "type": "address"
        }
      ],
      "name": "staked",
      "outputs": [
        {
          "internalType": "uint256",
          "name": "",
          "type": "uint256"
        }
      ],
      "stateMutability": "view",
      "type": "function"
    },
    {
      "inputs": [],
      "name": "supportedTokens",
      "outputs": [
        {
          "internalType": "address[]",
          "name": "",
          "type": "address[]"
        }
      ],
      "stateMutability": "view",
      "type": "function"
    },
    {
      "inputs": [],
      "name": "symbol",
      "outputs": [
        {
          "internalType": "string",
          "name": "",
          "type": "string"
        }
      ],
      "stateMutability": "view",
      "type": "function"
    },
    {
      "inputs": [],
      "name": "token",
      "outputs": [
        {
          "internalType": "contract IERC677",
          "name": "",
          "type": "address"
        }
      ],
      "stateMutability": "view",
      "type": "function"
    },
    {
      "inputs": [],
      "name": "tokenBalances",
      "outputs": [
        {
          "internalType": "address[]",
          "name": "",
          "type": "address[]"
        },
        {
          "internalType": "uint256[]",
          "name": "",
          "type": "uint256[]"
        }
      ],
      "stateMutability": "view",
      "type": "function"
    },
    {
      "inputs": [
        {
          "internalType": "address",
          "name": "",
          "type": "address"
        }
      ],
      "name": "tokenPools",
      "outputs": [
        {
          "internalType": "contract IRewardsPool",
          "name": "",
          "type": "address"
        }
      ],
      "stateMutability": "view",
      "type": "function"
    },
    {
      "inputs": [],
      "name": "totalStaked",
      "outputs": [
        {
          "internalType": "uint256",
          "name": "",
          "type": "uint256"
        }
      ],
      "stateMutability": "view",
      "type": "function"
    },
    {
      "inputs": [],
      "name": "totalSupply",
      "outputs": [
        {
          "internalType": "uint256",
          "name": "",
          "type": "uint256"
        }
      ],
      "stateMutability": "view",
      "type": "function"
    },
    {
      "inputs": [
        {
          "internalType": "address",
          "name": "to",
          "type": "address"
        },
        {
          "internalType": "uint256",
          "name": "amount",
          "type": "uint256"
        }
      ],
      "name": "transfer",
      "outputs": [
        {
          "internalType": "bool",
          "name": "",
          "type": "bool"
        }
      ],
      "stateMutability": "nonpayable",
      "type": "function"
    },
    {
      "inputs": [
        {
          "internalType": "address",
          "name": "_to",
          "type": "address"
        },
        {
          "internalType": "uint256",
          "name": "_value",
          "type": "uint256"
        },
        {
          "internalType": "bytes",
          "name": "_data",
          "type": "bytes"
        }
      ],
      "name": "transferAndCall",
      "outputs": [
        {
          "internalType": "bool",
          "name": "",
          "type": "bool"
        }
      ],
      "stateMutability": "nonpayable",
      "type": "function"
    },
    {
      "inputs": [
        {
          "internalType": "address",
          "name": "from",
          "type": "address"
        },
        {
          "internalType": "address",
          "name": "to",
          "type": "address"
        },
        {
          "internalType": "uint256",
          "name": "amount",
          "type": "uint256"
        }
      ],
      "name": "transferFrom",
      "outputs": [
        {
          "internalType": "bool",
          "name": "",
          "type": "bool"
        }
      ],
      "stateMutability": "nonpayable",
      "type": "function"
    },
    {
      "inputs": [
        {
          "internalType": "address",
          "name": "newOwner",
          "type": "address"
        }
      ],
      "name": "transferOwnership",
      "outputs": [],
      "stateMutability": "nonpayable",
      "type": "function"
    },
    {
      "inputs": [
        {
          "internalType": "uint256",
          "name": "_amount",
          "type": "uint256"
        }
      ],
      "name": "withdraw",
      "outputs": [],
      "stateMutability": "nonpayable",
      "type": "function"
    },
    {
      "inputs": [
        {
          "internalType": "address[]",
          "name": "_tokens",
          "type": "address[]"
        }
      ],
      "name": "withdrawRewards",
      "outputs": [],
      "stateMutability": "nonpayable",
      "type": "function"
    },
    {
      "inputs": [
        {
          "internalType": "address",
          "name": "_account",
          "type": "address"
        }
      ],
      "name": "withdrawableRewards",
      "outputs": [
        {
          "internalType": "uint256[]",
          "name": "",
          "type": "uint256[]"
        }
      ],
      "stateMutability": "view",
      "type": "function"
    }
  ],
  "transactionHash": "0xa61e84d4a892bbc9bb4ae93e52d0a70a93c28b449f4bf8eea1e6516d9c879389",
  "args": [
    "0xE90240992c7E35a32Ba65803Ca47082C0fDd6108",
    "Staked LPL",
    "stLPL"
  ],
  "numDeployments": 1,
  "solcInputHash": "0a37d7b84716f05cf659a85de2a0982e",
  "bytecode": "0x60a06040523480156200001157600080fd5b5060405162002ecf38038062002ecf8339810160408190526200003491620002c9565b81818181600082826200004733620000ba565b6004620000558382620003e1565b506005620000648282620003e1565b5050506200009e336200007c6200010a60201b60201c565b6200008c9060ff16600a620005c2565b620000989084620005d7565b6200010f565b5050506001600160a01b03909416608052506200061492505050565b600080546001600160a01b038381166001600160a01b0319831681178455604051919092169283917f8be0079c531659141344cd1fd0a4f28419497f9722a3daafe3b4186f6b6457e09190a35050565b601290565b6001600160a01b0382166200016a5760405162461bcd60e51b815260206004820152601f60248201527f45524332303a206d696e7420746f20746865207a65726f206164647265737300604482015260640160405180910390fd5b80600360008282546200017e9190620005f9565b90915550506001600160a01b03821660009081526001602052604081208054839290620001ad908490620005f9565b90915550506040518181526001600160a01b038316906000907fddf252ad1be2c89b69c2b068fc378daa952ba7f163c4a11628f55a4df523b3ef9060200160405180910390a35050565b505050565b634e487b7160e01b600052604160045260246000fd5b600082601f8301126200022457600080fd5b81516001600160401b0380821115620002415762000241620001fc565b604051601f8301601f19908116603f011681019082821181831017156200026c576200026c620001fc565b816040528381526020925086838588010111156200028957600080fd5b600091505b83821015620002ad57858201830151818301840152908201906200028e565b83821115620002bf5760008385830101525b9695505050505050565b600080600060608486031215620002df57600080fd5b83516001600160a01b0381168114620002f757600080fd5b60208501519093506001600160401b03808211156200031557600080fd5b620003238783880162000212565b935060408601519150808211156200033a57600080fd5b50620003498682870162000212565b9150509250925092565b600181811c908216806200036857607f821691505b6020821081036200038957634e487b7160e01b600052602260045260246000fd5b50919050565b601f821115620001f757600081815260208120601f850160051c81016020861015620003b85750805b601f850160051c820191505b81811015620003d957828155600101620003c4565b505050505050565b81516001600160401b03811115620003fd57620003fd620001fc565b62000415816200040e845462000353565b846200038f565b602080601f8311600181146200044d5760008415620004345750858301515b600019600386901b1c1916600185901b178555620003d9565b600085815260208120601f198616915b828110156200047e578886015182559484019460019091019084016200045d565b50858210156200049d5787850151600019600388901b60f8161c191681555b5050505050600190811b01905550565b634e487b7160e01b600052601160045260246000fd5b600181815b8085111562000504578160001904821115620004e857620004e8620004ad565b80851615620004f657918102915b93841c9390800290620004c8565b509250929050565b6000826200051d57506001620005bc565b816200052c57506000620005bc565b8160018114620005455760028114620005505762000570565b6001915050620005bc565b60ff841115620005645762000564620004ad565b50506001821b620005bc565b5060208310610133831016604e8410600b841016171562000595575081810a620005bc565b620005a18383620004c3565b8060001904821115620005b857620005b8620004ad565b0290505b92915050565b6000620005d083836200050c565b9392505050565b6000816000190483118215151615620005f457620005f4620004ad565b500290565b600082198211156200060f576200060f620004ad565b500190565b6080516128836200064c6000396000818161055e01528181610920015281816111aa0152818161125601526112a701526128836000f3fe608060405234801561001057600080fd5b50600436106102325760003560e01c8063817b1cd211610130578063a694fc3a116100b8578063d387fd6c1161007c578063d387fd6c14610518578063dd62ed3e14610520578063ef735f0714610533578063f2fde38b14610546578063fc0c546a1461055957600080fd5b8063a694fc3a146104a1578063a9059cbb146104b4578063b002249d146104c7578063c3d2c3c1146104dc578063c53b585e1461050557600080fd5b8063952db31f116100ff578063952db31f1461044d57806395d89b411461046057806398807d8414610468578063a457c2d71461047b578063a4c0ed361461048e57600080fd5b8063817b1cd21461040e57806386d740371461041657806388951352146104295780638da5cb5b1461043c57600080fd5b80634000aea0116101be578063628a0f5511610182578063628a0f551461039757806362d76d06146103b757806370a08231146103ca578063715018a6146103f357806375151b63146103fb57600080fd5b80634000aea01461030a5780635476bd721461031d5780635b0c9391146103305780635fa7b58414610343578063611fae021461035657600080fd5b806318160ddd1161020557806318160ddd146102ae57806323b872dd146102c05780632e1a7d4d146102d3578063313ce567146102e857806339509351146102f757600080fd5b806306fdde0314610237578063095ea7b3146102555780630e3bc974146102785780630f14b4d61461028e575b600080fd5b61023f610580565b60405161024c91906123a4565b60405180910390f35b6102686102633660046123f3565b610612565b604051901515815260200161024c565b61028061062a565b60405161024c929190612491565b6102a161029c3660046124bf565b6107a6565b60405161024c91906124da565b6003545b60405190815260200161024c565b6102686102ce3660046124ed565b6108d9565b6102e66102e1366004612529565b6108ff565b005b6040516012815260200161024c565b6102686103053660046123f3565b610981565b610268610318366004612542565b6109a3565b6102e661032b3660046125c9565b6109cf565b6102e661033e3660046124bf565b610b41565b6102e66103513660046124bf565b610b98565b61037f6103643660046124bf565b600a602052600090815260409020546001600160a01b031681565b6040516001600160a01b03909116815260200161024c565b6102b26103a53660046124bf565b60096020526000908152604090205481565b6102e66103c5366004612612565b610d5f565b6102b26103d83660046124bf565b6001600160a01b031660009081526001602052604090205490565b6102e6610e3c565b6102686104093660046124bf565b610e50565b6102b2610e81565b6102e66104243660046124bf565b610e91565b6102e6610437366004612612565b611031565b6000546001600160a01b031661037f565b61037f61045b3660046124bf565b611075565b61023f6110bb565b6102b26104763660046124bf565b6110ca565b6102686104893660046123f3565b611124565b6102e661049c366004612542565b61119f565b6102e66104af366004612529565b61129a565b6102686104c23660046123f3565b6112dc565b6104cf6112ea565b60405161024c91906126d7565b61037f6104ea3660046124bf565b6006602052600090815260409020546001600160a01b031681565b6102e66105133660046124bf565b61134b565b6102e6611355565b6102b261052e3660046125c9565b6113ae565b6102e66105413660046125c9565b6113d9565b6102e66105543660046124bf565b611480565b61037f7f000000000000000000000000000000000000000000000000000000000000000081565b60606004805461058f906126ea565b80601f01602080910402602001604051908101604052809291908181526020018280546105bb906126ea565b80156106085780601f106105dd57610100808354040283529160200191610608565b820191906000526020600020905b8154815290600101906020018083116105eb57829003601f168201915b5050505050905090565b6000336106208185856114f6565b5060019392505050565b606080600060078054905067ffffffffffffffff81111561064d5761064d6125fc565b604051908082528060200260200182016040528015610676578160200160208202803683370190505b50905060005b60075481101561073d576007818154811061069957610699612724565b6000918252602090912001546040516370a0823160e01b81523060048201526001600160a01b03909116906370a0823190602401602060405180830381865afa1580156106ea573d6000803e3d6000fd5b505050506040513d601f19601f8201168201806040525081019061070e919061273a565b82828151811061072057610720612724565b60209081029190910101528061073581612769565b91505061067c565b506007818180548060200260200160405190810160405280929190818152602001828054801561079657602002820191906000526020600020905b81546001600160a01b03168152600190910190602001808311610778575b5050505050915092509250509091565b60075460609060009067ffffffffffffffff8111156107c7576107c76125fc565b6040519080825280602002602001820160405280156107f0578160200160208202803683370190505b50905060005b6007548110156108d257600660006007838154811061081757610817612724565b6000918252602080832091909101546001600160a01b039081168452908301939093526040918201902054905163078a5a6b60e11b81528683166004820152911690630f14b4d690602401602060405180830381865afa15801561087f573d6000803e3d6000fd5b505050506040513d601f19601f820116820180604052508101906108a3919061273a565b8282815181106108b5576108b5612724565b6020908102919091010152806108ca81612769565b9150506107f6565b5092915050565b6000336108e785828561161b565b6108f285858561168f565b60019150505b9392505050565b3361090981611759565b610913338361180d565b6109476001600160a01b037f0000000000000000000000000000000000000000000000000000000000000000163384611958565b60405182815233907f884edad9ce6fa2440d8a54cc123490eb96d2768479d49ff9c7366125a9424364906020015b60405180910390a25050565b60003361062081858561099483836113ae565b61099e9190612782565b6114f6565b60006109af85856112dc565b50843b156109c4576109c433868686866119bb565b506001949350505050565b6109d7611a29565b6109e082610e50565b15610a325760405162461bcd60e51b815260206004820152601a60248201527f546f6b656e20697320616c726561647920737570706f7274656400000000000060448201526064015b60405180910390fd5b6001600160a01b0382811660008181526006602052604080822080549486166001600160a01b0319958616179055600780546001810182559083527fa66cc928b5edb82af9bd49922954155ab7b0942694bea4ce44661d9a8736c688018054909416831790935591516370a0823160e01b81523060048201526370a0823190602401602060405180830381865afa158015610ad1573d6000803e3d6000fd5b505050506040513d601f19601f82011682018060405250810190610af5919061273a565b1115610b0457610b0482610e91565b6040516001600160a01b0382811682528316907fdbf34b45b47a653cf4940cccbec765f72d4d63de3237306905bfc0ee2883236290602001610975565b336000818152600a602052604080822080546001600160a01b0319166001600160a01b03861690811790915590519092917fbc2ae327210da6d1f0946518a140d99a46f3a238ea185f565875ebfe507eb99691a350565b610ba0611a29565b610ba981610e50565b610bee5760405162461bcd60e51b8152602060048201526016602482015275151bdad95b881a5cc81b9bdd081cdd5c1c1bdc9d195960521b6044820152606401610a29565b6001600160a01b03808216600090815260066020526040812080546001600160a01b03198116909155909116905b600754811015610d2157826001600160a01b031660078281548110610c4357610c43612724565b6000918252602090912001546001600160a01b031603610d0f5760078054610c6d9060019061279a565b81548110610c7d57610c7d612724565b600091825260209091200154600780546001600160a01b039092169183908110610ca957610ca9612724565b9060005260206000200160006101000a8154816001600160a01b0302191690836001600160a01b031602179055506007805480610ce857610ce86127b1565b600082815260209020810160001990810180546001600160a01b0319169055019055610d21565b80610d1981612769565b915050610c1c565b506040516001600160a01b0382811682528316907f39dcd754ec63af4b82c4c569ff1b6b4e55a8038e6545844747e54f2f2d4e8e5090602001610975565b60005b8151811015610e0d5760066000838381518110610d8157610d81612724565b6020908102919091018101516001600160a01b0390811683529082019290925260409081016000205490516351cff8d960e01b81523360048201529116906351cff8d990602401600060405180830381600087803b158015610de257600080fd5b505af1158015610df6573d6000803e3d6000fd5b505050508080610e0590612769565b915050610d62565b5060405133907feeab3fd62be4cb59cbdc42d5b0f676a3597ff387b9a85e62330cc17c2a3603db90600090a250565b610e44611a29565b610e4e6000611a83565b565b6001600160a01b03818116600090815260066020526040812054909116610e78576000610e7b565b60015b92915050565b6000610e8c60035490565b905090565b610e9a81610e50565b610edc5760405162461bcd60e51b8152602060048201526013602482015272151bdad95b881b9bdd081cdd5c1c1bdc9d1959606a1b6044820152606401610a29565b6040516370a0823160e01b815230600482015281906000906001600160a01b038316906370a0823190602401602060405180830381865afa158015610f25573d6000803e3d6000fd5b505050506040513d601f19601f82011682018060405250810190610f49919061273a565b905060008111610f9b5760405162461bcd60e51b815260206004820152601e60248201527f43616e6e6f742064697374726962757465207a65726f2062616c616e636500006044820152606401610a29565b6001600160a01b03808416600090815260066020526040902054610fc491848116911683611958565b6001600160a01b038084166000908152600660205260408082205481516306f4a2cd60e41b81529151931692636f4a2cd09260048084019391929182900301818387803b15801561101457600080fd5b505af1158015611028573d6000803e3d6000fd5b50505050505050565b60005b81518110156110715761105f82828151811061105257611052612724565b6020026020010151610e91565b8061106981612769565b915050611034565b5050565b6001600160a01b0381811660009081526008602052604081205490911661109c5781610e7b565b506001600160a01b039081166000908152600860205260409020541690565b60606005805461058f906126ea565b6001600160a01b03808216600090815260096020908152604080832054600890925282205491929091161561110057600061111a565b6001600160a01b0383166000908152600160205260409020545b610e7b9190612782565b6000338161113282866113ae565b9050838110156111925760405162461bcd60e51b815260206004820152602560248201527f45524332303a2064656372656173656420616c6c6f77616e63652062656c6f77604482015264207a65726f60d81b6064820152608401610a29565b6109c482868684036114f6565b336001600160a01b037f00000000000000000000000000000000000000000000000000000000000000001614806111da57506111da33610e50565b61124c5760405162461bcd60e51b815260206004820152603760248201527f53656e646572206d757374206265207374616b696e6720746f6b656e206f722060448201527f737570706f72746564207265776172647320746f6b656e0000000000000000006064820152608401610a29565b6001600160a01b037f000000000000000000000000000000000000000000000000000000000000000016330361128b576112868484611ad3565b611294565b61129433610e91565b50505050565b6112cf6001600160a01b037f000000000000000000000000000000000000000000000000000000000000000016333084611b2f565b6112d93382611ad3565b50565b60003361062081858561168f565b6060600780548060200260200160405190810160405280929190818152602001828054801561060857602002820191906000526020600020905b81546001600160a01b03168152600190910190602001808311611324575050505050905090565b6112d93382611b67565b336000818152600a602052604080822080546001600160a01b0319811690915590516001600160a01b0390911692839290917f9dca899729a60a64e03e19b833c4ef7e1795b7d9ed899092fd59d5df5a8229e49190a350565b6001600160a01b03918216600090815260026020908152604080832093909416825291909152205490565b6001600160a01b038281166000908152600a60205260409020541633146114505760405162461bcd60e51b815260206004820152602560248201527f417070726f76616c20726571756972656420746f207265646972656374207265604482015264776172647360d81b6064820152608401610a29565b6001600160a01b0382166000908152600a6020526040902080546001600160a01b03191690556110718282611b67565b611488611a29565b6001600160a01b0381166114ed5760405162461bcd60e51b815260206004820152602660248201527f4f776e61626c653a206e6577206f776e657220697320746865207a65726f206160448201526564647265737360d01b6064820152608401610a29565b6112d981611a83565b6001600160a01b0383166115585760405162461bcd60e51b8152602060048201526024808201527f45524332303a20617070726f76652066726f6d20746865207a65726f206164646044820152637265737360e01b6064820152608401610a29565b6001600160a01b0382166115b95760405162461bcd60e51b815260206004820152602260248201527f45524332303a20617070726f766520746f20746865207a65726f206164647265604482015261737360f01b6064820152608401610a29565b6001600160a01b0383811660008181526002602090815260408083209487168084529482529182902085905590518481527f8c5be1e5ebec7d5bd14f71427d1e84f3dd0314c0f7b2291e5b200ac8c7c3b92591015b60405180910390a3505050565b600061162784846113ae565b9050600019811461129457818110156116825760405162461bcd60e51b815260206004820152601d60248201527f45524332303a20696e73756666696369656e7420616c6c6f77616e63650000006044820152606401610a29565b61129484848484036114f6565b8261169981611759565b826116a381611759565b6001600160a01b0380861660009081526008602052604080822054878416835291205490821691168115611708576116da82611759565b6001600160a01b0382166000908152600960205260408120805487929061170290849061279a565b90915550505b6001600160a01b0381161561174e5761172081611759565b6001600160a01b03811660009081526009602052604081208054879290611748908490612782565b90915550505b611028878787611e78565b60005b60075481101561107157600660006007838154811061177d5761177d612724565b6000918252602080832091909101546001600160a01b039081168452908301939093526040918201902054905163632447c960e01b8152848316600482015291169063632447c990602401600060405180830381600087803b1580156117e257600080fd5b505af11580156117f6573d6000803e3d6000fd5b50505050808061180590612769565b91505061175c565b6001600160a01b03821661186d5760405162461bcd60e51b815260206004820152602160248201527f45524332303a206275726e2066726f6d20746865207a65726f206164647265736044820152607360f81b6064820152608401610a29565b6001600160a01b038216600090815260016020526040902054818110156118e15760405162461bcd60e51b815260206004820152602260248201527f45524332303a206275726e20616d6f756e7420657863656564732062616c616e604482015261636560f01b6064820152608401610a29565b6001600160a01b038316600090815260016020526040812083830390556003805484929061191090849061279a565b90915550506040518281526000906001600160a01b038516907fddf252ad1be2c89b69c2b068fc378daa952ba7f163c4a11628f55a4df523b3ef9060200161160e565b505050565b6040516001600160a01b03831660248201526044810182905261195390849063a9059cbb60e01b906064015b60408051601f198184030181529190526020810180516001600160e01b03166001600160e01b031990931692909217909152612046565b604051635260769b60e11b815284906001600160a01b0382169063a4c0ed36906119ef9089908890889088906004016127c7565b600060405180830381600087803b158015611a0957600080fd5b505af1158015611a1d573d6000803e3d6000fd5b50505050505050505050565b6000546001600160a01b03163314610e4e5760405162461bcd60e51b815260206004820181905260248201527f4f776e61626c653a2063616c6c6572206973206e6f7420746865206f776e65726044820152606401610a29565b600080546001600160a01b038381166001600160a01b0319831681178455604051919092169283917f8be0079c531659141344cd1fd0a4f28419497f9722a3daafe3b4186f6b6457e09190a35050565b81611add81611759565b611ae78383612118565b826001600160a01b03167febedb8b3c678666e7f36970bc8f57abf6d8fa2e828c0da91ea5b75bf68ed101a83604051611b2291815260200190565b60405180910390a2505050565b6040516001600160a01b03808516602483015283166044820152606481018290526112949085906323b872dd60e01b90608401611984565b81611b7181611759565b81611b7b81611759565b6001600160a01b038316611bc75760405162461bcd60e51b815260206004820152601360248201527243616e6e6f74206275726e207265776172647360681b6044820152606401610a29565b6001600160a01b03848116600090815260086020526040902054818516911603611c475760405162461bcd60e51b815260206004820152602b60248201527f43616e6e6f74207265646972656374207265776172647320746f20746865207360448201526a616d65206164647265737360a81b6064820152608401610a29565b6001600160a01b038481166000908152600860205260409020541615611c6e576001611c85565b826001600160a01b0316846001600160a01b031614155b611cd15760405162461bcd60e51b815260206004820152601760248201527f43616e6e6f7420726564697265637420746f2073656c660000000000000000006044820152606401610a29565b6001600160a01b03841660009081526001602052604090205480611d495760405162461bcd60e51b815260206004820152602960248201527f412062616c616e636520697320726571756972656420746f207265646972656360448201526874207265776172647360b81b6064820152608401610a29565b6001600160a01b03808616600090815260086020526040902054168015611da157611d7381611759565b6001600160a01b03811660009081526009602052604081208054849290611d9b90849061279a565b90915550505b856001600160a01b0316856001600160a01b031603611de5576001600160a01b038616600090815260086020526040902080546001600160a01b0319169055611e35565b6001600160a01b03868116600090815260086020908152604080832080546001600160a01b031916948a169485179055928252600990529081208054849290611e2f908490612782565b90915550505b60405133906001600160a01b0387811691908916907f6a8c4b3eeb6ce85acfca51b03ce7b05fdefe1ff2b7c0a45e7002b08e0cea1eb690600090a4505050505050565b6001600160a01b038316611edc5760405162461bcd60e51b815260206004820152602560248201527f45524332303a207472616e736665722066726f6d20746865207a65726f206164604482015264647265737360d81b6064820152608401610a29565b6001600160a01b038216611f3e5760405162461bcd60e51b815260206004820152602360248201527f45524332303a207472616e7366657220746f20746865207a65726f206164647260448201526265737360e81b6064820152608401610a29565b6001600160a01b03831660009081526001602052604090205481811015611fb65760405162461bcd60e51b815260206004820152602660248201527f45524332303a207472616e7366657220616d6f756e7420657863656564732062604482015265616c616e636560d01b6064820152608401610a29565b6001600160a01b03808516600090815260016020526040808220858503905591851681529081208054849290611fed908490612782565b92505081905550826001600160a01b0316846001600160a01b03167fddf252ad1be2c89b69c2b068fc378daa952ba7f163c4a11628f55a4df523b3ef8460405161203991815260200190565b60405180910390a3611294565b600061209b826040518060400160405280602081526020017f5361666545524332303a206c6f772d6c6576656c2063616c6c206661696c6564815250856001600160a01b03166121f79092919063ffffffff16565b80519091501561195357808060200190518101906120b9919061280f565b6119535760405162461bcd60e51b815260206004820152602a60248201527f5361666545524332303a204552433230206f7065726174696f6e20646964206e6044820152691bdd081cdd58d8d9595960b21b6064820152608401610a29565b6001600160a01b03821661216e5760405162461bcd60e51b815260206004820152601f60248201527f45524332303a206d696e7420746f20746865207a65726f2061646472657373006044820152606401610a29565b80600360008282546121809190612782565b90915550506001600160a01b038216600090815260016020526040812080548392906121ad908490612782565b90915550506040518181526001600160a01b038316906000907fddf252ad1be2c89b69c2b068fc378daa952ba7f163c4a11628f55a4df523b3ef9060200160405180910390a35050565b6060612206848460008561220e565b949350505050565b60608247101561226f5760405162461bcd60e51b815260206004820152602660248201527f416464726573733a20696e73756666696369656e742062616c616e636520666f6044820152651c8818d85b1b60d21b6064820152608401610a29565b6001600160a01b0385163b6122c65760405162461bcd60e51b815260206004820152601d60248201527f416464726573733a2063616c6c20746f206e6f6e2d636f6e74726163740000006044820152606401610a29565b600080866001600160a01b031685876040516122e29190612831565b60006040518083038185875af1925050503d806000811461231f576040519150601f19603f3d011682016040523d82523d6000602084013e612324565b606091505b509150915061233482828661233f565b979650505050505050565b6060831561234e5750816108f8565b82511561235e5782518084602001fd5b8160405162461bcd60e51b8152600401610a2991906123a4565b60005b8381101561239357818101518382015260200161237b565b838111156112945750506000910152565b60208152600082518060208401526123c3816040850160208701612378565b601f01601f19169190910160400192915050565b80356001600160a01b03811681146123ee57600080fd5b919050565b6000806040838503121561240657600080fd5b61240f836123d7565b946020939093013593505050565b600081518084526020808501945080840160005b838110156124565781516001600160a01b031687529582019590820190600101612431565b509495945050505050565b600081518084526020808501945080840160005b8381101561245657815187529582019590820190600101612475565b6040815260006124a4604083018561241d565b82810360208401526124b68185612461565b95945050505050565b6000602082840312156124d157600080fd5b6108f8826123d7565b6020815260006108f86020830184612461565b60008060006060848603121561250257600080fd5b61250b846123d7565b9250612519602085016123d7565b9150604084013590509250925092565b60006020828403121561253b57600080fd5b5035919050565b6000806000806060858703121561255857600080fd5b612561856123d7565b935060208501359250604085013567ffffffffffffffff8082111561258557600080fd5b818701915087601f83011261259957600080fd5b8135818111156125a857600080fd5b8860208285010111156125ba57600080fd5b95989497505060200194505050565b600080604083850312156125dc57600080fd5b6125e5836123d7565b91506125f3602084016123d7565b90509250929050565b634e487b7160e01b600052604160045260246000fd5b6000602080838503121561262557600080fd5b823567ffffffffffffffff8082111561263d57600080fd5b818501915085601f83011261265157600080fd5b813581811115612663576126636125fc565b8060051b604051601f19603f83011681018181108582111715612688576126886125fc565b6040529182528482019250838101850191888311156126a657600080fd5b938501935b828510156126cb576126bc856123d7565b845293850193928501926126ab565b98975050505050505050565b6020815260006108f8602083018461241d565b600181811c908216806126fe57607f821691505b60208210810361271e57634e487b7160e01b600052602260045260246000fd5b50919050565b634e487b7160e01b600052603260045260246000fd5b60006020828403121561274c57600080fd5b5051919050565b634e487b7160e01b600052601160045260246000fd5b60006001820161277b5761277b612753565b5060010190565b6000821982111561279557612795612753565b500190565b6000828210156127ac576127ac612753565b500390565b634e487b7160e01b600052603160045260246000fd5b6001600160a01b0385168152602081018490526060604082018190528101829052818360808301376000818301608090810191909152601f909201601f191601019392505050565b60006020828403121561282157600080fd5b815180151581146108f857600080fd5b60008251612843818460208701612378565b919091019291505056fea264697066735822122041f2f21b96e9aff2a1a3a982a903b19ebb99e875a8d5ad4996d69ca16e94b53c64736f6c634300080f0033",
  "devdoc": {
    "kind": "dev",
    "methods": {
      "addToken(address,address)": {
        "params": {
          "_rewardsPool": "token rewards pool to add*",
          "_token": "token to add"
        }
      },
      "allowance(address,address)": {
        "details": "See {IERC20-allowance}."
      },
      "approve(address,uint256)": {
        "details": "See {IERC20-approve}. NOTE: If `amount` is the maximum `uint256`, the allowance is not updated on `transferFrom`. This is semantically equivalent to an infinite approval. Requirements: - `spender` cannot be the zero address."
      },
      "approveRedirect(address)": {
        "params": {
          "_to": "account to approve"
        }
      },
      "balanceOf(address)": {
        "details": "See {IERC20-balanceOf}."
      },
      "decimals()": {
        "details": "Returns the number of decimals used to get its user representation. For example, if `decimals` equals `2`, a balance of `505` tokens should be displayed to a user as `5.05` (`505 / 10 ** 2`). Tokens usually opt for a value of 18, imitating the relationship between Ether and Wei. This is the value {ERC20} uses, unless this function is overridden; NOTE: This information is only used for _display_ purposes: it in no way affects any of the arithmetic of the contract, including {IERC20-balanceOf} and {IERC20-transfer}."
      },
      "decreaseAllowance(address,uint256)": {
        "details": "Atomically decreases the allowance granted to `spender` by the caller. This is an alternative to {approve} that can be used as a mitigation for problems described in {IERC20-approve}. Emits an {Approval} event indicating the updated allowance. Requirements: - `spender` cannot be the zero address. - `spender` must have allowance for the caller of at least `subtractedValue`."
      },
      "distributeToken(address)": {
        "params": {
          "_token": "token address"
        }
      },
      "distributeTokens(address[])": {
        "params": {
          "_tokens": "list of token addresses"
        }
      },
      "increaseAllowance(address,uint256)": {
        "details": "Atomically increases the allowance granted to `spender` by the caller. This is an alternative to {approve} that can be used as a mitigation for problems described in {IERC20-approve}. Emits an {Approval} event indicating the updated allowance. Requirements: - `spender` cannot be the zero address."
      },
      "isTokenSupported(address)": {
        "params": {
          "_token": "token address"
        },
        "returns": {
          "_0": "is token supported*"
        }
      },
      "name()": {
        "details": "Returns the name of the token."
      },
      "onTokenTransfer(address,uint256,bytes)": {
        "params": {
          "_sender": "of the token transfer",
          "_value": "of the token transfer*"
        }
      },
      "owner()": {
        "details": "Returns the address of the current owner."
      },
      "redirectRewards(address)": {
        "params": {
          "_to": "account to redirect rewards to"
        }
      },
      "redirectRewardsFrom(address,address)": {
        "params": {
          "_from": "account to redirect rewards for",
          "_to": "account to redirect rewards to"
        }
      },
      "removeToken(address)": {
        "params": {
          "_token": "address of token*"
        }
      },
      "renounceOwnership()": {
        "details": "Leaves the contract without owner. It will not be possible to call `onlyOwner` functions anymore. Can only be called by the current owner. NOTE: Renouncing ownership will leave the contract without an owner, thereby removing any functionality that is only available to the owner."
      },
      "rewardsAddress(address)": {
        "params": {
          "_account": "address to query"
        }
      },
      "stake(uint256)": {
        "params": {
          "_amount": "amount to stake*"
        }
      },
      "staked(address)": {
        "details": "required by RewardsPoolController",
        "returns": {
          "_0": "account's staked amount"
        }
      },
      "supportedTokens()": {
        "returns": {
          "_0": "list of token configs*"
        }
      },
      "symbol()": {
        "details": "Returns the symbol of the token, usually a shorter version of the name."
      },
      "tokenBalances()": {
        "returns": {
          "_0": "list of tokens with a list of token balances*"
        }
      },
      "totalStaked()": {
        "details": "required by RewardsPoolController",
        "returns": {
          "_0": "total staked amount"
        }
      },
      "totalSupply()": {
        "details": "See {IERC20-totalSupply}."
      },
      "transfer(address,uint256)": {
        "details": "See {IERC20-transfer}. Requirements: - `to` cannot be the zero address. - the caller must have a balance of at least `amount`."
      },
      "transferFrom(address,address,uint256)": {
        "details": "See {IERC20-transferFrom}. Emits an {Approval} event indicating the updated allowance. This is not required by the EIP. See the note at the beginning of {ERC20}. NOTE: Does not update the allowance if the current allowance is the maximum `uint256`. Requirements: - `from` and `to` cannot be the zero address. - `from` must have a balance of at least `amount`. - the caller must have allowance for ``from``'s tokens of at least `amount`."
      },
      "transferOwnership(address)": {
        "details": "Transfers ownership of the contract to a new account (`newOwner`). Can only be called by the current owner."
      },
      "withdraw(uint256)": {
        "params": {
          "_amount": "amount to withdraw*"
        }
      },
      "withdrawRewards(address[])": {
        "params": {
          "_tokens": "list of token addresses to withdraw rewards from*"
        }
      },
      "withdrawableRewards(address)": {
        "params": {
          "_account": "account to return reward amounts for"
        },
        "returns": {
          "_0": "list of withdrawable reward amounts*"
        }
      }
    },
    "title": "Pool Owners",
    "version": 1
  },
  "userdoc": {
    "kind": "user",
    "methods": {
      "addToken(address,address)": {
        "notice": "adds a new token"
      },
      "approveRedirect(address)": {
        "notice": "approve a reward redirect"
      },
      "distributeToken(address)": {
        "notice": "distributes a token balance to its equivalent reward pool"
      },
      "distributeTokens(address[])": {
        "notice": "distributes token balances to their equivalent reward pools"
      },
      "isTokenSupported(address)": {
        "notice": "returns true/false to whether a given token is supported"
      },
      "onTokenTransfer(address,uint256,bytes)": {
        "notice": "ERC677 implementation that proxies staking"
      },
      "redirectRewards(address)": {
        "notice": "redirect rewards to a specific address. Supports multiple addresses redirecting to the same previousRedirect. To stop redirecting rewards, set _to as the current wallet."
      },
      "redirectRewardsFrom(address,address)": {
        "notice": "redirect rewards for an account with approval"
      },
      "removeToken(address)": {
        "notice": "removes a supported token"
      },
      "revokeRedirectApproval()": {
        "notice": "revoke a redirect approval"
      },
      "rewardsAddress(address)": {
        "notice": "returns the address that receives rewards for an account"
      },
      "stake(uint256)": {
        "notice": "stakes owners tokens & mints allowance tokens"
      },
      "staked(address)": {
        "notice": "returns an account's staked amount for use by reward pools controlled by this contract. If rewards are redirected, it returns the sum of the amount staked by all of the accounts that have redirected rewards."
      },
      "supportedTokens()": {
        "notice": "returns a list of configs for all supported tokens"
      },
      "tokenBalances()": {
        "notice": "get all token balances of supported tokens within the controller"
      },
      "totalStaked()": {
        "notice": "returns the total staked amount for use by reward pools controlled by this contract"
      },
      "withdraw(uint256)": {
        "notice": "burns allowance tokens and withdraws staked owners tokens"
      },
      "withdrawRewards(address[])": {
        "notice": "withdraws an account's earned rewards for a list of tokens"
      },
      "withdrawableRewards(address)": {
        "notice": "returns a list of withdrawable rewards for an account"
      }
    },
    "notice": "Handles owners token staking & rewards distribution",
    "version": 1
  },
  "storageLayout": {
    "storage": [
      {
        "astId": 3767,
        "contract": "contracts/core/PoolOwners.sol:PoolOwners",
        "label": "_owner",
        "offset": 0,
        "slot": "0",
        "type": "t_address"
      },
      {
        "astId": 3928,
        "contract": "contracts/core/PoolOwners.sol:PoolOwners",
        "label": "_balances",
        "offset": 0,
        "slot": "1",
        "type": "t_mapping(t_address,t_uint256)"
      },
      {
        "astId": 3934,
        "contract": "contracts/core/PoolOwners.sol:PoolOwners",
        "label": "_allowances",
        "offset": 0,
        "slot": "2",
        "type": "t_mapping(t_address,t_mapping(t_address,t_uint256))"
      },
      {
        "astId": 3936,
        "contract": "contracts/core/PoolOwners.sol:PoolOwners",
        "label": "_totalSupply",
        "offset": 0,
        "slot": "3",
        "type": "t_uint256"
      },
      {
        "astId": 3938,
        "contract": "contracts/core/PoolOwners.sol:PoolOwners",
        "label": "_name",
        "offset": 0,
        "slot": "4",
        "type": "t_string_storage"
      },
      {
        "astId": 3940,
        "contract": "contracts/core/PoolOwners.sol:PoolOwners",
        "label": "_symbol",
        "offset": 0,
        "slot": "5",
        "type": "t_string_storage"
      },
      {
        "astId": 17485,
        "contract": "contracts/core/PoolOwners.sol:PoolOwners",
        "label": "tokenPools",
        "offset": 0,
        "slot": "6",
        "type": "t_mapping(t_address,t_contract(IRewardsPool)18908)"
      },
      {
        "astId": 17488,
        "contract": "contracts/core/PoolOwners.sol:PoolOwners",
        "label": "tokens",
        "offset": 0,
        "slot": "7",
        "type": "t_array(t_address)dyn_storage"
      },
      {
        "astId": 17492,
        "contract": "contracts/core/PoolOwners.sol:PoolOwners",
        "label": "rewardRedirects",
        "offset": 0,
        "slot": "8",
        "type": "t_mapping(t_address,t_address)"
      },
      {
        "astId": 17496,
        "contract": "contracts/core/PoolOwners.sol:PoolOwners",
        "label": "redirectedStakes",
        "offset": 0,
        "slot": "9",
        "type": "t_mapping(t_address,t_uint256)"
      },
      {
        "astId": 17500,
        "contract": "contracts/core/PoolOwners.sol:PoolOwners",
        "label": "redirectApprovals",
        "offset": 0,
        "slot": "10",
        "type": "t_mapping(t_address,t_address)"
      }
    ],
    "types": {
      "t_address": {
        "encoding": "inplace",
        "label": "address",
        "numberOfBytes": "20"
      },
      "t_array(t_address)dyn_storage": {
        "base": "t_address",
        "encoding": "dynamic_array",
        "label": "address[]",
        "numberOfBytes": "32"
      },
      "t_contract(IRewardsPool)18908": {
        "encoding": "inplace",
        "label": "contract IRewardsPool",
        "numberOfBytes": "20"
      },
      "t_mapping(t_address,t_address)": {
        "encoding": "mapping",
        "key": "t_address",
        "label": "mapping(address => address)",
        "numberOfBytes": "32",
        "value": "t_address"
      },
      "t_mapping(t_address,t_contract(IRewardsPool)18908)": {
        "encoding": "mapping",
        "key": "t_address",
        "label": "mapping(address => contract IRewardsPool)",
        "numberOfBytes": "32",
        "value": "t_contract(IRewardsPool)18908"
      },
      "t_mapping(t_address,t_mapping(t_address,t_uint256))": {
        "encoding": "mapping",
        "key": "t_address",
        "label": "mapping(address => mapping(address => uint256))",
        "numberOfBytes": "32",
        "value": "t_mapping(t_address,t_uint256)"
      },
      "t_mapping(t_address,t_uint256)": {
        "encoding": "mapping",
        "key": "t_address",
        "label": "mapping(address => uint256)",
        "numberOfBytes": "32",
        "value": "t_uint256"
      },
      "t_string_storage": {
        "encoding": "bytes",
        "label": "string",
        "numberOfBytes": "32"
      },
      "t_uint256": {
        "encoding": "inplace",
        "label": "uint256",
        "numberOfBytes": "32"
      }
    }
  }
}