{
  "address": "0xeAF59ece1D1E900E3b3367f22b2E4EE12efaa385",
  "abi": [
    {
      "inputs": [
        {
          "internalType": "string",
          "name": "_name",
          "type": "string"
        },
        {
          "internalType": "string",
          "name": "_symbol",
          "type": "string"
        }
      ],
      "stateMutability": "nonpayable",
      "type": "constructor"
    },
    {
      "anonymous": false,
      "inputs": [
        {
          "indexed": true,
          "internalType": "address",
          "name": "owner",
          "type": "address"
        },
        {
          "indexed": true,
          "internalType": "address",
          "name": "spender",
          "type": "address"
        },
        {
          "indexed": false,
          "internalType": "uint256",
          "name": "value",
          "type": "uint256"
        }
      ],
      "name": "Approval",
      "type": "event"
    },
    {
      "anonymous": false,
      "inputs": [
        {
          "indexed": true,
          "internalType": "address",
          "name": "previousOwner",
          "type": "address"
        },
        {
          "indexed": true,
          "internalType": "address",
          "name": "newOwner",
          "type": "address"
        }
      ],
      "name": "OwnershipTransferred",
      "type": "event"
    },
    {
      "anonymous": false,
      "inputs": [
        {
          "indexed": true,
          "internalType": "address",
          "name": "from",
          "type": "address"
        },
        {
          "indexed": true,
          "internalType": "address",
          "name": "to",
          "type": "address"
        },
        {
          "indexed": false,
          "internalType": "uint256",
          "name": "value",
          "type": "uint256"
        }
      ],
      "name": "Transfer",
      "type": "event"
    },
    {
      "inputs": [
        {
          "internalType": "address",
          "name": "owner",
          "type": "address"
        },
        {
          "internalType": "address",
          "name": "spender",
          "type": "address"
        }
      ],
      "name": "allowance",
      "outputs": [
        {
          "internalType": "uint256",
          "name": "",
          "type": "uint256"
        }
      ],
      "stateMutability": "view",
      "type": "function"
    },
    {
      "inputs": [
        {
          "internalType": "address",
          "name": "spender",
          "type": "address"
        },
        {
          "internalType": "uint256",
          "name": "amount",
          "type": "uint256"
        }
      ],
      "name": "approve",
      "outputs": [
        {
          "internalType": "bool",
          "name": "",
          "type": "bool"
        }
      ],
      "stateMutability": "nonpayable",
      "type": "function"
    },
    {
      "inputs": [
        {
          "internalType": "address",
          "name": "account",
          "type": "address"
        }
      ],
      "name": "balanceOf",
      "outputs": [
        {
          "internalType": "uint256",
          "name": "",
          "type": "uint256"
        }
      ],
      "stateMutability": "view",
      "type": "function"
    },
    {
      "inputs": [
        {
          "internalType": "uint256",
          "name": "_amount",
          "type": "uint256"
        }
      ],
      "name": "burn",
      "outputs": [],
      "stateMutability": "nonpayable",
      "type": "function"
    },
    {
      "inputs": [
        {
          "internalType": "address",
          "name": "account",
          "type": "address"
        },
        {
          "internalType": "uint256",
          "name": "amount",
          "type": "uint256"
        }
      ],
      "name": "burnFrom",
      "outputs": [],
      "stateMutability": "nonpayable",
      "type": "function"
    },
    {
      "inputs": [],
      "name": "decimals",
      "outputs": [
        {
          "internalType": "uint8",
          "name": "",
          "type": "uint8"
        }
      ],
      "stateMutability": "view",
      "type": "function"
    },
    {
      "inputs": [
        {
          "internalType": "address",
          "name": "spender",
          "type": "address"
        },
        {
          "internalType": "uint256",
          "name": "subtractedValue",
          "type": "uint256"
        }
      ],
      "name": "decreaseAllowance",
      "outputs": [
        {
          "internalType": "bool",
          "name": "",
          "type": "bool"
        }
      ],
      "stateMutability": "nonpayable",
      "type": "function"
    },
    {
      "inputs": [
        {
          "internalType": "address",
          "name": "spender",
          "type": "address"
        },
        {
          "internalType": "uint256",
          "name": "addedValue",
          "type": "uint256"
        }
      ],
      "name": "increaseAllowance",
      "outputs": [
        {
          "internalType": "bool",
          "name": "",
          "type": "bool"
        }
      ],
      "stateMutability": "nonpayable",
      "type": "function"
    },
    {
      "inputs": [
        {
          "internalType": "address",
          "name": "_account",
          "type": "address"
        },
        {
          "internalType": "uint256",
          "name": "_amount",
          "type": "uint256"
        }
      ],
      "name": "mint",
      "outputs": [],
      "stateMutability": "nonpayable",
      "type": "function"
    },
    {
      "inputs": [
        {
          "internalType": "address",
          "name": "_contract",
          "type": "address"
        },
        {
          "internalType": "address",
          "name": "_account",
          "type": "address"
        },
        {
          "internalType": "uint256",
          "name": "_amount",
          "type": "uint256"
        },
        {
          "internalType": "bytes",
          "name": "_calldata",
          "type": "bytes"
        }
      ],
      "name": "mintToContract",
      "outputs": [],
      "stateMutability": "nonpayable",
      "type": "function"
    },
    {
      "inputs": [],
      "name": "name",
      "outputs": [
        {
          "internalType": "string",
          "name": "",
          "type": "string"
        }
      ],
      "stateMutability": "view",
      "type": "function"
    },
    {
      "inputs": [],
      "name": "owner",
      "outputs": [
        {
          "internalType": "address",
          "name": "",
          "type": "address"
        }
      ],
      "stateMutability": "view",
      "type": "function"
    },
    {
      "inputs": [],
      "name": "renounceOwnership",
      "outputs": [],
      "stateMutability": "nonpayable",
      "type": "function"
    },
    {
      "inputs": [],
      "name": "symbol",
      "outputs": [
        {
          "internalType": "string",
          "name": "",
          "type": "string"
        }
      ],
      "stateMutability": "view",
      "type": "function"
    },
    {
      "inputs": [],
      "name": "totalSupply",
      "outputs": [
        {
          "internalType": "uint256",
          "name": "",
          "type": "uint256"
        }
      ],
      "stateMutability": "view",
      "type": "function"
    },
    {
      "inputs": [
        {
          "internalType": "address",
          "name": "to",
          "type": "address"
        },
        {
          "internalType": "uint256",
          "name": "amount",
          "type": "uint256"
        }
      ],
      "name": "transfer",
      "outputs": [
        {
          "internalType": "bool",
          "name": "",
          "type": "bool"
        }
      ],
      "stateMutability": "nonpayable",
      "type": "function"
    },
    {
      "inputs": [
        {
          "internalType": "address",
          "name": "_to",
          "type": "address"
        },
        {
          "internalType": "uint256",
          "name": "_value",
          "type": "uint256"
        },
        {
          "internalType": "bytes",
          "name": "_data",
          "type": "bytes"
        }
      ],
      "name": "transferAndCall",
      "outputs": [
        {
          "internalType": "bool",
          "name": "",
          "type": "bool"
        }
      ],
      "stateMutability": "nonpayable",
      "type": "function"
    },
    {
      "inputs": [
        {
          "internalType": "address",
          "name": "from",
          "type": "address"
        },
        {
          "internalType": "address",
          "name": "to",
          "type": "address"
        },
        {
          "internalType": "uint256",
          "name": "amount",
          "type": "uint256"
        }
      ],
      "name": "transferFrom",
      "outputs": [
        {
          "internalType": "bool",
          "name": "",
          "type": "bool"
        }
      ],
      "stateMutability": "nonpayable",
      "type": "function"
    },
    {
      "inputs": [
        {
          "internalType": "address",
          "name": "newOwner",
          "type": "address"
        }
      ],
      "name": "transferOwnership",
      "outputs": [],
      "stateMutability": "nonpayable",
      "type": "function"
    }
  ],
  "transactionHash": "0x444d6cac9c69f9fef0055bfdb525dc01ff49a5b4bb82ecceedbbd1c689980f52",
  "args": [
    "Stake Dot Link",
    "SDL"
  ],
  "numDeployments": 1,
  "solcInputHash": "716f7ec369ec5237ed83445c47c46fa6",
  "bytecode": "0x60806040523480156200001157600080fd5b50604051620015eb380380620015eb8339810160408190526200003491620002cb565b8181600082826003620000488382620003c3565b506004620000578282620003c3565b50505062000091336200006f620000b660201b60201c565b6200007f9060ff16600a620005a4565b6200008b9084620005b9565b620000bb565b505050620000ae620000a8620001a360201b60201c565b620001a7565b5050620005f6565b601290565b6001600160a01b038216620001165760405162461bcd60e51b815260206004820152601f60248201527f45524332303a206d696e7420746f20746865207a65726f206164647265737300604482015260640160405180910390fd5b80600260008282546200012a9190620005db565b90915550506001600160a01b0382166000908152602081905260408120805483929062000159908490620005db565b90915550506040518181526001600160a01b038316906000907fddf252ad1be2c89b69c2b068fc378daa952ba7f163c4a11628f55a4df523b3ef9060200160405180910390a35050565b3390565b600580546001600160a01b038381166001600160a01b0319831681179093556040519116919082907f8be0079c531659141344cd1fd0a4f28419497f9722a3daafe3b4186f6b6457e090600090a35050565b505050565b634e487b7160e01b600052604160045260246000fd5b600082601f8301126200022657600080fd5b81516001600160401b0380821115620002435762000243620001fe565b604051601f8301601f19908116603f011681019082821181831017156200026e576200026e620001fe565b816040528381526020925086838588010111156200028b57600080fd5b600091505b83821015620002af578582018301518183018401529082019062000290565b83821115620002c15760008385830101525b9695505050505050565b60008060408385031215620002df57600080fd5b82516001600160401b0380821115620002f757600080fd5b620003058683870162000214565b935060208501519150808211156200031c57600080fd5b506200032b8582860162000214565b9150509250929050565b600181811c908216806200034a57607f821691505b6020821081036200036b57634e487b7160e01b600052602260045260246000fd5b50919050565b601f821115620001f957600081815260208120601f850160051c810160208610156200039a5750805b601f850160051c820191505b81811015620003bb57828155600101620003a6565b505050505050565b81516001600160401b03811115620003df57620003df620001fe565b620003f781620003f0845462000335565b8462000371565b602080601f8311600181146200042f5760008415620004165750858301515b600019600386901b1c1916600185901b178555620003bb565b600085815260208120601f198616915b8281101562000460578886015182559484019460019091019084016200043f565b50858210156200047f5787850151600019600388901b60f8161c191681555b5050505050600190811b01905550565b634e487b7160e01b600052601160045260246000fd5b600181815b80851115620004e6578160001904821115620004ca57620004ca6200048f565b80851615620004d857918102915b93841c9390800290620004aa565b509250929050565b600082620004ff575060016200059e565b816200050e575060006200059e565b8160018114620005275760028114620005325762000552565b60019150506200059e565b60ff8411156200054657620005466200048f565b50506001821b6200059e565b5060208310610133831016604e8410600b841016171562000577575081810a6200059e565b620005838383620004a5565b80600019048211156200059a576200059a6200048f565b0290505b92915050565b6000620005b28383620004ee565b9392505050565b6000816000190483118215151615620005d657620005d66200048f565b500290565b60008219821115620005f157620005f16200048f565b500190565b610fe580620006066000396000f3fe608060405234801561001057600080fd5b50600436106101215760003560e01c806370a08231116100ad578063a457c2d711610071578063a457c2d714610250578063a9059cbb14610263578063dd62ed3e14610276578063f08a798014610289578063f2fde38b1461029c57600080fd5b806370a08231146101e9578063715018a61461021257806379cc67901461021a5780638da5cb5b1461022d57806395d89b411461024857600080fd5b8063313ce567116100f4578063313ce5671461018c578063395093511461019b5780634000aea0146101ae57806340c10f19146101c157806342966c68146101d657600080fd5b806306fdde0314610126578063095ea7b31461014457806318160ddd1461016757806323b872dd14610179575b600080fd5b61012e6102af565b60405161013b9190610c91565b60405180910390f35b610157610152366004610d02565b610341565b604051901515815260200161013b565b6002545b60405190815260200161013b565b610157610187366004610d2c565b610359565b6040516012815260200161013b565b6101576101a9366004610d02565b61037d565b6101576101bc366004610db1565b61039f565b6101d46101cf366004610d02565b6103c0565b005b6101d46101e4366004610e0b565b6103d6565b61016b6101f7366004610e24565b6001600160a01b031660009081526020819052604090205490565b6101d46103e3565b6101d4610228366004610d02565b6103f7565b6005546040516001600160a01b03909116815260200161013b565b61012e61040c565b61015761025e366004610d02565b61041b565b610157610271366004610d02565b61049b565b61016b610284366004610e46565b6104a9565b6101d4610297366004610e79565b6104d4565b6101d46102aa366004610e24565b6104fb565b6060600380546102be90610ee8565b80601f01602080910402602001604051908101604052809291908181526020018280546102ea90610ee8565b80156103375780601f1061030c57610100808354040283529160200191610337565b820191906000526020600020905b81548152906001019060200180831161031a57829003601f168201915b5050505050905090565b60003361034f818585610571565b5060019392505050565b600033610367858285610696565b610372858585610710565b506001949350505050565b60003361034f81858561039083836104a9565b61039a9190610f38565b610571565b60006103ab858561049b565b50843b156103725761037233868686866108de565b6103c861094c565b6103d282826109a6565b5050565b6103e03382610a85565b50565b6103eb61094c565b6103f56000610bcb565b565b610402823383610696565b6103d28282610a85565b6060600480546102be90610ee8565b6000338161042982866104a9565b90508381101561048e5760405162461bcd60e51b815260206004820152602560248201527f45524332303a2064656372656173656420616c6c6f77616e63652062656c6f77604482015264207a65726f60d81b60648201526084015b60405180910390fd5b6103728286868403610571565b60003361034f818585610710565b6001600160a01b03918216600090815260016020908152604080832093909416825291909152205490565b6104dc61094c565b6104e633846109a6565b6104f38486858585610c1d565b505050505050565b61050361094c565b6001600160a01b0381166105685760405162461bcd60e51b815260206004820152602660248201527f4f776e61626c653a206e6577206f776e657220697320746865207a65726f206160448201526564647265737360d01b6064820152608401610485565b6103e081610bcb565b6001600160a01b0383166105d35760405162461bcd60e51b8152602060048201526024808201527f45524332303a20617070726f76652066726f6d20746865207a65726f206164646044820152637265737360e01b6064820152608401610485565b6001600160a01b0382166106345760405162461bcd60e51b815260206004820152602260248201527f45524332303a20617070726f766520746f20746865207a65726f206164647265604482015261737360f01b6064820152608401610485565b6001600160a01b0383811660008181526001602090815260408083209487168084529482529182902085905590518481527f8c5be1e5ebec7d5bd14f71427d1e84f3dd0314c0f7b2291e5b200ac8c7c3b92591015b60405180910390a3505050565b60006106a284846104a9565b9050600019811461070a57818110156106fd5760405162461bcd60e51b815260206004820152601d60248201527f45524332303a20696e73756666696369656e7420616c6c6f77616e63650000006044820152606401610485565b61070a8484848403610571565b50505050565b6001600160a01b0383166107745760405162461bcd60e51b815260206004820152602560248201527f45524332303a207472616e736665722066726f6d20746865207a65726f206164604482015264647265737360d81b6064820152608401610485565b6001600160a01b0382166107d65760405162461bcd60e51b815260206004820152602360248201527f45524332303a207472616e7366657220746f20746865207a65726f206164647260448201526265737360e81b6064820152608401610485565b6001600160a01b0383166000908152602081905260409020548181101561084e5760405162461bcd60e51b815260206004820152602660248201527f45524332303a207472616e7366657220616d6f756e7420657863656564732062604482015265616c616e636560d01b6064820152608401610485565b6001600160a01b03808516600090815260208190526040808220858503905591851681529081208054849290610885908490610f38565b92505081905550826001600160a01b0316846001600160a01b03167fddf252ad1be2c89b69c2b068fc378daa952ba7f163c4a11628f55a4df523b3ef846040516108d191815260200190565b60405180910390a361070a565b604051635260769b60e11b815284906001600160a01b0382169063a4c0ed3690610912908990889088908890600401610f50565b600060405180830381600087803b15801561092c57600080fd5b505af1158015610940573d6000803e3d6000fd5b50505050505050505050565b6005546001600160a01b031633146103f55760405162461bcd60e51b815260206004820181905260248201527f4f776e61626c653a2063616c6c6572206973206e6f7420746865206f776e65726044820152606401610485565b6001600160a01b0382166109fc5760405162461bcd60e51b815260206004820152601f60248201527f45524332303a206d696e7420746f20746865207a65726f2061646472657373006044820152606401610485565b8060026000828254610a0e9190610f38565b90915550506001600160a01b03821660009081526020819052604081208054839290610a3b908490610f38565b90915550506040518181526001600160a01b038316906000907fddf252ad1be2c89b69c2b068fc378daa952ba7f163c4a11628f55a4df523b3ef9060200160405180910390a35050565b6001600160a01b038216610ae55760405162461bcd60e51b815260206004820152602160248201527f45524332303a206275726e2066726f6d20746865207a65726f206164647265736044820152607360f81b6064820152608401610485565b6001600160a01b03821660009081526020819052604090205481811015610b595760405162461bcd60e51b815260206004820152602260248201527f45524332303a206275726e20616d6f756e7420657863656564732062616c616e604482015261636560f01b6064820152608401610485565b6001600160a01b0383166000908152602081905260408120838303905560028054849290610b88908490610f98565b90915550506040518281526000906001600160a01b038516907fddf252ad1be2c89b69c2b068fc378daa952ba7f163c4a11628f55a4df523b3ef90602001610689565b600580546001600160a01b038381166001600160a01b0319831681179093556040519116919082907f8be0079c531659141344cd1fd0a4f28419497f9722a3daafe3b4186f6b6457e090600090a35050565b6000843b610c6d5760405162461bcd60e51b815260206004820152601f60248201527f746f20616464726573732068617320746f206265206120636f6e7472616374006044820152606401610485565b610c77858561049b565b50610c8586868686866108de565b50600195945050505050565b600060208083528351808285015260005b81811015610cbe57858101830151858201604001528201610ca2565b81811115610cd0576000604083870101525b50601f01601f1916929092016040019392505050565b80356001600160a01b0381168114610cfd57600080fd5b919050565b60008060408385031215610d1557600080fd5b610d1e83610ce6565b946020939093013593505050565b600080600060608486031215610d4157600080fd5b610d4a84610ce6565b9250610d5860208501610ce6565b9150604084013590509250925092565b60008083601f840112610d7a57600080fd5b50813567ffffffffffffffff811115610d9257600080fd5b602083019150836020828501011115610daa57600080fd5b9250929050565b60008060008060608587031215610dc757600080fd5b610dd085610ce6565b935060208501359250604085013567ffffffffffffffff811115610df357600080fd5b610dff87828801610d68565b95989497509550505050565b600060208284031215610e1d57600080fd5b5035919050565b600060208284031215610e3657600080fd5b610e3f82610ce6565b9392505050565b60008060408385031215610e5957600080fd5b610e6283610ce6565b9150610e7060208401610ce6565b90509250929050565b600080600080600060808688031215610e9157600080fd5b610e9a86610ce6565b9450610ea860208701610ce6565b935060408601359250606086013567ffffffffffffffff811115610ecb57600080fd5b610ed788828901610d68565b969995985093965092949392505050565b600181811c90821680610efc57607f821691505b602082108103610f1c57634e487b7160e01b600052602260045260246000fd5b50919050565b634e487b7160e01b600052601160045260246000fd5b60008219821115610f4b57610f4b610f22565b500190565b6001600160a01b0385168152602081018490526060604082018190528101829052818360808301376000818301608090810191909152601f909201601f191601019392505050565b600082821015610faa57610faa610f22565b50039056fea2646970667358221220d41291d487bf2e9e675236cd014011add49eac181846d221d734e146ba5ce79f64736f6c634300080f0033",
  "devdoc": {
    "kind": "dev",
    "methods": {
      "allowance(address,address)": {
        "details": "See {IERC20-allowance}."
      },
      "approve(address,uint256)": {
        "details": "See {IERC20-approve}. NOTE: If `amount` is the maximum `uint256`, the allowance is not updated on `transferFrom`. This is semantically equivalent to an infinite approval. Requirements: - `spender` cannot be the zero address."
      },
      "balanceOf(address)": {
        "details": "See {IERC20-balanceOf}."
      },
      "burn(uint256)": {
        "details": "Burns a given amount of tokens from the sender",
        "params": {
          "_amount": "amount of tokens to burn*"
        }
      },
      "burnFrom(address,uint256)": {
        "details": "Destroys `amount` tokens from `account`, deducting from the caller's allowance."
      },
      "decimals()": {
        "details": "Returns the number of decimals used to get its user representation. For example, if `decimals` equals `2`, a balance of `505` tokens should be displayed to a user as `5.05` (`505 / 10 ** 2`). Tokens usually opt for a value of 18, imitating the relationship between Ether and Wei. This is the value {ERC20} uses, unless this function is overridden; NOTE: This information is only used for _display_ purposes: it in no way affects any of the arithmetic of the contract, including {IERC20-balanceOf} and {IERC20-transfer}."
      },
      "decreaseAllowance(address,uint256)": {
        "details": "Atomically decreases the allowance granted to `spender` by the caller. This is an alternative to {approve} that can be used as a mitigation for problems described in {IERC20-approve}. Emits an {Approval} event indicating the updated allowance. Requirements: - `spender` cannot be the zero address. - `spender` must have allowance for the caller of at least `subtractedValue`."
      },
      "increaseAllowance(address,uint256)": {
        "details": "Atomically increases the allowance granted to `spender` by the caller. This is an alternative to {approve} that can be used as a mitigation for problems described in {IERC20-approve}. Emits an {Approval} event indicating the updated allowance. Requirements: - `spender` cannot be the zero address."
      },
      "mint(address,uint256)": {
        "details": "Mints a given amount of tokens to an account",
        "params": {
          "_account": "address to mint to",
          "_amount": "amount of tokens to mint*"
        }
      },
      "mintToContract(address,address,uint256,bytes)": {
        "details": "Mints a given amount of tokens to a contract on behalf of an account via ERC677",
        "params": {
          "_account": "address to mint to",
          "_amount": "amount of tokens to mint*",
          "_contract": "to send tokens to"
        }
      },
      "name()": {
        "details": "Returns the name of the token."
      },
      "owner()": {
        "details": "Returns the address of the current owner."
      },
      "renounceOwnership()": {
        "details": "Leaves the contract without owner. It will not be possible to call `onlyOwner` functions anymore. Can only be called by the current owner. NOTE: Renouncing ownership will leave the contract without an owner, thereby removing any functionality that is only available to the owner."
      },
      "symbol()": {
        "details": "Returns the symbol of the token, usually a shorter version of the name."
      },
      "totalSupply()": {
        "details": "See {IERC20-totalSupply}."
      },
      "transfer(address,uint256)": {
        "details": "See {IERC20-transfer}. Requirements: - `to` cannot be the zero address. - the caller must have a balance of at least `amount`."
      },
      "transferFrom(address,address,uint256)": {
        "details": "See {IERC20-transferFrom}. Emits an {Approval} event indicating the updated allowance. This is not required by the EIP. See the note at the beginning of {ERC20}. NOTE: Does not update the allowance if the current allowance is the maximum `uint256`. Requirements: - `from` and `to` cannot be the zero address. - `from` must have a balance of at least `amount`. - the caller must have allowance for ``from``'s tokens of at least `amount`."
      },
      "transferOwnership(address)": {
        "details": "Transfers ownership of the contract to a new account (`newOwner`). Can only be called by the current owner."
      }
    },
    "title": "Allowance token for staking fair-access",
    "version": 1
  },
  "userdoc": {
    "kind": "user",
    "methods": {},
    "notice": "Allows for an elastic supply where allowance is calculated by balance & supply",
    "version": 1
  },
  "storageLayout": {
    "storage": [
      {
        "astId": 4355,
        "contract": "contracts/core/tokens/StakingAllowance.sol:StakingAllowance",
        "label": "_balances",
        "offset": 0,
        "slot": "0",
        "type": "t_mapping(t_address,t_uint256)"
      },
      {
        "astId": 4361,
        "contract": "contracts/core/tokens/StakingAllowance.sol:StakingAllowance",
        "label": "_allowances",
        "offset": 0,
        "slot": "1",
        "type": "t_mapping(t_address,t_mapping(t_address,t_uint256))"
      },
      {
        "astId": 4363,
        "contract": "contracts/core/tokens/StakingAllowance.sol:StakingAllowance",
        "label": "_totalSupply",
        "offset": 0,
        "slot": "2",
        "type": "t_uint256"
      },
      {
        "astId": 4365,
        "contract": "contracts/core/tokens/StakingAllowance.sol:StakingAllowance",
        "label": "_name",
        "offset": 0,
        "slot": "3",
        "type": "t_string_storage"
      },
      {
        "astId": 4367,
        "contract": "contracts/core/tokens/StakingAllowance.sol:StakingAllowance",
        "label": "_symbol",
        "offset": 0,
        "slot": "4",
        "type": "t_string_storage"
      },
      {
        "astId": 3767,
        "contract": "contracts/core/tokens/StakingAllowance.sol:StakingAllowance",
        "label": "_owner",
        "offset": 0,
        "slot": "5",
        "type": "t_address"
      }
    ],
    "types": {
      "t_address": {
        "encoding": "inplace",
        "label": "address",
        "numberOfBytes": "20"
      },
      "t_mapping(t_address,t_mapping(t_address,t_uint256))": {
        "encoding": "mapping",
        "key": "t_address",
        "label": "mapping(address => mapping(address => uint256))",
        "numberOfBytes": "32",
        "value": "t_mapping(t_address,t_uint256)"
      },
      "t_mapping(t_address,t_uint256)": {
        "encoding": "mapping",
        "key": "t_address",
        "label": "mapping(address => uint256)",
        "numberOfBytes": "32",
        "value": "t_uint256"
      },
      "t_string_storage": {
        "encoding": "bytes",
        "label": "string",
        "numberOfBytes": "32"
      },
      "t_uint256": {
        "encoding": "inplace",
        "label": "uint256",
        "numberOfBytes": "32"
      }
    }
  }
}